{
  "contractName": "Greetings",
  "abi": [
    {
      "anonymous": false,
      "inputs": [
        {
          "indexed": true,
          "internalType": "address",
          "name": "previousOwner",
          "type": "address"
        },
        {
          "indexed": true,
          "internalType": "address",
          "name": "newOwner",
          "type": "address"
        }
      ],
      "name": "OwnershipTransferred",
      "type": "event"
    },
    {
      "inputs": [],
      "name": "crossChainContract",
      "outputs": [
        {
          "internalType": "contract CrossChain",
          "name": "",
          "type": "address"
        }
      ],
      "stateMutability": "view",
      "type": "function",
      "constant": true
    },
    {
      "inputs": [
        {
          "internalType": "uint256",
          "name": "",
          "type": "uint256"
        }
      ],
      "name": "greetings",
      "outputs": [
        {
          "internalType": "string",
          "name": "title",
          "type": "string"
        },
        {
          "internalType": "string",
          "name": "content",
          "type": "string"
        },
        {
          "internalType": "string",
          "name": "date",
          "type": "string"
        }
      ],
      "stateMutability": "view",
      "type": "function",
      "constant": true
    },
    {
      "inputs": [
        {
          "internalType": "string",
          "name": "",
          "type": "string"
        }
      ],
      "name": "methodMap",
      "outputs": [
        {
          "internalType": "string",
          "name": "contractAddress",
          "type": "string"
        },
        {
          "internalType": "string",
          "name": "methodName",
          "type": "string"
        },
        {
          "internalType": "bool",
          "name": "used",
          "type": "bool"
        }
      ],
      "stateMutability": "view",
      "type": "function",
      "constant": true
    },
    {
      "inputs": [],
      "name": "owner",
      "outputs": [
        {
          "internalType": "address",
          "name": "",
          "type": "address"
        }
      ],
      "stateMutability": "view",
      "type": "function",
      "constant": true
    },
    {
      "inputs": [
        {
          "internalType": "string",
          "name": "_toChain",
          "type": "string"
        },
        {
          "internalType": "string",
          "name": "_contractAddress",
          "type": "string"
        },
        {
          "internalType": "string",
          "name": "_methodName",
          "type": "string"
        }
      ],
      "name": "registerDestinationMethod",
      "outputs": [],
      "stateMutability": "nonpayable",
      "type": "function"
    },
    {
      "inputs": [
        {
          "internalType": "string",
          "name": "_funcName",
          "type": "string"
        },
        {
          "internalType": "string",
          "name": "_abiString",
          "type": "string"
        },
        {
          "internalType": "string",
          "name": "_paramName",
          "type": "string"
        },
        {
          "internalType": "string",
          "name": "_paramType",
          "type": "string"
        }
      ],
      "name": "registerTarget",
      "outputs": [],
      "stateMutability": "nonpayable",
      "type": "function"
    },
    {
      "inputs": [],
      "name": "renounceOwnership",
      "outputs": [],
      "stateMutability": "nonpayable",
      "type": "function"
    },
    {
      "inputs": [
        {
          "internalType": "address",
          "name": "_address",
          "type": "address"
        }
      ],
      "name": "setCrossChainContract",
      "outputs": [],
      "stateMutability": "nonpayable",
      "type": "function"
    },
    {
      "inputs": [
        {
          "internalType": "address",
          "name": "newOwner",
          "type": "address"
        }
      ],
      "name": "transferOwnership",
      "outputs": [],
      "stateMutability": "nonpayable",
      "type": "function"
    },
    {
      "inputs": [
        {
          "internalType": "string",
          "name": "_funcName",
          "type": "string"
        },
        {
          "internalType": "string",
          "name": "_interface",
          "type": "string"
        }
      ],
      "name": "registerInterface",
      "outputs": [],
      "stateMutability": "nonpayable",
      "type": "function"
    },
    {
      "inputs": [
        {
          "internalType": "string",
          "name": "_title",
          "type": "string"
        },
        {
          "internalType": "string",
          "name": "_content",
          "type": "string"
        },
        {
          "internalType": "string",
          "name": "_date",
          "type": "string"
        }
      ],
      "name": "receiveGreeting",
      "outputs": [],
      "stateMutability": "nonpayable",
      "type": "function"
    },
    {
      "inputs": [
        {
          "internalType": "string",
          "name": "_toChain",
          "type": "string"
        },
        {
          "internalType": "string",
          "name": "_title",
          "type": "string"
        },
        {
          "internalType": "string",
          "name": "_content",
          "type": "string"
        },
        {
          "internalType": "string",
          "name": "_date",
          "type": "string"
        }
      ],
      "name": "sendGreeting",
      "outputs": [],
      "stateMutability": "nonpayable",
      "type": "function"
    }
  ],
  "bytecode": "0x608060405234801561001057600080fd5b5061002d61002261003260201b60201c565b61003a60201b60201c565b6100fe565b600033905090565b60008060009054906101000a900473ffffffffffffffffffffffffffffffffffffffff169050816000806101000a81548173ffffffffffffffffffffffffffffffffffffffff021916908373ffffffffffffffffffffffffffffffffffffffff1602179055508173ffffffffffffffffffffffffffffffffffffffff168173ffffffffffffffffffffffffffffffffffffffff167f8be0079c531659141344cd1fd0a4f28419497f9722a3daafe3b4186f6b6457e060405160405180910390a35050565b611b278061010d6000396000f3fe608060405234801561001057600080fd5b50600436106100b45760003560e01c80638da5cb5b116100715780638da5cb5b1461014f578063cf3e4ed71461016d578063dbc90de114610189578063e528d4d1146101a7578063f2fde38b146101d9578063f87c9ea9146101f5576100b4565b806318d72b54146100b95780632808eb1b146100d55780634380aa3a146100f1578063454065841461010d578063715018a614610129578063791fd40d14610133575b600080fd5b6100d360048036038101906100ce9190610f2d565b610227565b005b6100ef60048036038101906100ea9190610fbf565b6102e7565b005b61010b60048036038101906101069190611073565b6103e0565b005b610127600480360381019061012291906110f4565b6104f5565b005b610131610616565b005b61014d600480360381019061014891906110f4565b61069e565b005b6101576107e8565b60405161016491906111ec565b60405180910390f35b61018760048036038101906101829190610fbf565b610811565b005b6101916108ff565b60405161019e9190611266565b60405180910390f35b6101c160048036038101906101bc91906113c2565b610925565b6040516101d0939291906114ae565b60405180910390f35b6101f360048036038101906101ee9190610f2d565b610a82565b005b61020f600480360381019061020a9190611529565b610b7a565b60405161021e93929190611556565b60405180910390f35b61022f610d4c565b73ffffffffffffffffffffffffffffffffffffffff1661024d6107e8565b73ffffffffffffffffffffffffffffffffffffffff16146102a3576040517f08c379a000000000000000000000000000000000000000000000000000000000815260040161029a906115ee565b60405180910390fd5b80600160006101000a81548173ffffffffffffffffffffffffffffffffffffffff021916908373ffffffffffffffffffffffffffffffffffffffff16021790555050565b600160009054906101000a900473ffffffffffffffffffffffffffffffffffffffff1673ffffffffffffffffffffffffffffffffffffffff163373ffffffffffffffffffffffffffffffffffffffff1614610377576040517f08c379a000000000000000000000000000000000000000000000000000000000815260040161036e9061165a565b60405180910390fd5b60006003600181600181540180825580915050039060005260206000209060030201905086868260000191906103ae929190610e18565b5084848260010191906103c2929190610e18565b5082828260020191906103d6929190610e18565b5050505050505050565b6103e8610d4c565b73ffffffffffffffffffffffffffffffffffffffff166104066107e8565b73ffffffffffffffffffffffffffffffffffffffff161461045c576040517f08c379a0000000000000000000000000000000000000000000000000000000008152600401610453906115ee565b60405180910390fd5b600160009054906101000a900473ffffffffffffffffffffffffffffffffffffffff1673ffffffffffffffffffffffffffffffffffffffff16634380aa3a858585856040518563ffffffff1660e01b81526004016104bd94939291906116a7565b600060405180830381600087803b1580156104d757600080fd5b505af11580156104eb573d6000803e3d6000fd5b5050505050505050565b6104fd610d4c565b73ffffffffffffffffffffffffffffffffffffffff1661051b6107e8565b73ffffffffffffffffffffffffffffffffffffffff1614610571576040517f08c379a0000000000000000000000000000000000000000000000000000000008152600401610568906115ee565b60405180910390fd5b600160009054906101000a900473ffffffffffffffffffffffffffffffffffffffff1673ffffffffffffffffffffffffffffffffffffffff16634540658489898989898989896040518963ffffffff1660e01b81526004016105da9897969594939291906116e2565b600060405180830381600087803b1580156105f457600080fd5b505af1158015610608573d6000803e3d6000fd5b505050505050505050505050565b61061e610d4c565b73ffffffffffffffffffffffffffffffffffffffff1661063c6107e8565b73ffffffffffffffffffffffffffffffffffffffff1614610692576040517f08c379a0000000000000000000000000000000000000000000000000000000008152600401610689906115ee565b60405180910390fd5b61069c6000610d54565b565b6000600289896040516106b292919061177b565b908152602001604051809103902090508060020160009054906101000a900460ff16610713576040517f08c379a000000000000000000000000000000000000000000000000000000000815260040161070a906117e0565b60405180910390fd5b60008787878787876040516020016107309695949392919061184c565b6040516020818303038152906040529050600160009054906101000a900473ffffffffffffffffffffffffffffffffffffffff1673ffffffffffffffffffffffffffffffffffffffff1663729518fc8b8b8560000186600101866040518663ffffffff1660e01b81526004016107aa9594939291906119fc565b600060405180830381600087803b1580156107c457600080fd5b505af11580156107d8573d6000803e3d6000fd5b5050505050505050505050505050565b60008060009054906101000a900473ffffffffffffffffffffffffffffffffffffffff16905090565b610819610d4c565b73ffffffffffffffffffffffffffffffffffffffff166108376107e8565b73ffffffffffffffffffffffffffffffffffffffff161461088d576040517f08c379a0000000000000000000000000000000000000000000000000000000008152600401610884906115ee565b60405180910390fd5b6000600287876040516108a192919061177b565b9081526020016040518091039020905084848260000191906108c4929190610e18565b5082828260010191906108d8929190610e18565b5060018160020160006101000a81548160ff02191690831515021790555050505050505050565b600160009054906101000a900473ffffffffffffffffffffffffffffffffffffffff1681565b60028180516020810182018051848252602083016020850120818352809550505050505060009150905080600001805461095e906118e0565b80601f016020809104026020016040519081016040528092919081815260200182805461098a906118e0565b80156109d75780601f106109ac576101008083540402835291602001916109d7565b820191906000526020600020905b8154815290600101906020018083116109ba57829003601f168201915b5050505050908060010180546109ec906118e0565b80601f0160208091040260200160405190810160405280929190818152602001828054610a18906118e0565b8015610a655780601f10610a3a57610100808354040283529160200191610a65565b820191906000526020600020905b815481529060010190602001808311610a4857829003601f168201915b5050505050908060020160009054906101000a900460ff16905083565b610a8a610d4c565b73ffffffffffffffffffffffffffffffffffffffff16610aa86107e8565b73ffffffffffffffffffffffffffffffffffffffff1614610afe576040517f08c379a0000000000000000000000000000000000000000000000000000000008152600401610af5906115ee565b60405180910390fd5b600073ffffffffffffffffffffffffffffffffffffffff168173ffffffffffffffffffffffffffffffffffffffff161415610b6e576040517f08c379a0000000000000000000000000000000000000000000000000000000008152600401610b6590611ad1565b60405180910390fd5b610b7781610d54565b50565b60038181548110610b8a57600080fd5b9060005260206000209060030201600091509050806000018054610bad906118e0565b80601f0160208091040260200160405190810160405280929190818152602001828054610bd9906118e0565b8015610c265780601f10610bfb57610100808354040283529160200191610c26565b820191906000526020600020905b815481529060010190602001808311610c0957829003601f168201915b505050505090806001018054610c3b906118e0565b80601f0160208091040260200160405190810160405280929190818152602001828054610c67906118e0565b8015610cb45780601f10610c8957610100808354040283529160200191610cb4565b820191906000526020600020905b815481529060010190602001808311610c9757829003601f168201915b505050505090806002018054610cc9906118e0565b80601f0160208091040260200160405190810160405280929190818152602001828054610cf5906118e0565b8015610d425780601f10610d1757610100808354040283529160200191610d42565b820191906000526020600020905b815481529060010190602001808311610d2557829003601f168201915b5050505050905083565b600033905090565b60008060009054906101000a900473ffffffffffffffffffffffffffffffffffffffff169050816000806101000a81548173ffffffffffffffffffffffffffffffffffffffff021916908373ffffffffffffffffffffffffffffffffffffffff1602179055508173ffffffffffffffffffffffffffffffffffffffff168173ffffffffffffffffffffffffffffffffffffffff167f8be0079c531659141344cd1fd0a4f28419497f9722a3daafe3b4186f6b6457e060405160405180910390a35050565b828054610e24906118e0565b90600052602060002090601f016020900481019282610e465760008555610e8d565b82601f10610e5f57803560ff1916838001178555610e8d565b82800160010185558215610e8d579182015b82811115610e8c578235825591602001919060010190610e71565b5b509050610e9a9190610e9e565b5090565b5b80821115610eb7576000816000905550600101610e9f565b5090565b6000604051905090565b600080fd5b600080fd5b600073ffffffffffffffffffffffffffffffffffffffff82169050919050565b6000610efa82610ecf565b9050919050565b610f0a81610eef565b8114610f1557600080fd5b50565b600081359050610f2781610f01565b92915050565b600060208284031215610f4357610f42610ec5565b5b6000610f5184828501610f18565b91505092915050565b600080fd5b600080fd5b600080fd5b60008083601f840112610f7f57610f7e610f5a565b5b8235905067ffffffffffffffff811115610f9c57610f9b610f5f565b5b602083019150836001820283011115610fb857610fb7610f64565b5b9250929050565b60008060008060008060608789031215610fdc57610fdb610ec5565b5b600087013567ffffffffffffffff811115610ffa57610ff9610eca565b5b61100689828a01610f69565b9650965050602087013567ffffffffffffffff81111561102957611028610eca565b5b61103589828a01610f69565b9450945050604087013567ffffffffffffffff81111561105857611057610eca565b5b61106489828a01610f69565b92509250509295509295509295565b6000806000806040858703121561108d5761108c610ec5565b5b600085013567ffffffffffffffff8111156110ab576110aa610eca565b5b6110b787828801610f69565b9450945050602085013567ffffffffffffffff8111156110da576110d9610eca565b5b6110e687828801610f69565b925092505092959194509250565b6000806000806000806000806080898b03121561111457611113610ec5565b5b600089013567ffffffffffffffff81111561113257611131610eca565b5b61113e8b828c01610f69565b9850985050602089013567ffffffffffffffff81111561116157611160610eca565b5b61116d8b828c01610f69565b9650965050604089013567ffffffffffffffff8111156111905761118f610eca565b5b61119c8b828c01610f69565b9450945050606089013567ffffffffffffffff8111156111bf576111be610eca565b5b6111cb8b828c01610f69565b92509250509295985092959890939650565b6111e681610eef565b82525050565b600060208201905061120160008301846111dd565b92915050565b6000819050919050565b600061122c61122761122284610ecf565b611207565b610ecf565b9050919050565b600061123e82611211565b9050919050565b600061125082611233565b9050919050565b61126081611245565b82525050565b600060208201905061127b6000830184611257565b92915050565b600080fd5b6000601f19601f8301169050919050565b7f4e487b7100000000000000000000000000000000000000000000000000000000600052604160045260246000fd5b6112cf82611286565b810181811067ffffffffffffffff821117156112ee576112ed611297565b5b80604052505050565b6000611301610ebb565b905061130d82826112c6565b919050565b600067ffffffffffffffff82111561132d5761132c611297565b5b61133682611286565b9050602081019050919050565b82818337600083830152505050565b600061136561136084611312565b6112f7565b90508281526020810184848401111561138157611380611281565b5b61138c848285611343565b509392505050565b600082601f8301126113a9576113a8610f5a565b5b81356113b9848260208601611352565b91505092915050565b6000602082840312156113d8576113d7610ec5565b5b600082013567ffffffffffffffff8111156113f6576113f5610eca565b5b61140284828501611394565b91505092915050565b600081519050919050565b600082825260208201905092915050565b60005b8381101561144557808201518184015260208101905061142a565b83811115611454576000848401525b50505050565b60006114658261140b565b61146f8185611416565b935061147f818560208601611427565b61148881611286565b840191505092915050565b60008115159050919050565b6114a881611493565b82525050565b600060608201905081810360008301526114c8818661145a565b905081810360208301526114dc818561145a565b90506114eb604083018461149f565b949350505050565b6000819050919050565b611506816114f3565b811461151157600080fd5b50565b600081359050611523816114fd565b92915050565b60006020828403121561153f5761153e610ec5565b5b600061154d84828501611514565b91505092915050565b60006060820190508181036000830152611570818661145a565b90508181036020830152611584818561145a565b90508181036040830152611598818461145a565b9050949350505050565b7f4f776e61626c653a2063616c6c6572206973206e6f7420746865206f776e6572600082015250565b60006115d8602083611416565b91506115e3826115a2565b602082019050919050565b60006020820190508181036000830152611607816115cb565b9050919050565b7f4c6f636b65723a2063616c6c6572206973206e6f742043726f7373436861696e600082015250565b6000611644602083611416565b915061164f8261160e565b602082019050919050565b6000602082019050818103600083015261167381611637565b9050919050565b60006116868385611416565b9350611693838584611343565b61169c83611286565b840190509392505050565b600060408201905081810360008301526116c281868861167a565b905081810360208301526116d781848661167a565b905095945050505050565b600060808201905081810360008301526116fd818a8c61167a565b9050818103602083015261171281888a61167a565b9050818103604083015261172781868861167a565b9050818103606083015261173c81848661167a565b90509998505050505050505050565b600081905092915050565b6000611762838561174b565b935061176f838584611343565b82840190509392505050565b6000611788828486611756565b91508190509392505050565b7f6d6574686f64206e6f7420726567697374657265640000000000000000000000600082015250565b60006117ca601583611416565b91506117d582611794565b602082019050919050565b600060208201905081810360008301526117f9816117bd565b9050919050565b7f4176616c616e6368650000000000000000000000000000000000000000000000600082015250565b6000611836600983611416565b915061184182611800565b602082019050919050565b6000608082019050818103600083015261186581611829565b9050818103602083015261187a81888a61167a565b9050818103604083015261188f81868861167a565b905081810360608301526118a481848661167a565b9050979650505050505050565b7f4e487b7100000000000000000000000000000000000000000000000000000000600052602260045260246000fd5b600060028204905060018216806118f857607f821691505b6020821081141561190c5761190b6118b1565b5b50919050565b60008190508160005260206000209050919050565b60008154611934816118e0565b61193e8186611416565b94506001821660008114611959576001811461196b5761199e565b60ff198316865260208601935061199e565b61197485611912565b60005b8381101561199657815481890152600182019150602081019050611977565b808801955050505b50505092915050565b600081519050919050565b600082825260208201905092915050565b60006119ce826119a7565b6119d881856119b2565b93506119e8818560208601611427565b6119f181611286565b840191505092915050565b60006080820190508181036000830152611a1781878961167a565b90508181036020830152611a2b8186611927565b90508181036040830152611a3f8185611927565b90508181036060830152611a5381846119c3565b90509695505050505050565b7f4f776e61626c653a206e6577206f776e657220697320746865207a65726f206160008201527f6464726573730000000000000000000000000000000000000000000000000000602082015250565b6000611abb602683611416565b9150611ac682611a5f565b604082019050919050565b60006020820190508181036000830152611aea81611aae565b905091905056fea264697066735822122039bf196f7488f9633d7f805c5552a887072b471cb9b624fc58c741326bb8c76564736f6c634300080a0033",
  "immutableReferences": {},
  "source": "// SPDX-License-Identifier: MIT\npragma solidity >=0.8.0 <0.9.0;\n\nimport \"@openzeppelin/contracts/access/Ownable.sol\";\nimport \"./../ConsumerBase.sol\";\n\ncontract Greetings is ConsumerBase {\n    struct Greeting {\n        string title;\n        string content;\n        string date;\n    }\n    \n    // Store greetings\n    Greeting[] public greetings;\n\n    function registerInterface(string calldata _funcName, string calldata _interface) onlyOwner override external {\n        crossChainContract.registerInterface(_funcName, _interface);\n    }\n\n    function receiveGreeting(string calldata _title, string calldata _content, string calldata _date) external {\n        require(msg.sender == address(crossChainContract), \"Locker: caller is not CrossChain\");\n        Greeting storage g = greetings.push();\n        g.title = _title;\n        g.content = _content;\n        g.date = _date;\n    }\n\n    function sendGreeting(string calldata _toChain, string calldata _title, string calldata _content, string calldata _date) external {\n        DestinationMethod storage method = methodMap[_toChain];\n        require(method.used, \"method not registered\");\n\n        bytes memory data = abi.encode(\"Avalanche\", _title, _content, _date);\n        crossChainContract.sendMessage(_toChain, method.contractAddress, method.methodName, data);\n    }\n}",
  "sourcePath": "/home/george/hthuang/dante-cross-chain/avalanche/contracts/examples/Greetings.sol",
  "compiler": {
    "name": "solc",
    "version": "0.8.10+commit.fc410830.Emscripten.clang"
  },
  "schemaVersion": "3.4.4",
  "updatedAt": "2022-01-11T02:15:47.105Z",
  "networkType": "ethereum",
  "devdoc": {
    "kind": "dev",
    "methods": {
      "owner()": {
        "details": "Returns the address of the current owner."
      },
      "renounceOwnership()": {
        "details": "Leaves the contract without owner. It will not be possible to call `onlyOwner` functions anymore. Can only be called by the current owner. NOTE: Renouncing ownership will leave the contract without an owner, thereby removing any functionality that is only available to the owner."
      },
      "transferOwnership(address)": {
        "details": "Transfers ownership of the contract to a new account (`newOwner`). Can only be called by the current owner."
      }
    },
    "version": 1
  },
  "userdoc": {
    "kind": "user",
    "methods": {},
    "version": 1
  }
}