{
  "contractName": "KingHonorNFT",
  "abi": [
    {
      "inputs": [
        {
          "internalType": "string",
          "name": "_name",
          "type": "string"
        },
        {
          "internalType": "string",
          "name": "_symbol",
          "type": "string"
        },
        {
          "internalType": "address",
          "name": "_proxyRegistryAddress",
          "type": "address"
        }
      ],
      "stateMutability": "nonpayable",
      "type": "constructor"
    },
    {
      "anonymous": false,
      "inputs": [
        {
          "indexed": true,
          "internalType": "address",
          "name": "owner",
          "type": "address"
        },
        {
          "indexed": true,
          "internalType": "address",
          "name": "approved",
          "type": "address"
        },
        {
          "indexed": true,
          "internalType": "uint256",
          "name": "tokenId",
          "type": "uint256"
        }
      ],
      "name": "Approval",
      "type": "event"
    },
    {
      "anonymous": false,
      "inputs": [
        {
          "indexed": true,
          "internalType": "address",
          "name": "owner",
          "type": "address"
        },
        {
          "indexed": true,
          "internalType": "address",
          "name": "operator",
          "type": "address"
        },
        {
          "indexed": false,
          "internalType": "bool",
          "name": "approved",
          "type": "bool"
        }
      ],
      "name": "ApprovalForAll",
      "type": "event"
    },
    {
      "anonymous": false,
      "inputs": [
        {
          "indexed": false,
          "internalType": "address",
          "name": "userAddress",
          "type": "address"
        },
        {
          "indexed": false,
          "internalType": "address payable",
          "name": "relayerAddress",
          "type": "address"
        },
        {
          "indexed": false,
          "internalType": "bytes",
          "name": "functionSignature",
          "type": "bytes"
        }
      ],
      "name": "MetaTransactionExecuted",
      "type": "event"
    },
    {
      "anonymous": false,
      "inputs": [
        {
          "indexed": true,
          "internalType": "address",
          "name": "previousOwner",
          "type": "address"
        },
        {
          "indexed": true,
          "internalType": "address",
          "name": "newOwner",
          "type": "address"
        }
      ],
      "name": "OwnershipTransferred",
      "type": "event"
    },
    {
      "anonymous": false,
      "inputs": [
        {
          "indexed": true,
          "internalType": "address",
          "name": "from",
          "type": "address"
        },
        {
          "indexed": true,
          "internalType": "address",
          "name": "to",
          "type": "address"
        },
        {
          "indexed": true,
          "internalType": "uint256",
          "name": "tokenId",
          "type": "uint256"
        }
      ],
      "name": "Transfer",
      "type": "event"
    },
    {
      "inputs": [],
      "name": "ERC712_VERSION",
      "outputs": [
        {
          "internalType": "string",
          "name": "",
          "type": "string"
        }
      ],
      "stateMutability": "view",
      "type": "function",
      "constant": true
    },
    {
      "inputs": [
        {
          "internalType": "address",
          "name": "to",
          "type": "address"
        },
        {
          "internalType": "uint256",
          "name": "tokenId",
          "type": "uint256"
        }
      ],
      "name": "approve",
      "outputs": [],
      "stateMutability": "nonpayable",
      "type": "function"
    },
    {
      "inputs": [
        {
          "internalType": "address",
          "name": "owner",
          "type": "address"
        }
      ],
      "name": "balanceOf",
      "outputs": [
        {
          "internalType": "uint256",
          "name": "",
          "type": "uint256"
        }
      ],
      "stateMutability": "view",
      "type": "function",
      "constant": true
    },
    {
      "inputs": [],
      "name": "crossChainContract",
      "outputs": [
        {
          "internalType": "contract ICrossChain",
          "name": "",
          "type": "address"
        }
      ],
      "stateMutability": "view",
      "type": "function",
      "constant": true
    },
    {
      "inputs": [
        {
          "internalType": "address",
          "name": "userAddress",
          "type": "address"
        },
        {
          "internalType": "bytes",
          "name": "functionSignature",
          "type": "bytes"
        },
        {
          "internalType": "bytes32",
          "name": "sigR",
          "type": "bytes32"
        },
        {
          "internalType": "bytes32",
          "name": "sigS",
          "type": "bytes32"
        },
        {
          "internalType": "uint8",
          "name": "sigV",
          "type": "uint8"
        }
      ],
      "name": "executeMetaTransaction",
      "outputs": [
        {
          "internalType": "bytes",
          "name": "",
          "type": "bytes"
        }
      ],
      "stateMutability": "payable",
      "type": "function",
      "payable": true
    },
    {
      "inputs": [
        {
          "internalType": "uint256",
          "name": "tokenId",
          "type": "uint256"
        }
      ],
      "name": "getApproved",
      "outputs": [
        {
          "internalType": "address",
          "name": "",
          "type": "address"
        }
      ],
      "stateMutability": "view",
      "type": "function",
      "constant": true
    },
    {
      "inputs": [],
      "name": "getChainId",
      "outputs": [
        {
          "internalType": "uint256",
          "name": "",
          "type": "uint256"
        }
      ],
      "stateMutability": "view",
      "type": "function",
      "constant": true
    },
    {
      "inputs": [],
      "name": "getDomainSeperator",
      "outputs": [
        {
          "internalType": "bytes32",
          "name": "",
          "type": "bytes32"
        }
      ],
      "stateMutability": "view",
      "type": "function",
      "constant": true
    },
    {
      "inputs": [
        {
          "internalType": "address",
          "name": "user",
          "type": "address"
        }
      ],
      "name": "getNonce",
      "outputs": [
        {
          "internalType": "uint256",
          "name": "nonce",
          "type": "uint256"
        }
      ],
      "stateMutability": "view",
      "type": "function",
      "constant": true
    },
    {
      "inputs": [
        {
          "internalType": "address",
          "name": "owner",
          "type": "address"
        },
        {
          "internalType": "address",
          "name": "operator",
          "type": "address"
        }
      ],
      "name": "isApprovedForAll",
      "outputs": [
        {
          "internalType": "bool",
          "name": "",
          "type": "bool"
        }
      ],
      "stateMutability": "view",
      "type": "function",
      "constant": true
    },
    {
      "inputs": [
        {
          "internalType": "string",
          "name": "",
          "type": "string"
        },
        {
          "internalType": "string",
          "name": "",
          "type": "string"
        }
      ],
      "name": "methodMap",
      "outputs": [
        {
          "internalType": "string",
          "name": "contractAddress",
          "type": "string"
        },
        {
          "internalType": "string",
          "name": "methodName",
          "type": "string"
        },
        {
          "internalType": "bool",
          "name": "used",
          "type": "bool"
        }
      ],
      "stateMutability": "view",
      "type": "function",
      "constant": true
    },
    {
      "inputs": [],
      "name": "name",
      "outputs": [
        {
          "internalType": "string",
          "name": "",
          "type": "string"
        }
      ],
      "stateMutability": "view",
      "type": "function",
      "constant": true
    },
    {
      "inputs": [],
      "name": "owner",
      "outputs": [
        {
          "internalType": "address",
          "name": "",
          "type": "address"
        }
      ],
      "stateMutability": "view",
      "type": "function",
      "constant": true
    },
    {
      "inputs": [
        {
          "internalType": "uint256",
          "name": "tokenId",
          "type": "uint256"
        }
      ],
      "name": "ownerOf",
      "outputs": [
        {
          "internalType": "address",
          "name": "",
          "type": "address"
        }
      ],
      "stateMutability": "view",
      "type": "function",
      "constant": true
    },
    {
      "inputs": [
        {
          "internalType": "string",
          "name": "_toChain",
          "type": "string"
        },
        {
          "internalType": "string",
          "name": "_contractAddress",
          "type": "string"
        },
        {
          "internalType": "string",
          "name": "_methodName",
          "type": "string"
        }
      ],
      "name": "registerDestinationMethod",
      "outputs": [],
      "stateMutability": "nonpayable",
      "type": "function"
    },
    {
      "inputs": [
        {
          "internalType": "string",
          "name": "_funcName",
          "type": "string"
        },
        {
          "internalType": "string",
          "name": "_interface",
          "type": "string"
        }
      ],
      "name": "registerInterface",
      "outputs": [],
      "stateMutability": "nonpayable",
      "type": "function"
    },
    {
      "inputs": [
        {
          "internalType": "string",
          "name": "_chainName",
          "type": "string"
        },
        {
          "internalType": "string",
          "name": "_sender",
          "type": "string"
        },
        {
          "internalType": "string",
          "name": "_methodName",
          "type": "string"
        }
      ],
      "name": "registerSourceSender",
      "outputs": [],
      "stateMutability": "nonpayable",
      "type": "function"
    },
    {
      "inputs": [
        {
          "internalType": "string",
          "name": "_funcName",
          "type": "string"
        },
        {
          "internalType": "string",
          "name": "_abiString",
          "type": "string"
        },
        {
          "internalType": "string",
          "name": "_paramName",
          "type": "string"
        },
        {
          "internalType": "string",
          "name": "_paramType",
          "type": "string"
        }
      ],
      "name": "registerTarget",
      "outputs": [],
      "stateMutability": "nonpayable",
      "type": "function"
    },
    {
      "inputs": [],
      "name": "renounceOwnership",
      "outputs": [],
      "stateMutability": "nonpayable",
      "type": "function"
    },
    {
      "inputs": [
        {
          "internalType": "string",
          "name": "",
          "type": "string"
        },
        {
          "internalType": "string",
          "name": "",
          "type": "string"
        }
      ],
      "name": "senderMap",
      "outputs": [
        {
          "internalType": "string",
          "name": "",
          "type": "string"
        }
      ],
      "stateMutability": "view",
      "type": "function",
      "constant": true
    },
    {
      "inputs": [
        {
          "internalType": "address",
          "name": "operator",
          "type": "address"
        },
        {
          "internalType": "bool",
          "name": "approved",
          "type": "bool"
        }
      ],
      "name": "setApprovalForAll",
      "outputs": [],
      "stateMutability": "nonpayable",
      "type": "function"
    },
    {
      "inputs": [
        {
          "internalType": "address",
          "name": "_address",
          "type": "address"
        }
      ],
      "name": "setCrossChainContract",
      "outputs": [],
      "stateMutability": "nonpayable",
      "type": "function"
    },
    {
      "inputs": [
        {
          "internalType": "bytes4",
          "name": "interfaceId",
          "type": "bytes4"
        }
      ],
      "name": "supportsInterface",
      "outputs": [
        {
          "internalType": "bool",
          "name": "",
          "type": "bool"
        }
      ],
      "stateMutability": "view",
      "type": "function",
      "constant": true
    },
    {
      "inputs": [],
      "name": "symbol",
      "outputs": [
        {
          "internalType": "string",
          "name": "",
          "type": "string"
        }
      ],
      "stateMutability": "view",
      "type": "function",
      "constant": true
    },
    {
      "inputs": [
        {
          "internalType": "uint256",
          "name": "_tokenId",
          "type": "uint256"
        }
      ],
      "name": "tokenURI",
      "outputs": [
        {
          "internalType": "string",
          "name": "",
          "type": "string"
        }
      ],
      "stateMutability": "pure",
      "type": "function",
      "constant": true
    },
    {
      "inputs": [],
      "name": "totalSupply",
      "outputs": [
        {
          "internalType": "uint256",
          "name": "",
          "type": "uint256"
        }
      ],
      "stateMutability": "view",
      "type": "function",
      "constant": true
    },
    {
      "inputs": [
        {
          "internalType": "address",
          "name": "newOwner",
          "type": "address"
        }
      ],
      "name": "transferOwnership",
      "outputs": [],
      "stateMutability": "nonpayable",
      "type": "function"
    },
    {
      "inputs": [
        {
          "internalType": "string",
          "name": "_chainName",
          "type": "string"
        },
        {
          "internalType": "string",
          "name": "_methodName",
          "type": "string"
        },
        {
          "internalType": "string",
          "name": "_sender",
          "type": "string"
        }
      ],
      "name": "verify",
      "outputs": [
        {
          "internalType": "bool",
          "name": "",
          "type": "bool"
        }
      ],
      "stateMutability": "view",
      "type": "function",
      "constant": true
    },
    {
      "inputs": [],
      "name": "baseTokenURI",
      "outputs": [
        {
          "internalType": "string",
          "name": "",
          "type": "string"
        }
      ],
      "stateMutability": "pure",
      "type": "function",
      "constant": true
    },
    {
      "inputs": [],
      "name": "contractURI",
      "outputs": [
        {
          "internalType": "string",
          "name": "",
          "type": "string"
        }
      ],
      "stateMutability": "pure",
      "type": "function",
      "constant": true
    },
    {
      "inputs": [
        {
          "internalType": "address",
          "name": "_to",
          "type": "address"
        }
      ],
      "name": "mintTo",
      "outputs": [],
      "stateMutability": "nonpayable",
      "type": "function"
    },
    {
      "inputs": [
        {
          "internalType": "address",
          "name": "from",
          "type": "address"
        },
        {
          "internalType": "address",
          "name": "to",
          "type": "address"
        },
        {
          "internalType": "uint256",
          "name": "tokenId",
          "type": "uint256"
        }
      ],
      "name": "transferFrom",
      "outputs": [],
      "stateMutability": "nonpayable",
      "type": "function"
    },
    {
      "inputs": [
        {
          "internalType": "address",
          "name": "from",
          "type": "address"
        },
        {
          "internalType": "address",
          "name": "to",
          "type": "address"
        },
        {
          "internalType": "uint256",
          "name": "tokenId",
          "type": "uint256"
        }
      ],
      "name": "safeTransferFrom",
      "outputs": [],
      "stateMutability": "nonpayable",
      "type": "function"
    },
    {
      "inputs": [
        {
          "internalType": "address",
          "name": "from",
          "type": "address"
        },
        {
          "internalType": "address",
          "name": "to",
          "type": "address"
        },
        {
          "internalType": "uint256",
          "name": "tokenId",
          "type": "uint256"
        },
        {
          "internalType": "bytes",
          "name": "_data",
          "type": "bytes"
        }
      ],
      "name": "safeTransferFrom",
      "outputs": [],
      "stateMutability": "nonpayable",
      "type": "function"
    }
  ],
  "bytecode": "0x60806040526000600660006101000a81548160ff0219169083151502179055503480156200002c57600080fd5b5060405162005cf038038062005cf08339818101604052810190620000529190620006bb565b828382828281600090805190602001906200006f92919062000409565b5080600190805190602001906200008892919062000409565b505050620000ab6200009f6200012060201b60201c565b6200013c60201b60201c565b80600b60006101000a81548173ffffffffffffffffffffffffffffffffffffffff021916908373ffffffffffffffffffffffffffffffffffffffff16021790555062000103600a6200020260201b62001f511760201c565b62000114836200021860201b60201c565b505050505050620008c6565b6000620001376200029a60201b62001f671760201c565b905090565b6000600960009054906101000a900473ffffffffffffffffffffffffffffffffffffffff16905081600960006101000a81548173ffffffffffffffffffffffffffffffffffffffff021916908373ffffffffffffffffffffffffffffffffffffffff1602179055508173ffffffffffffffffffffffffffffffffffffffff168173ffffffffffffffffffffffffffffffffffffffff167f8be0079c531659141344cd1fd0a4f28419497f9722a3daafe3b4186f6b6457e060405160405180910390a35050565b6001816000016000828254019250508190555050565b600660009054906101000a900460ff16156200026b576040517f08c379a00000000000000000000000000000000000000000000000000000000081526004016200026290620007b6565b60405180910390fd5b6200027c816200034d60201b60201c565b6001600660006101000a81548160ff02191690831515021790555050565b60003073ffffffffffffffffffffffffffffffffffffffff163373ffffffffffffffffffffffffffffffffffffffff1614156200034657600080368080601f016020809104026020016040519081016040528093929190818152602001838380828437600081840152601f19601f820116905080830192505050505050509050600080369050905073ffffffffffffffffffffffffffffffffffffffff8183015116925050506200034a565b3390505b90565b6040518060800160405280604f815260200162005ca1604f91398051906020012081805190602001206040518060400160405280600181526020017f31000000000000000000000000000000000000000000000000000000000000008152508051906020012030620003c4620003fc60201b60201c565b60001b604051602001620003dd95949392919062000804565b6040516020818303038152906040528051906020012060078190555050565b6000804690508091505090565b828054620004179062000890565b90600052602060002090601f0160209004810192826200043b576000855562000487565b82601f106200045657805160ff191683800117855562000487565b8280016001018555821562000487579182015b828111156200048657825182559160200191906001019062000469565b5b5090506200049691906200049a565b5090565b5b80821115620004b55760008160009055506001016200049b565b5090565b6000604051905090565b600080fd5b600080fd5b600080fd5b600080fd5b6000601f19601f8301169050919050565b7f4e487b7100000000000000000000000000000000000000000000000000000000600052604160045260246000fd5b6200052282620004d7565b810181811067ffffffffffffffff82111715620005445762000543620004e8565b5b80604052505050565b600062000559620004b9565b905062000567828262000517565b919050565b600067ffffffffffffffff8211156200058a5762000589620004e8565b5b6200059582620004d7565b9050602081019050919050565b60005b83811015620005c2578082015181840152602081019050620005a5565b83811115620005d2576000848401525b50505050565b6000620005ef620005e9846200056c565b6200054d565b9050828152602081018484840111156200060e576200060d620004d2565b5b6200061b848285620005a2565b509392505050565b600082601f8301126200063b576200063a620004cd565b5b81516200064d848260208601620005d8565b91505092915050565b600073ffffffffffffffffffffffffffffffffffffffff82169050919050565b6000620006838262000656565b9050919050565b620006958162000676565b8114620006a157600080fd5b50565b600081519050620006b5816200068a565b92915050565b600080600060608486031215620006d757620006d6620004c3565b5b600084015167ffffffffffffffff811115620006f857620006f7620004c8565b5b620007068682870162000623565b935050602084015167ffffffffffffffff8111156200072a5762000729620004c8565b5b620007388682870162000623565b92505060406200074b86828701620006a4565b9150509250925092565b600082825260208201905092915050565b7f616c726561647920696e69746564000000000000000000000000000000000000600082015250565b60006200079e600e8362000755565b9150620007ab8262000766565b602082019050919050565b60006020820190508181036000830152620007d1816200078f565b9050919050565b6000819050919050565b620007ed81620007d8565b82525050565b620007fe8162000676565b82525050565b600060a0820190506200081b6000830188620007e2565b6200082a6020830187620007e2565b620008396040830186620007e2565b620008486060830185620007f3565b620008576080830184620007e2565b9695505050505050565b7f4e487b7100000000000000000000000000000000000000000000000000000000600052602260045260246000fd5b60006002820490506001821680620008a957607f821691505b60208210811415620008c057620008bf62000861565b5b50919050565b6153cb80620008d66000396000f3fe6080604052600436106101f95760003560e01c80635f76e9e31161010d578063b88d4fde116100a0578063dbc90de11161006f578063dbc90de11461074a578063e8a3d48514610775578063e985e9c5146107a0578063f2fde38b146107dd578063ff96254b14610806576101f9565b8063b88d4fde14610690578063c87b56dd146106b9578063cf3e4ed7146106f6578063d547cfb71461071f576101f9565b8063755edd17116100dc578063755edd17146105e85780638da5cb5b1461061157806395d89b411461063c578063a22cb46514610667576101f9565b80635f76e9e31461051a5780636352211e1461055757806370a0823114610594578063715018a6146105d1576101f9565b806318d72b54116101905780632d0335ab1161015f5780632d0335ab146104375780633408e4701461047457806342842e0e1461049f5780634380aa3a146104c857806345406584146104f1576101f9565b806318d72b541461037b57806320379ee5146103a457806320fe4e69146103cf57806323b872dd1461040e576101f9565b80630b88c97d116101cc5780630b88c97d146102cc5780630c53c51c146102f55780630f7e59701461032557806318160ddd14610350576101f9565b806301ffc9a7146101fe57806306fdde031461023b578063081812fc14610266578063095ea7b3146102a3575b600080fd5b34801561020a57600080fd5b50610225600480360381019061022091906132d0565b610843565b6040516102329190613318565b60405180910390f35b34801561024757600080fd5b50610250610925565b60405161025d91906133cc565b60405180910390f35b34801561027257600080fd5b5061028d60048036038101906102889190613424565b6109b7565b60405161029a9190613492565b60405180910390f35b3480156102af57600080fd5b506102ca60048036038101906102c591906134d9565b610a3c565b005b3480156102d857600080fd5b506102f360048036038101906102ee919061357e565b610b54565b005b61030f600480360381019061030a91906137d1565b610c2c565b60405161031c91906138bd565b60405180910390f35b34801561033157600080fd5b5061033a610e9e565b60405161034791906133cc565b60405180910390f35b34801561035c57600080fd5b50610365610ed7565b60405161037291906138ee565b60405180910390f35b34801561038757600080fd5b506103a2600480360381019061039d9190613909565b610ef4565b005b3480156103b057600080fd5b506103b9610fb4565b6040516103c69190613945565b60405180910390f35b3480156103db57600080fd5b506103f660048036038101906103f19190613a01565b610fbe565b60405161040593929190613a79565b60405180910390f35b34801561041a57600080fd5b5061043560048036038101906104309190613abe565b61113e565b005b34801561044357600080fd5b5061045e60048036038101906104599190613909565b6111ec565b60405161046b91906138ee565b60405180910390f35b34801561048057600080fd5b50610489611235565b60405161049691906138ee565b60405180910390f35b3480156104ab57600080fd5b506104c660048036038101906104c19190613abe565b611242565b005b3480156104d457600080fd5b506104ef60048036038101906104ea9190613b11565b611300565b005b3480156104fd57600080fd5b5061051860048036038101906105139190613b92565b611415565b005b34801561052657600080fd5b50610541600480360381019061053c9190613a01565b611536565b60405161054e91906133cc565b60405180910390f35b34801561056357600080fd5b5061057e60048036038101906105799190613424565b61160f565b60405161058b9190613492565b60405180910390f35b3480156105a057600080fd5b506105bb60048036038101906105b69190613909565b6116c1565b6040516105c891906138ee565b60405180910390f35b3480156105dd57600080fd5b506105e6611779565b005b3480156105f457600080fd5b5061060f600480360381019061060a9190613909565b611801565b005b34801561061d57600080fd5b50610626611923565b6040516106339190613492565b60405180910390f35b34801561064857600080fd5b5061065161194d565b60405161065e91906133cc565b60405180910390f35b34801561067357600080fd5b5061068e60048036038101906106899190613ca7565b6119df565b005b34801561069c57600080fd5b506106b760048036038101906106b29190613d3d565b6119f5565b005b3480156106c557600080fd5b506106e060048036038101906106db9190613424565b611aee565b6040516106ed91906133cc565b60405180910390f35b34801561070257600080fd5b5061071d6004803603810190610718919061357e565b611b28565b005b34801561072b57600080fd5b50610734611c3a565b60405161074191906133cc565b60405180910390f35b34801561075657600080fd5b5061075f611c5a565b60405161076c9190613e24565b60405180910390f35b34801561078157600080fd5b5061078a611c80565b60405161079791906133cc565b60405180910390f35b3480156107ac57600080fd5b506107c760048036038101906107c29190613e3f565b611ca0565b6040516107d49190613318565b60405180910390f35b3480156107e957600080fd5b5061080460048036038101906107ff9190613909565b611d93565b005b34801561081257600080fd5b5061082d6004803603810190610828919061357e565b611e8b565b60405161083a9190613318565b60405180910390f35b60007f80ac58cd000000000000000000000000000000000000000000000000000000007bffffffffffffffffffffffffffffffffffffffffffffffffffffffff1916827bffffffffffffffffffffffffffffffffffffffffffffffffffffffff1916148061090e57507f5b5e139f000000000000000000000000000000000000000000000000000000007bffffffffffffffffffffffffffffffffffffffffffffffffffffffff1916827bffffffffffffffffffffffffffffffffffffffffffffffffffffffff1916145b8061091e575061091d82612018565b5b9050919050565b60606000805461093490613eae565b80601f016020809104026020016040519081016040528092919081815260200182805461096090613eae565b80156109ad5780601f10610982576101008083540402835291602001916109ad565b820191906000526020600020905b81548152906001019060200180831161099057829003601f168201915b5050505050905090565b60006109c282612082565b610a01576040517f08c379a00000000000000000000000000000000000000000000000000000000081526004016109f890613f52565b60405180910390fd5b6004600083815260200190815260200160002060009054906101000a900473ffffffffffffffffffffffffffffffffffffffff169050919050565b6000610a478261160f565b90508073ffffffffffffffffffffffffffffffffffffffff168373ffffffffffffffffffffffffffffffffffffffff161415610ab8576040517f08c379a0000000000000000000000000000000000000000000000000000000008152600401610aaf90613fe4565b60405180910390fd5b8073ffffffffffffffffffffffffffffffffffffffff16610ad76120ee565b73ffffffffffffffffffffffffffffffffffffffff161480610b065750610b0581610b006120ee565b611ca0565b5b610b45576040517f08c379a0000000000000000000000000000000000000000000000000000000008152600401610b3c90614076565b60405180910390fd5b610b4f83836120fd565b505050565b610b5c6120ee565b73ffffffffffffffffffffffffffffffffffffffff16610b7a611923565b73ffffffffffffffffffffffffffffffffffffffff1614610bd0576040517f08c379a0000000000000000000000000000000000000000000000000000000008152600401610bc7906140e2565b60405180910390fd5b6000600e8787604051610be4929190614132565b908152602001604051809103902090508484828585604051610c07929190614132565b90815260200160405180910390209190610c229291906131c1565b5050505050505050565b606060006040518060600160405280600860008a73ffffffffffffffffffffffffffffffffffffffff1673ffffffffffffffffffffffffffffffffffffffff1681526020019081526020016000205481526020018873ffffffffffffffffffffffffffffffffffffffff168152602001878152509050610caf87828787876121b6565b610cee576040517f08c379a0000000000000000000000000000000000000000000000000000000008152600401610ce5906141bd565b60405180910390fd5b610d416001600860008a73ffffffffffffffffffffffffffffffffffffffff1673ffffffffffffffffffffffffffffffffffffffff168152602001908152602001600020546122bf90919063ffffffff16565b600860008973ffffffffffffffffffffffffffffffffffffffff1673ffffffffffffffffffffffffffffffffffffffff168152602001908152602001600020819055507f5845892132946850460bff5a0083f71031bc5bf9aadcd40f1de79423eac9b10b873388604051610db7939291906141fe565b60405180910390a16000803073ffffffffffffffffffffffffffffffffffffffff16888a604051602001610dec9291906142c0565b604051602081830303815290604052604051610e0891906142e8565b6000604051808303816000865af19150503d8060008114610e45576040519150601f19603f3d011682016040523d82523d6000602084013e610e4a565b606091505b509150915081610e8f576040517f08c379a0000000000000000000000000000000000000000000000000000000008152600401610e869061434b565b60405180910390fd5b80935050505095945050505050565b6040518060400160405280600181526020017f310000000000000000000000000000000000000000000000000000000000000081525081565b60006001610ee5600a6122d5565b610eef919061439a565b905090565b610efc6120ee565b73ffffffffffffffffffffffffffffffffffffffff16610f1a611923565b73ffffffffffffffffffffffffffffffffffffffff1614610f70576040517f08c379a0000000000000000000000000000000000000000000000000000000008152600401610f67906140e2565b60405180910390fd5b80600c60006101000a81548173ffffffffffffffffffffffffffffffffffffffff021916908373ffffffffffffffffffffffffffffffffffffffff16021790555050565b6000600754905090565b600d82805160208101820180518482526020830160208501208183528095505050505050818051602081018201805184825260208301602085012081835280955050505050506000915091505080600001805461101a90613eae565b80601f016020809104026020016040519081016040528092919081815260200182805461104690613eae565b80156110935780601f1061106857610100808354040283529160200191611093565b820191906000526020600020905b81548152906001019060200180831161107657829003601f168201915b5050505050908060010180546110a890613eae565b80601f01602080910402602001604051908101604052809291908181526020018280546110d490613eae565b80156111215780601f106110f657610100808354040283529160200191611121565b820191906000526020600020905b81548152906001019060200180831161110457829003601f168201915b5050505050908060020160009054906101000a900460ff16905083565b6111498383836122e3565b6000838383604051602001611160939291906143ce565b60405160208183030381529060405290506111e66040518060400160405280600881526020017f455448455245554d0000000000000000000000000000000000000000000000008152506040518060400160405280601681526020017f63726f7373436861696e5472616e7366657246726f6d0000000000000000000081525083612343565b50505050565b6000600860008373ffffffffffffffffffffffffffffffffffffffff1673ffffffffffffffffffffffffffffffffffffffff168152602001908152602001600020549050919050565b6000804690508091505090565b61125d83838360405180602001604052806000815250612477565b60008383836040516020016112749392919061442b565b60405160208183030381529060405290506112fa6040518060400160405280600881526020017f455448455245554d0000000000000000000000000000000000000000000000008152506040518060400160405280601a81526020017f63726f7373436861696e536166655472616e7366657246726f6d00000000000081525083612343565b50505050565b6113086120ee565b73ffffffffffffffffffffffffffffffffffffffff16611326611923565b73ffffffffffffffffffffffffffffffffffffffff161461137c576040517f08c379a0000000000000000000000000000000000000000000000000000000008152600401611373906140e2565b60405180910390fd5b600c60009054906101000a900473ffffffffffffffffffffffffffffffffffffffff1673ffffffffffffffffffffffffffffffffffffffff16634380aa3a858585856040518563ffffffff1660e01b81526004016113dd94939291906144a2565b600060405180830381600087803b1580156113f757600080fd5b505af115801561140b573d6000803e3d6000fd5b5050505050505050565b61141d6120ee565b73ffffffffffffffffffffffffffffffffffffffff1661143b611923565b73ffffffffffffffffffffffffffffffffffffffff1614611491576040517f08c379a0000000000000000000000000000000000000000000000000000000008152600401611488906140e2565b60405180910390fd5b600c60009054906101000a900473ffffffffffffffffffffffffffffffffffffffff1673ffffffffffffffffffffffffffffffffffffffff16634540658489898989898989896040518963ffffffff1660e01b81526004016114fa9897969594939291906144dd565b600060405180830381600087803b15801561151457600080fd5b505af1158015611528573d6000803e3d6000fd5b505050505050505050505050565b600e828051602081018201805184825260208301602085012081835280955050505050508180516020810182018051848252602083016020850120818352809550505050505060009150915050805461158e90613eae565b80601f01602080910402602001604051908101604052809291908181526020018280546115ba90613eae565b80156116075780601f106115dc57610100808354040283529160200191611607565b820191906000526020600020905b8154815290600101906020018083116115ea57829003601f168201915b505050505081565b6000806002600084815260200190815260200160002060009054906101000a900473ffffffffffffffffffffffffffffffffffffffff169050600073ffffffffffffffffffffffffffffffffffffffff168173ffffffffffffffffffffffffffffffffffffffff1614156116b8576040517f08c379a00000000000000000000000000000000000000000000000000000000081526004016116af906145b8565b60405180910390fd5b80915050919050565b60008073ffffffffffffffffffffffffffffffffffffffff168273ffffffffffffffffffffffffffffffffffffffff161415611732576040517f08c379a00000000000000000000000000000000000000000000000000000000081526004016117299061464a565b60405180910390fd5b600360008373ffffffffffffffffffffffffffffffffffffffff1673ffffffffffffffffffffffffffffffffffffffff168152602001908152602001600020549050919050565b6117816120ee565b73ffffffffffffffffffffffffffffffffffffffff1661179f611923565b73ffffffffffffffffffffffffffffffffffffffff16146117f5576040517f08c379a00000000000000000000000000000000000000000000000000000000081526004016117ec906140e2565b60405180910390fd5b6117ff60006124d9565b565b6118096120ee565b73ffffffffffffffffffffffffffffffffffffffff16611827611923565b73ffffffffffffffffffffffffffffffffffffffff161461187d576040517f08c379a0000000000000000000000000000000000000000000000000000000008152600401611874906140e2565b60405180910390fd5b6118868161259f565b6000816040516020016118999190613492565b604051602081830303815290604052905061191f6040518060400160405280600881526020017f455448455245554d0000000000000000000000000000000000000000000000008152506040518060400160405280600681526020017f6d696e74546f000000000000000000000000000000000000000000000000000081525083612343565b5050565b6000600960009054906101000a900473ffffffffffffffffffffffffffffffffffffffff16905090565b60606001805461195c90613eae565b80601f016020809104026020016040519081016040528092919081815260200182805461198890613eae565b80156119d55780601f106119aa576101008083540402835291602001916119d5565b820191906000526020600020905b8154815290600101906020018083116119b857829003601f168201915b5050505050905090565b6119f16119ea6120ee565b8383612641565b5050565b611a4585858585858080601f016020809104026020016040519081016040528093929190818152602001838380828437600081840152601f19601f82011690508083019250505050505050612477565b60008585858585604051602001611a60959493929190614697565b6040516020818303038152906040529050611ae66040518060400160405280600881526020017f455448455245554d0000000000000000000000000000000000000000000000008152506040518060400160405280601a81526020017f63726f7373436861696e536166655472616e7366657246726f6d00000000000081525083612343565b505050505050565b6060611af8611c3a565b611b01836127ae565b604051602001611b12929190614716565b6040516020818303038152906040529050919050565b611b306120ee565b73ffffffffffffffffffffffffffffffffffffffff16611b4e611923565b73ffffffffffffffffffffffffffffffffffffffff1614611ba4576040517f08c379a0000000000000000000000000000000000000000000000000000000008152600401611b9b906140e2565b60405180910390fd5b6000600d8787604051611bb8929190614132565b908152602001604051809103902090506000818484604051611bdb929190614132565b908152602001604051809103902090508585826000019190611bfe9291906131c1565b508383826001019190611c129291906131c1565b5060018160020160006101000a81548160ff0219169083151502179055505050505050505050565b606060405180606001604052806033815260200161536360339139905090565b600c60009054906101000a900473ffffffffffffffffffffffffffffffffffffffff1681565b606060405180606001604052806040815260200161532360409139905090565b600080600b60009054906101000a900473ffffffffffffffffffffffffffffffffffffffff1690508273ffffffffffffffffffffffffffffffffffffffff168173ffffffffffffffffffffffffffffffffffffffff1663c4552791866040518263ffffffff1660e01b8152600401611d189190613492565b602060405180830381865afa158015611d35573d6000803e3d6000fd5b505050506040513d601f19601f82011682018060405250810190611d599190614778565b73ffffffffffffffffffffffffffffffffffffffff161415611d7f576001915050611d8d565b611d89848461290f565b9150505b92915050565b611d9b6120ee565b73ffffffffffffffffffffffffffffffffffffffff16611db9611923565b73ffffffffffffffffffffffffffffffffffffffff1614611e0f576040517f08c379a0000000000000000000000000000000000000000000000000000000008152600401611e06906140e2565b60405180910390fd5b600073ffffffffffffffffffffffffffffffffffffffff168173ffffffffffffffffffffffffffffffffffffffff161415611e7f576040517f08c379a0000000000000000000000000000000000000000000000000000000008152600401611e7690614817565b60405180910390fd5b611e88816124d9565b50565b600080600e8888604051611ea0929190614132565b908152602001604051809103902090506000818787604051611ec3929190614132565b908152602001604051809103902090508484604051611ee392919061485c565b604051809103902081604051611ef99190614909565b604051809103902014611f41576040517f08c379a0000000000000000000000000000000000000000000000000000000008152600401611f389061496c565b60405180910390fd5b6001925050509695505050505050565b6001816000016000828254019250508190555050565b60003073ffffffffffffffffffffffffffffffffffffffff163373ffffffffffffffffffffffffffffffffffffffff16141561201157600080368080601f016020809104026020016040519081016040528093929190818152602001838380828437600081840152601f19601f820116905080830192505050505050509050600080369050905073ffffffffffffffffffffffffffffffffffffffff818301511692505050612015565b3390505b90565b60007f01ffc9a7000000000000000000000000000000000000000000000000000000007bffffffffffffffffffffffffffffffffffffffffffffffffffffffff1916827bffffffffffffffffffffffffffffffffffffffffffffffffffffffff1916149050919050565b60008073ffffffffffffffffffffffffffffffffffffffff166002600084815260200190815260200160002060009054906101000a900473ffffffffffffffffffffffffffffffffffffffff1673ffffffffffffffffffffffffffffffffffffffff1614159050919050565b60006120f8611f67565b905090565b816004600083815260200190815260200160002060006101000a81548173ffffffffffffffffffffffffffffffffffffffff021916908373ffffffffffffffffffffffffffffffffffffffff160217905550808273ffffffffffffffffffffffffffffffffffffffff166121708361160f565b73ffffffffffffffffffffffffffffffffffffffff167f8c5be1e5ebec7d5bd14f71427d1e84f3dd0314c0f7b2291e5b200ac8c7c3b92560405160405180910390a45050565b60008073ffffffffffffffffffffffffffffffffffffffff168673ffffffffffffffffffffffffffffffffffffffff161415612227576040517f08c379a000000000000000000000000000000000000000000000000000000000815260040161221e906149fe565b60405180910390fd5b600161223a612235876129a3565b612a0b565b8386866040516000815260200160405260405161225a9493929190614a2d565b6020604051602081039080840390855afa15801561227c573d6000803e3d6000fd5b5050506020604051035173ffffffffffffffffffffffffffffffffffffffff168673ffffffffffffffffffffffffffffffffffffffff1614905095945050505050565b600081836122cd9190614a72565b905092915050565b600081600001549050919050565b6122f46122ee6120ee565b82612a44565b612333576040517f08c379a000000000000000000000000000000000000000000000000000000000815260040161232a90614b3a565b60405180910390fd5b61233e838383612b22565b505050565b6000600d846040516123559190614b5a565b90815260200160405180910390209050600081846040516123769190614b5a565b908152602001604051809103902090508060020160009054906101000a900460ff166123d7576040517f08c379a00000000000000000000000000000000000000000000000000000000081526004016123ce90614bbd565b60405180910390fd5b600c60009054906101000a900473ffffffffffffffffffffffffffffffffffffffff1673ffffffffffffffffffffffffffffffffffffffff1663729518fc868360000184600101876040518563ffffffff1660e01b815260040161243e9493929190614c72565b600060405180830381600087803b15801561245857600080fd5b505af115801561246c573d6000803e3d6000fd5b505050505050505050565b6124886124826120ee565b83612a44565b6124c7576040517f08c379a00000000000000000000000000000000000000000000000000000000081526004016124be90614b3a565b60405180910390fd5b6124d384848484612d7e565b50505050565b6000600960009054906101000a900473ffffffffffffffffffffffffffffffffffffffff16905081600960006101000a81548173ffffffffffffffffffffffffffffffffffffffff021916908373ffffffffffffffffffffffffffffffffffffffff1602179055508173ffffffffffffffffffffffffffffffffffffffff168173ffffffffffffffffffffffffffffffffffffffff167f8be0079c531659141344cd1fd0a4f28419497f9722a3daafe3b4186f6b6457e060405160405180910390a35050565b6125a76120ee565b73ffffffffffffffffffffffffffffffffffffffff166125c5611923565b73ffffffffffffffffffffffffffffffffffffffff161461261b576040517f08c379a0000000000000000000000000000000000000000000000000000000008152600401612612906140e2565b60405180910390fd5b6000612627600a6122d5565b9050612633600a611f51565b61263d8282612dda565b5050565b8173ffffffffffffffffffffffffffffffffffffffff168373ffffffffffffffffffffffffffffffffffffffff1614156126b0576040517f08c379a00000000000000000000000000000000000000000000000000000000081526004016126a790614d1f565b60405180910390fd5b80600560008573ffffffffffffffffffffffffffffffffffffffff1673ffffffffffffffffffffffffffffffffffffffff16815260200190815260200160002060008473ffffffffffffffffffffffffffffffffffffffff1673ffffffffffffffffffffffffffffffffffffffff16815260200190815260200160002060006101000a81548160ff0219169083151502179055508173ffffffffffffffffffffffffffffffffffffffff168373ffffffffffffffffffffffffffffffffffffffff167f17307eab39ab6107e8899845ad3d59bd9653f200f220920489ca2b5937696c31836040516127a19190613318565b60405180910390a3505050565b606060008214156127f6576040518060400160405280600181526020017f3000000000000000000000000000000000000000000000000000000000000000815250905061290a565b600082905060005b6000821461282857808061281190614d3f565b915050600a826128219190614db7565b91506127fe565b60008167ffffffffffffffff81111561284457612843613637565b5b6040519080825280601f01601f1916602001820160405280156128765781602001600182028036833780820191505090505b5090505b600085146129035760018261288f919061439a565b9150600a8561289e9190614de8565b60306128aa9190614a72565b60f81b8183815181106128c0576128bf614e19565b5b60200101907effffffffffffffffffffffffffffffffffffffffffffffffffffffffffffff1916908160001a905350600a856128fc9190614db7565b945061287a565b8093505050505b919050565b6000600560008473ffffffffffffffffffffffffffffffffffffffff1673ffffffffffffffffffffffffffffffffffffffff16815260200190815260200160002060008373ffffffffffffffffffffffffffffffffffffffff1673ffffffffffffffffffffffffffffffffffffffff16815260200190815260200160002060009054906101000a900460ff16905092915050565b60006040518060800160405280604381526020016152e06043913980519060200120826000015183602001518460400151805190602001206040516020016129ee9493929190614e48565b604051602081830303815290604052805190602001209050919050565b6000612a15610fb4565b82604051602001612a27929190614efa565b604051602081830303815290604052805190602001209050919050565b6000612a4f82612082565b612a8e576040517f08c379a0000000000000000000000000000000000000000000000000000000008152600401612a8590614fa3565b60405180910390fd5b6000612a998361160f565b90508073ffffffffffffffffffffffffffffffffffffffff168473ffffffffffffffffffffffffffffffffffffffff161480612b0857508373ffffffffffffffffffffffffffffffffffffffff16612af0846109b7565b73ffffffffffffffffffffffffffffffffffffffff16145b80612b195750612b188185611ca0565b5b91505092915050565b8273ffffffffffffffffffffffffffffffffffffffff16612b428261160f565b73ffffffffffffffffffffffffffffffffffffffff1614612b98576040517f08c379a0000000000000000000000000000000000000000000000000000000008152600401612b8f90615035565b60405180910390fd5b600073ffffffffffffffffffffffffffffffffffffffff168273ffffffffffffffffffffffffffffffffffffffff161415612c08576040517f08c379a0000000000000000000000000000000000000000000000000000000008152600401612bff906150c7565b60405180910390fd5b612c13838383612df8565b612c1e6000826120fd565b6001600360008573ffffffffffffffffffffffffffffffffffffffff1673ffffffffffffffffffffffffffffffffffffffff1681526020019081526020016000206000828254612c6e919061439a565b925050819055506001600360008473ffffffffffffffffffffffffffffffffffffffff1673ffffffffffffffffffffffffffffffffffffffff1681526020019081526020016000206000828254612cc59190614a72565b92505081905550816002600083815260200190815260200160002060006101000a81548173ffffffffffffffffffffffffffffffffffffffff021916908373ffffffffffffffffffffffffffffffffffffffff160217905550808273ffffffffffffffffffffffffffffffffffffffff168473ffffffffffffffffffffffffffffffffffffffff167fddf252ad1be2c89b69c2b068fc378daa952ba7f163c4a11628f55a4df523b3ef60405160405180910390a4505050565b612d89848484612b22565b612d9584848484612dfd565b612dd4576040517f08c379a0000000000000000000000000000000000000000000000000000000008152600401612dcb90615159565b60405180910390fd5b50505050565b612df4828260405180602001604052806000815250612f85565b5050565b505050565b6000612e1e8473ffffffffffffffffffffffffffffffffffffffff16612fe0565b15612f78578373ffffffffffffffffffffffffffffffffffffffff1663150b7a02612e476120ee565b8786866040518563ffffffff1660e01b8152600401612e699493929190615179565b6020604051808303816000875af1925050508015612ea557506040513d601f19601f82011682018060405250810190612ea291906151da565b60015b612f28573d8060008114612ed5576040519150601f19603f3d011682016040523d82523d6000602084013e612eda565b606091505b50600081511415612f20576040517f08c379a0000000000000000000000000000000000000000000000000000000008152600401612f1790615159565b60405180910390fd5b805181602001fd5b63150b7a0260e01b7bffffffffffffffffffffffffffffffffffffffffffffffffffffffff1916817bffffffffffffffffffffffffffffffffffffffffffffffffffffffff191614915050612f7d565b600190505b949350505050565b612f8f8383612ff3565b612f9c6000848484612dfd565b612fdb576040517f08c379a0000000000000000000000000000000000000000000000000000000008152600401612fd290615159565b60405180910390fd5b505050565b600080823b905060008111915050919050565b600073ffffffffffffffffffffffffffffffffffffffff168273ffffffffffffffffffffffffffffffffffffffff161415613063576040517f08c379a000000000000000000000000000000000000000000000000000000000815260040161305a90615253565b60405180910390fd5b61306c81612082565b156130ac576040517f08c379a00000000000000000000000000000000000000000000000000000000081526004016130a3906152bf565b60405180910390fd5b6130b860008383612df8565b6001600360008473ffffffffffffffffffffffffffffffffffffffff1673ffffffffffffffffffffffffffffffffffffffff16815260200190815260200160002060008282546131089190614a72565b92505081905550816002600083815260200190815260200160002060006101000a81548173ffffffffffffffffffffffffffffffffffffffff021916908373ffffffffffffffffffffffffffffffffffffffff160217905550808273ffffffffffffffffffffffffffffffffffffffff16600073ffffffffffffffffffffffffffffffffffffffff167fddf252ad1be2c89b69c2b068fc378daa952ba7f163c4a11628f55a4df523b3ef60405160405180910390a45050565b8280546131cd90613eae565b90600052602060002090601f0160209004810192826131ef5760008555613236565b82601f1061320857803560ff1916838001178555613236565b82800160010185558215613236579182015b8281111561323557823582559160200191906001019061321a565b5b5090506132439190613247565b5090565b5b80821115613260576000816000905550600101613248565b5090565b6000604051905090565b600080fd5b600080fd5b60007fffffffff0000000000000000000000000000000000000000000000000000000082169050919050565b6132ad81613278565b81146132b857600080fd5b50565b6000813590506132ca816132a4565b92915050565b6000602082840312156132e6576132e561326e565b5b60006132f4848285016132bb565b91505092915050565b60008115159050919050565b613312816132fd565b82525050565b600060208201905061332d6000830184613309565b92915050565b600081519050919050565b600082825260208201905092915050565b60005b8381101561336d578082015181840152602081019050613352565b8381111561337c576000848401525b50505050565b6000601f19601f8301169050919050565b600061339e82613333565b6133a8818561333e565b93506133b881856020860161334f565b6133c181613382565b840191505092915050565b600060208201905081810360008301526133e68184613393565b905092915050565b6000819050919050565b613401816133ee565b811461340c57600080fd5b50565b60008135905061341e816133f8565b92915050565b60006020828403121561343a5761343961326e565b5b60006134488482850161340f565b91505092915050565b600073ffffffffffffffffffffffffffffffffffffffff82169050919050565b600061347c82613451565b9050919050565b61348c81613471565b82525050565b60006020820190506134a76000830184613483565b92915050565b6134b681613471565b81146134c157600080fd5b50565b6000813590506134d3816134ad565b92915050565b600080604083850312156134f0576134ef61326e565b5b60006134fe858286016134c4565b925050602061350f8582860161340f565b9150509250929050565b600080fd5b600080fd5b600080fd5b60008083601f84011261353e5761353d613519565b5b8235905067ffffffffffffffff81111561355b5761355a61351e565b5b60208301915083600182028301111561357757613576613523565b5b9250929050565b6000806000806000806060878903121561359b5761359a61326e565b5b600087013567ffffffffffffffff8111156135b9576135b8613273565b5b6135c589828a01613528565b9650965050602087013567ffffffffffffffff8111156135e8576135e7613273565b5b6135f489828a01613528565b9450945050604087013567ffffffffffffffff81111561361757613616613273565b5b61362389828a01613528565b92509250509295509295509295565b600080fd5b7f4e487b7100000000000000000000000000000000000000000000000000000000600052604160045260246000fd5b61366f82613382565b810181811067ffffffffffffffff8211171561368e5761368d613637565b5b80604052505050565b60006136a1613264565b90506136ad8282613666565b919050565b600067ffffffffffffffff8211156136cd576136cc613637565b5b6136d682613382565b9050602081019050919050565b82818337600083830152505050565b6000613705613700846136b2565b613697565b90508281526020810184848401111561372157613720613632565b5b61372c8482856136e3565b509392505050565b600082601f83011261374957613748613519565b5b81356137598482602086016136f2565b91505092915050565b6000819050919050565b61377581613762565b811461378057600080fd5b50565b6000813590506137928161376c565b92915050565b600060ff82169050919050565b6137ae81613798565b81146137b957600080fd5b50565b6000813590506137cb816137a5565b92915050565b600080600080600060a086880312156137ed576137ec61326e565b5b60006137fb888289016134c4565b955050602086013567ffffffffffffffff81111561381c5761381b613273565b5b61382888828901613734565b945050604061383988828901613783565b935050606061384a88828901613783565b925050608061385b888289016137bc565b9150509295509295909350565b600081519050919050565b600082825260208201905092915050565b600061388f82613868565b6138998185613873565b93506138a981856020860161334f565b6138b281613382565b840191505092915050565b600060208201905081810360008301526138d78184613884565b905092915050565b6138e8816133ee565b82525050565b600060208201905061390360008301846138df565b92915050565b60006020828403121561391f5761391e61326e565b5b600061392d848285016134c4565b91505092915050565b61393f81613762565b82525050565b600060208201905061395a6000830184613936565b92915050565b600067ffffffffffffffff82111561397b5761397a613637565b5b61398482613382565b9050602081019050919050565b60006139a461399f84613960565b613697565b9050828152602081018484840111156139c0576139bf613632565b5b6139cb8482856136e3565b509392505050565b600082601f8301126139e8576139e7613519565b5b81356139f8848260208601613991565b91505092915050565b60008060408385031215613a1857613a1761326e565b5b600083013567ffffffffffffffff811115613a3657613a35613273565b5b613a42858286016139d3565b925050602083013567ffffffffffffffff811115613a6357613a62613273565b5b613a6f858286016139d3565b9150509250929050565b60006060820190508181036000830152613a938186613393565b90508181036020830152613aa78185613393565b9050613ab66040830184613309565b949350505050565b600080600060608486031215613ad757613ad661326e565b5b6000613ae5868287016134c4565b9350506020613af6868287016134c4565b9250506040613b078682870161340f565b9150509250925092565b60008060008060408587031215613b2b57613b2a61326e565b5b600085013567ffffffffffffffff811115613b4957613b48613273565b5b613b5587828801613528565b9450945050602085013567ffffffffffffffff811115613b7857613b77613273565b5b613b8487828801613528565b925092505092959194509250565b6000806000806000806000806080898b031215613bb257613bb161326e565b5b600089013567ffffffffffffffff811115613bd057613bcf613273565b5b613bdc8b828c01613528565b9850985050602089013567ffffffffffffffff811115613bff57613bfe613273565b5b613c0b8b828c01613528565b9650965050604089013567ffffffffffffffff811115613c2e57613c2d613273565b5b613c3a8b828c01613528565b9450945050606089013567ffffffffffffffff811115613c5d57613c5c613273565b5b613c698b828c01613528565b92509250509295985092959890939650565b613c84816132fd565b8114613c8f57600080fd5b50565b600081359050613ca181613c7b565b92915050565b60008060408385031215613cbe57613cbd61326e565b5b6000613ccc858286016134c4565b9250506020613cdd85828601613c92565b9150509250929050565b60008083601f840112613cfd57613cfc613519565b5b8235905067ffffffffffffffff811115613d1a57613d1961351e565b5b602083019150836001820283011115613d3657613d35613523565b5b9250929050565b600080600080600060808688031215613d5957613d5861326e565b5b6000613d67888289016134c4565b9550506020613d78888289016134c4565b9450506040613d898882890161340f565b935050606086013567ffffffffffffffff811115613daa57613da9613273565b5b613db688828901613ce7565b92509250509295509295909350565b6000819050919050565b6000613dea613de5613de084613451565b613dc5565b613451565b9050919050565b6000613dfc82613dcf565b9050919050565b6000613e0e82613df1565b9050919050565b613e1e81613e03565b82525050565b6000602082019050613e396000830184613e15565b92915050565b60008060408385031215613e5657613e5561326e565b5b6000613e64858286016134c4565b9250506020613e75858286016134c4565b9150509250929050565b7f4e487b7100000000000000000000000000000000000000000000000000000000600052602260045260246000fd5b60006002820490506001821680613ec657607f821691505b60208210811415613eda57613ed9613e7f565b5b50919050565b7f4552433732313a20617070726f76656420717565727920666f72206e6f6e657860008201527f697374656e7420746f6b656e0000000000000000000000000000000000000000602082015250565b6000613f3c602c8361333e565b9150613f4782613ee0565b604082019050919050565b60006020820190508181036000830152613f6b81613f2f565b9050919050565b7f4552433732313a20617070726f76616c20746f2063757272656e74206f776e6560008201527f7200000000000000000000000000000000000000000000000000000000000000602082015250565b6000613fce60218361333e565b9150613fd982613f72565b604082019050919050565b60006020820190508181036000830152613ffd81613fc1565b9050919050565b7f4552433732313a20617070726f76652063616c6c6572206973206e6f74206f7760008201527f6e6572206e6f7220617070726f76656420666f7220616c6c0000000000000000602082015250565b600061406060388361333e565b915061406b82614004565b604082019050919050565b6000602082019050818103600083015261408f81614053565b9050919050565b7f4f776e61626c653a2063616c6c6572206973206e6f7420746865206f776e6572600082015250565b60006140cc60208361333e565b91506140d782614096565b602082019050919050565b600060208201905081810360008301526140fb816140bf565b9050919050565b600081905092915050565b60006141198385614102565b93506141268385846136e3565b82840190509392505050565b600061413f82848661410d565b91508190509392505050565b7f5369676e657220616e64207369676e617475726520646f206e6f74206d61746360008201527f6800000000000000000000000000000000000000000000000000000000000000602082015250565b60006141a760218361333e565b91506141b28261414b565b604082019050919050565b600060208201905081810360008301526141d68161419a565b9050919050565b60006141e882613451565b9050919050565b6141f8816141dd565b82525050565b60006060820190506142136000830186613483565b61422060208301856141ef565b81810360408301526142328184613884565b9050949350505050565b600081905092915050565b600061425282613868565b61425c818561423c565b935061426c81856020860161334f565b80840191505092915050565b60008160601b9050919050565b600061429082614278565b9050919050565b60006142a282614285565b9050919050565b6142ba6142b582613471565b614297565b82525050565b60006142cc8285614247565b91506142d882846142a9565b6014820191508190509392505050565b60006142f48284614247565b915081905092915050565b7f46756e6374696f6e2063616c6c206e6f74207375636365737366756c00000000600082015250565b6000614335601c8361333e565b9150614340826142ff565b602082019050919050565b6000602082019050818103600083015261436481614328565b9050919050565b7f4e487b7100000000000000000000000000000000000000000000000000000000600052601160045260246000fd5b60006143a5826133ee565b91506143b0836133ee565b9250828210156143c3576143c261436b565b5b828203905092915050565b60006060820190506143e36000830186613483565b6143f06020830185613483565b6143fd60408301846138df565b949350505050565b50565b600061441560008361333e565b915061442082614405565b600082019050919050565b60006080820190506144406000830186613483565b61444d6020830185613483565b61445a60408301846138df565b818103606083015261446b81614408565b9050949350505050565b6000614481838561333e565b935061448e8385846136e3565b61449783613382565b840190509392505050565b600060408201905081810360008301526144bd818688614475565b905081810360208301526144d2818486614475565b905095945050505050565b600060808201905081810360008301526144f8818a8c614475565b9050818103602083015261450d81888a614475565b90508181036040830152614522818688614475565b90508181036060830152614537818486614475565b90509998505050505050505050565b7f4552433732313a206f776e657220717565727920666f72206e6f6e657869737460008201527f656e7420746f6b656e0000000000000000000000000000000000000000000000602082015250565b60006145a260298361333e565b91506145ad82614546565b604082019050919050565b600060208201905081810360008301526145d181614595565b9050919050565b7f4552433732313a2062616c616e636520717565727920666f7220746865207a6560008201527f726f206164647265737300000000000000000000000000000000000000000000602082015250565b6000614634602a8361333e565b915061463f826145d8565b604082019050919050565b6000602082019050818103600083015261466381614627565b9050919050565b60006146768385613873565b93506146838385846136e3565b61468c83613382565b840190509392505050565b60006080820190506146ac6000830188613483565b6146b96020830187613483565b6146c660408301866138df565b81810360608301526146d981848661466a565b90509695505050505050565b60006146f082613333565b6146fa8185614102565b935061470a81856020860161334f565b80840191505092915050565b600061472282856146e5565b915061472e82846146e5565b91508190509392505050565b600061474582613471565b9050919050565b6147558161473a565b811461476057600080fd5b50565b6000815190506147728161474c565b92915050565b60006020828403121561478e5761478d61326e565b5b600061479c84828501614763565b91505092915050565b7f4f776e61626c653a206e6577206f776e657220697320746865207a65726f206160008201527f6464726573730000000000000000000000000000000000000000000000000000602082015250565b600061480160268361333e565b915061480c826147a5565b604082019050919050565b60006020820190508181036000830152614830816147f4565b9050919050565b6000614843838561423c565b93506148508385846136e3565b82840190509392505050565b6000614869828486614837565b91508190509392505050565b60008190508160005260206000209050919050565b6000815461489781613eae565b6148a1818661423c565b945060018216600081146148bc57600181146148cd57614900565b60ff19831686528186019350614900565b6148d685614875565b60005b838110156148f8578154818901526001820191506020810190506148d9565b838801955050505b50505092915050565b6000614915828461488a565b915081905092915050565b7f53656e64657220646f6573206e6f74206d617463680000000000000000000000600082015250565b600061495660158361333e565b915061496182614920565b602082019050919050565b6000602082019050818103600083015261498581614949565b9050919050565b7f4e61746976654d6574615472616e73616374696f6e3a20494e56414c49445f5360008201527f49474e4552000000000000000000000000000000000000000000000000000000602082015250565b60006149e860258361333e565b91506149f38261498c565b604082019050919050565b60006020820190508181036000830152614a17816149db565b9050919050565b614a2781613798565b82525050565b6000608082019050614a426000830187613936565b614a4f6020830186614a1e565b614a5c6040830185613936565b614a696060830184613936565b95945050505050565b6000614a7d826133ee565b9150614a88836133ee565b9250827fffffffffffffffffffffffffffffffffffffffffffffffffffffffffffffffff03821115614abd57614abc61436b565b5b828201905092915050565b7f4552433732313a207472616e736665722063616c6c6572206973206e6f74206f60008201527f776e6572206e6f7220617070726f766564000000000000000000000000000000602082015250565b6000614b2460318361333e565b9150614b2f82614ac8565b604082019050919050565b60006020820190508181036000830152614b5381614b17565b9050919050565b6000614b6682846146e5565b915081905092915050565b7f6d6574686f64206e6f7420726567697374657265640000000000000000000000600082015250565b6000614ba760158361333e565b9150614bb282614b71565b602082019050919050565b60006020820190508181036000830152614bd681614b9a565b9050919050565b60008190508160005260206000209050919050565b60008154614bff81613eae565b614c09818661333e565b94506001821660008114614c245760018114614c3657614c69565b60ff1983168652602086019350614c69565b614c3f85614bdd565b60005b83811015614c6157815481890152600182019150602081019050614c42565b808801955050505b50505092915050565b60006080820190508181036000830152614c8c8187613393565b90508181036020830152614ca08186614bf2565b90508181036040830152614cb48185614bf2565b90508181036060830152614cc88184613884565b905095945050505050565b7f4552433732313a20617070726f766520746f2063616c6c657200000000000000600082015250565b6000614d0960198361333e565b9150614d1482614cd3565b602082019050919050565b60006020820190508181036000830152614d3881614cfc565b9050919050565b6000614d4a826133ee565b91507fffffffffffffffffffffffffffffffffffffffffffffffffffffffffffffffff821415614d7d57614d7c61436b565b5b600182019050919050565b7f4e487b7100000000000000000000000000000000000000000000000000000000600052601260045260246000fd5b6000614dc2826133ee565b9150614dcd836133ee565b925082614ddd57614ddc614d88565b5b828204905092915050565b6000614df3826133ee565b9150614dfe836133ee565b925082614e0e57614e0d614d88565b5b828206905092915050565b7f4e487b7100000000000000000000000000000000000000000000000000000000600052603260045260246000fd5b6000608082019050614e5d6000830187613936565b614e6a60208301866138df565b614e776040830185613483565b614e846060830184613936565b95945050505050565b7f1901000000000000000000000000000000000000000000000000000000000000600082015250565b6000614ec3600283614102565b9150614ece82614e8d565b600282019050919050565b6000819050919050565b614ef4614eef82613762565b614ed9565b82525050565b6000614f0582614eb6565b9150614f118285614ee3565b602082019150614f218284614ee3565b6020820191508190509392505050565b7f4552433732313a206f70657261746f7220717565727920666f72206e6f6e657860008201527f697374656e7420746f6b656e0000000000000000000000000000000000000000602082015250565b6000614f8d602c8361333e565b9150614f9882614f31565b604082019050919050565b60006020820190508181036000830152614fbc81614f80565b9050919050565b7f4552433732313a207472616e73666572206f6620746f6b656e2074686174206960008201527f73206e6f74206f776e0000000000000000000000000000000000000000000000602082015250565b600061501f60298361333e565b915061502a82614fc3565b604082019050919050565b6000602082019050818103600083015261504e81615012565b9050919050565b7f4552433732313a207472616e7366657220746f20746865207a65726f2061646460008201527f7265737300000000000000000000000000000000000000000000000000000000602082015250565b60006150b160248361333e565b91506150bc82615055565b604082019050919050565b600060208201905081810360008301526150e0816150a4565b9050919050565b7f4552433732313a207472616e7366657220746f206e6f6e20455243373231526560008201527f63656976657220696d706c656d656e7465720000000000000000000000000000602082015250565b600061514360328361333e565b915061514e826150e7565b604082019050919050565b6000602082019050818103600083015261517281615136565b9050919050565b600060808201905061518e6000830187613483565b61519b6020830186613483565b6151a860408301856138df565b81810360608301526151ba8184613884565b905095945050505050565b6000815190506151d4816132a4565b92915050565b6000602082840312156151f0576151ef61326e565b5b60006151fe848285016151c5565b91505092915050565b7f4552433732313a206d696e7420746f20746865207a65726f2061646472657373600082015250565b600061523d60208361333e565b915061524882615207565b602082019050919050565b6000602082019050818103600083015261526c81615230565b9050919050565b7f4552433732313a20746f6b656e20616c7265616479206d696e74656400000000600082015250565b60006152a9601c8361333e565b91506152b482615273565b602082019050919050565b600060208201905081810360008301526152d88161529c565b905091905056fe4d6574615472616e73616374696f6e2875696e74323536206e6f6e63652c616464726573732066726f6d2c62797465732066756e6374696f6e5369676e61747572652968747470733a2f2f6b696e672d686f6e6f722d6e66742e6f73732d636e2d6265696a696e672e616c6979756e63732e636f6d2f636f6e74726163742e6a736f6e68747470733a2f2f6b696e672d686f6e6f722d6e66742e6f73732d636e2d6265696a696e672e616c6979756e63732e636f6d2fa2646970667358221220e163877a971f37ac441111518433a3881600bca1288c1506f13ced991ef9c54864736f6c634300080a0033454950373132446f6d61696e28737472696e67206e616d652c737472696e672076657273696f6e2c6164647265737320766572696679696e67436f6e74726163742c627974657333322073616c7429",
  "immutableReferences": {},
  "source": "// SPDX-License-Identifier: MIT\n\npragma solidity ^0.8.0;\n\nimport \"./ERC721Tradable.sol\";\nimport \"./ConsumerBase.sol\";\n\nstring constant TO_CHAIN = \"ETHEREUM\";\n\n/**\n * @title Creature\n * Creature - a contract for my non-fungible creatures.\n */\ncontract KingHonorNFT is ERC721Tradable, ConsumerBase {\n    constructor(\n        string memory _name,\n        string memory _symbol,\n        address _proxyRegistryAddress)\n        ERC721Tradable(_name, _name, _proxyRegistryAddress)\n    {}\n\n    function baseTokenURI() override public pure returns (string memory) {\n        return \"https://king-honor-nft.oss-cn-beijing.aliyuncs.com/\";\n    }\n\n    function contractURI() public pure returns (string memory) {\n        return \"https://king-honor-nft.oss-cn-beijing.aliyuncs.com/contract.json\";\n    }\n\n    /**\n     * This is used instead of msg.sender as transactions won't be sent by the original token owner, but by OpenSea.\n     */\n    function _msgSender()\n        internal\n        override\n        view\n        returns (address sender)\n    {\n        return ContextMixin.msgSender();\n    }\n\n    function crossChainCall(string memory _toChain, string memory _methodName, bytes memory _data) internal {\n        mapping(string => DestinationMethod) storage map = methodMap[_toChain];\n        DestinationMethod storage method = map[_methodName];\n        require(method.used, \"method not registered\");\n\n        crossChainContract.sendMessage(_toChain, method.contractAddress, method.methodName, _data);\n    }\n\n    function mintTo(address _to) public override onlyOwner {\n        super.mintTo(_to);\n\n        bytes memory data = abi.encode(_to);\n        crossChainCall(TO_CHAIN, \"mintTo\", data);\n    }\n\n    function transferFrom(address from, address to, uint256 tokenId) public override {\n        super.transferFrom(from, to, tokenId);\n\n        bytes memory data = abi.encode(from, to, tokenId);\n        crossChainCall(TO_CHAIN, \"crossChainTransferFrom\", data);\n    }\n\n    function safeTransferFrom(address from, address to, uint256 tokenId) public override {\n        super.safeTransferFrom(from, to, tokenId, \"\");\n\n        bytes memory data = abi.encode(from, to, tokenId, \"\");\n        crossChainCall(TO_CHAIN, \"crossChainSafeTransferFrom\", data);\n    }\n\n    function safeTransferFrom(address from, address to, uint256 tokenId, bytes calldata _data) public override {\n        super.safeTransferFrom(from, to, tokenId, _data);\n\n        bytes memory data = abi.encode(from, to, tokenId, _data);\n        crossChainCall(TO_CHAIN, \"crossChainSafeTransferFrom\", data);\n    }\n}",
  "sourcePath": "/home/george/hthuang/KingHonorNFT/platon/contracts/KingHonorNFT.sol",
  "compiler": {
    "name": "solc",
    "version": "0.8.10+commit.fc410830.Emscripten.clang"
  },
  "schemaVersion": "3.4.4",
  "updatedAt": "2022-02-07T09:48:42.681Z",
  "networkType": "ethereum",
  "devdoc": {
    "kind": "dev",
    "methods": {
      "approve(address,uint256)": {
        "details": "See {IERC721-approve}."
      },
      "balanceOf(address)": {
        "details": "See {IERC721-balanceOf}."
      },
      "getApproved(uint256)": {
        "details": "See {IERC721-getApproved}."
      },
      "mintTo(address)": {
        "details": "Mints a token to an address with a tokenURI.",
        "params": {
          "_to": "address of the future owner of the token"
        }
      },
      "name()": {
        "details": "See {IERC721Metadata-name}."
      },
      "owner()": {
        "details": "Returns the address of the current owner."
      },
      "ownerOf(uint256)": {
        "details": "See {IERC721-ownerOf}."
      },
      "renounceOwnership()": {
        "details": "Leaves the contract without owner. It will not be possible to call `onlyOwner` functions anymore. Can only be called by the current owner. NOTE: Renouncing ownership will leave the contract without an owner, thereby removing any functionality that is only available to the owner."
      },
      "safeTransferFrom(address,address,uint256)": {
        "details": "See {IERC721-safeTransferFrom}."
      },
      "safeTransferFrom(address,address,uint256,bytes)": {
        "details": "See {IERC721-safeTransferFrom}."
      },
      "setApprovalForAll(address,bool)": {
        "details": "See {IERC721-setApprovalForAll}."
      },
      "supportsInterface(bytes4)": {
        "details": "See {IERC165-supportsInterface}."
      },
      "symbol()": {
        "details": "See {IERC721Metadata-symbol}."
      },
      "totalSupply()": {
        "details": "Returns the total tokens minted so far. 1 is always subtracted from the Counter since it tracks the next available tokenId."
      },
      "transferFrom(address,address,uint256)": {
        "details": "See {IERC721-transferFrom}."
      },
      "transferOwnership(address)": {
        "details": "Transfers ownership of the contract to a new account (`newOwner`). Can only be called by the current owner."
      }
    },
    "title": "Creature Creature - a contract for my non-fungible creatures.",
    "version": 1
  },
  "userdoc": {
    "kind": "user",
    "methods": {
      "isApprovedForAll(address,address)": {
        "notice": "Override isApprovedForAll to whitelist user's OpenSea proxy accounts to enable gas-less listings."
      }
    },
    "version": 1
  }
}