{
  "contractName": "KingHonorNFTView",
  "abi": [
    {
      "inputs": [
        {
          "internalType": "string",
          "name": "_name",
          "type": "string"
        },
        {
          "internalType": "string",
          "name": "_symbol",
          "type": "string"
        },
        {
          "internalType": "address",
          "name": "_proxyRegistryAddress",
          "type": "address"
        }
      ],
      "stateMutability": "nonpayable",
      "type": "constructor"
    },
    {
      "anonymous": false,
      "inputs": [
        {
          "indexed": true,
          "internalType": "address",
          "name": "owner",
          "type": "address"
        },
        {
          "indexed": true,
          "internalType": "address",
          "name": "approved",
          "type": "address"
        },
        {
          "indexed": true,
          "internalType": "uint256",
          "name": "tokenId",
          "type": "uint256"
        }
      ],
      "name": "Approval",
      "type": "event"
    },
    {
      "anonymous": false,
      "inputs": [
        {
          "indexed": true,
          "internalType": "address",
          "name": "owner",
          "type": "address"
        },
        {
          "indexed": true,
          "internalType": "address",
          "name": "operator",
          "type": "address"
        },
        {
          "indexed": false,
          "internalType": "bool",
          "name": "approved",
          "type": "bool"
        }
      ],
      "name": "ApprovalForAll",
      "type": "event"
    },
    {
      "anonymous": false,
      "inputs": [
        {
          "indexed": false,
          "internalType": "address",
          "name": "userAddress",
          "type": "address"
        },
        {
          "indexed": false,
          "internalType": "address payable",
          "name": "relayerAddress",
          "type": "address"
        },
        {
          "indexed": false,
          "internalType": "bytes",
          "name": "functionSignature",
          "type": "bytes"
        }
      ],
      "name": "MetaTransactionExecuted",
      "type": "event"
    },
    {
      "anonymous": false,
      "inputs": [
        {
          "indexed": true,
          "internalType": "address",
          "name": "previousOwner",
          "type": "address"
        },
        {
          "indexed": true,
          "internalType": "address",
          "name": "newOwner",
          "type": "address"
        }
      ],
      "name": "OwnershipTransferred",
      "type": "event"
    },
    {
      "anonymous": false,
      "inputs": [
        {
          "indexed": true,
          "internalType": "address",
          "name": "from",
          "type": "address"
        },
        {
          "indexed": true,
          "internalType": "address",
          "name": "to",
          "type": "address"
        },
        {
          "indexed": true,
          "internalType": "uint256",
          "name": "tokenId",
          "type": "uint256"
        }
      ],
      "name": "Transfer",
      "type": "event"
    },
    {
      "inputs": [],
      "name": "ERC712_VERSION",
      "outputs": [
        {
          "internalType": "string",
          "name": "",
          "type": "string"
        }
      ],
      "stateMutability": "view",
      "type": "function",
      "constant": true
    },
    {
      "inputs": [
        {
          "internalType": "address",
          "name": "owner",
          "type": "address"
        }
      ],
      "name": "balanceOf",
      "outputs": [
        {
          "internalType": "uint256",
          "name": "",
          "type": "uint256"
        }
      ],
      "stateMutability": "view",
      "type": "function",
      "constant": true
    },
    {
      "inputs": [],
      "name": "crossChainContract",
      "outputs": [
        {
          "internalType": "contract ICrossChain",
          "name": "",
          "type": "address"
        }
      ],
      "stateMutability": "view",
      "type": "function",
      "constant": true
    },
    {
      "inputs": [
        {
          "internalType": "address",
          "name": "userAddress",
          "type": "address"
        },
        {
          "internalType": "bytes",
          "name": "functionSignature",
          "type": "bytes"
        },
        {
          "internalType": "bytes32",
          "name": "sigR",
          "type": "bytes32"
        },
        {
          "internalType": "bytes32",
          "name": "sigS",
          "type": "bytes32"
        },
        {
          "internalType": "uint8",
          "name": "sigV",
          "type": "uint8"
        }
      ],
      "name": "executeMetaTransaction",
      "outputs": [
        {
          "internalType": "bytes",
          "name": "",
          "type": "bytes"
        }
      ],
      "stateMutability": "payable",
      "type": "function",
      "payable": true
    },
    {
      "inputs": [
        {
          "internalType": "uint256",
          "name": "tokenId",
          "type": "uint256"
        }
      ],
      "name": "getApproved",
      "outputs": [
        {
          "internalType": "address",
          "name": "",
          "type": "address"
        }
      ],
      "stateMutability": "view",
      "type": "function",
      "constant": true
    },
    {
      "inputs": [],
      "name": "getChainId",
      "outputs": [
        {
          "internalType": "uint256",
          "name": "",
          "type": "uint256"
        }
      ],
      "stateMutability": "view",
      "type": "function",
      "constant": true
    },
    {
      "inputs": [],
      "name": "getDomainSeperator",
      "outputs": [
        {
          "internalType": "bytes32",
          "name": "",
          "type": "bytes32"
        }
      ],
      "stateMutability": "view",
      "type": "function",
      "constant": true
    },
    {
      "inputs": [
        {
          "internalType": "address",
          "name": "user",
          "type": "address"
        }
      ],
      "name": "getNonce",
      "outputs": [
        {
          "internalType": "uint256",
          "name": "nonce",
          "type": "uint256"
        }
      ],
      "stateMutability": "view",
      "type": "function",
      "constant": true
    },
    {
      "inputs": [
        {
          "internalType": "address",
          "name": "owner",
          "type": "address"
        },
        {
          "internalType": "address",
          "name": "operator",
          "type": "address"
        }
      ],
      "name": "isApprovedForAll",
      "outputs": [
        {
          "internalType": "bool",
          "name": "",
          "type": "bool"
        }
      ],
      "stateMutability": "view",
      "type": "function",
      "constant": true
    },
    {
      "inputs": [
        {
          "internalType": "string",
          "name": "",
          "type": "string"
        },
        {
          "internalType": "string",
          "name": "",
          "type": "string"
        }
      ],
      "name": "methodMap",
      "outputs": [
        {
          "internalType": "string",
          "name": "contractAddress",
          "type": "string"
        },
        {
          "internalType": "string",
          "name": "methodName",
          "type": "string"
        },
        {
          "internalType": "bool",
          "name": "used",
          "type": "bool"
        }
      ],
      "stateMutability": "view",
      "type": "function",
      "constant": true
    },
    {
      "inputs": [
        {
          "internalType": "address",
          "name": "_to",
          "type": "address"
        }
      ],
      "name": "mintTo",
      "outputs": [],
      "stateMutability": "nonpayable",
      "type": "function"
    },
    {
      "inputs": [],
      "name": "name",
      "outputs": [
        {
          "internalType": "string",
          "name": "",
          "type": "string"
        }
      ],
      "stateMutability": "view",
      "type": "function",
      "constant": true
    },
    {
      "inputs": [],
      "name": "owner",
      "outputs": [
        {
          "internalType": "address",
          "name": "",
          "type": "address"
        }
      ],
      "stateMutability": "view",
      "type": "function",
      "constant": true
    },
    {
      "inputs": [
        {
          "internalType": "uint256",
          "name": "tokenId",
          "type": "uint256"
        }
      ],
      "name": "ownerOf",
      "outputs": [
        {
          "internalType": "address",
          "name": "",
          "type": "address"
        }
      ],
      "stateMutability": "view",
      "type": "function",
      "constant": true
    },
    {
      "inputs": [
        {
          "internalType": "string",
          "name": "_toChain",
          "type": "string"
        },
        {
          "internalType": "string",
          "name": "_contractAddress",
          "type": "string"
        },
        {
          "internalType": "string",
          "name": "_methodName",
          "type": "string"
        }
      ],
      "name": "registerDestinationMethod",
      "outputs": [],
      "stateMutability": "nonpayable",
      "type": "function"
    },
    {
      "inputs": [
        {
          "internalType": "string",
          "name": "_funcName",
          "type": "string"
        },
        {
          "internalType": "string",
          "name": "_interface",
          "type": "string"
        }
      ],
      "name": "registerInterface",
      "outputs": [],
      "stateMutability": "nonpayable",
      "type": "function"
    },
    {
      "inputs": [
        {
          "internalType": "string",
          "name": "_funcName",
          "type": "string"
        },
        {
          "internalType": "string",
          "name": "_abiString",
          "type": "string"
        },
        {
          "internalType": "string",
          "name": "_paramName",
          "type": "string"
        },
        {
          "internalType": "string",
          "name": "_paramType",
          "type": "string"
        }
      ],
      "name": "registerTarget",
      "outputs": [],
      "stateMutability": "nonpayable",
      "type": "function"
    },
    {
      "inputs": [],
      "name": "renounceOwnership",
      "outputs": [],
      "stateMutability": "nonpayable",
      "type": "function"
    },
    {
      "inputs": [
        {
          "internalType": "address",
          "name": "_address",
          "type": "address"
        }
      ],
      "name": "setCrossChainContract",
      "outputs": [],
      "stateMutability": "nonpayable",
      "type": "function"
    },
    {
      "inputs": [
        {
          "internalType": "bytes4",
          "name": "interfaceId",
          "type": "bytes4"
        }
      ],
      "name": "supportsInterface",
      "outputs": [
        {
          "internalType": "bool",
          "name": "",
          "type": "bool"
        }
      ],
      "stateMutability": "view",
      "type": "function",
      "constant": true
    },
    {
      "inputs": [],
      "name": "symbol",
      "outputs": [
        {
          "internalType": "string",
          "name": "",
          "type": "string"
        }
      ],
      "stateMutability": "view",
      "type": "function",
      "constant": true
    },
    {
      "inputs": [
        {
          "internalType": "uint256",
          "name": "_tokenId",
          "type": "uint256"
        }
      ],
      "name": "tokenURI",
      "outputs": [
        {
          "internalType": "string",
          "name": "",
          "type": "string"
        }
      ],
      "stateMutability": "pure",
      "type": "function",
      "constant": true
    },
    {
      "inputs": [],
      "name": "totalSupply",
      "outputs": [
        {
          "internalType": "uint256",
          "name": "",
          "type": "uint256"
        }
      ],
      "stateMutability": "view",
      "type": "function",
      "constant": true
    },
    {
      "inputs": [
        {
          "internalType": "address",
          "name": "newOwner",
          "type": "address"
        }
      ],
      "name": "transferOwnership",
      "outputs": [],
      "stateMutability": "nonpayable",
      "type": "function"
    },
    {
      "inputs": [],
      "name": "baseTokenURI",
      "outputs": [
        {
          "internalType": "string",
          "name": "",
          "type": "string"
        }
      ],
      "stateMutability": "pure",
      "type": "function",
      "constant": true
    },
    {
      "inputs": [],
      "name": "contractURI",
      "outputs": [
        {
          "internalType": "string",
          "name": "",
          "type": "string"
        }
      ],
      "stateMutability": "pure",
      "type": "function",
      "constant": true
    },
    {
      "inputs": [
        {
          "internalType": "address",
          "name": "to",
          "type": "address"
        },
        {
          "internalType": "uint256",
          "name": "tokenId",
          "type": "uint256"
        }
      ],
      "name": "approve",
      "outputs": [],
      "stateMutability": "nonpayable",
      "type": "function"
    },
    {
      "inputs": [
        {
          "internalType": "address",
          "name": "operator",
          "type": "address"
        },
        {
          "internalType": "bool",
          "name": "approved",
          "type": "bool"
        }
      ],
      "name": "setApprovalForAll",
      "outputs": [],
      "stateMutability": "nonpayable",
      "type": "function"
    },
    {
      "inputs": [
        {
          "internalType": "address",
          "name": "from",
          "type": "address"
        },
        {
          "internalType": "address",
          "name": "to",
          "type": "address"
        },
        {
          "internalType": "uint256",
          "name": "tokenId",
          "type": "uint256"
        }
      ],
      "name": "transferFrom",
      "outputs": [],
      "stateMutability": "nonpayable",
      "type": "function"
    },
    {
      "inputs": [
        {
          "internalType": "address",
          "name": "from",
          "type": "address"
        },
        {
          "internalType": "address",
          "name": "to",
          "type": "address"
        },
        {
          "internalType": "uint256",
          "name": "tokenId",
          "type": "uint256"
        }
      ],
      "name": "safeTransferFrom",
      "outputs": [],
      "stateMutability": "nonpayable",
      "type": "function"
    },
    {
      "inputs": [
        {
          "internalType": "address",
          "name": "from",
          "type": "address"
        },
        {
          "internalType": "address",
          "name": "to",
          "type": "address"
        },
        {
          "internalType": "uint256",
          "name": "tokenId",
          "type": "uint256"
        },
        {
          "internalType": "bytes",
          "name": "_data",
          "type": "bytes"
        }
      ],
      "name": "safeTransferFrom",
      "outputs": [],
      "stateMutability": "nonpayable",
      "type": "function"
    },
    {
      "inputs": [
        {
          "internalType": "address",
          "name": "from",
          "type": "address"
        },
        {
          "internalType": "address",
          "name": "to",
          "type": "address"
        },
        {
          "internalType": "uint256",
          "name": "tokenId",
          "type": "uint256"
        }
      ],
      "name": "crossChainTransferFrom",
      "outputs": [],
      "stateMutability": "nonpayable",
      "type": "function"
    },
    {
      "inputs": [
        {
          "internalType": "address",
          "name": "from",
          "type": "address"
        },
        {
          "internalType": "address",
          "name": "to",
          "type": "address"
        },
        {
          "internalType": "uint256",
          "name": "tokenId",
          "type": "uint256"
        },
        {
          "internalType": "bytes",
          "name": "_data",
          "type": "bytes"
        }
      ],
      "name": "crossChainSafeTransferFrom",
      "outputs": [],
      "stateMutability": "nonpayable",
      "type": "function"
    }
  ],
  "bytecode": "0x60806040526000600660006101000a81548160ff0219169083151502179055503480156200002c57600080fd5b5060405162004cd538038062004cd58339818101604052810190620000529190620006bb565b828382828281600090805190602001906200006f92919062000409565b5080600190805190602001906200008892919062000409565b505050620000ab6200009f6200012060201b60201c565b6200013c60201b60201c565b80600b60006101000a81548173ffffffffffffffffffffffffffffffffffffffff021916908373ffffffffffffffffffffffffffffffffffffffff16021790555062000103600a6200020260201b62001aac1760201c565b62000114836200021860201b60201c565b505050505050620008c6565b6000620001376200029a60201b62001ac21760201c565b905090565b6000600960009054906101000a900473ffffffffffffffffffffffffffffffffffffffff16905081600960006101000a81548173ffffffffffffffffffffffffffffffffffffffff021916908373ffffffffffffffffffffffffffffffffffffffff1602179055508173ffffffffffffffffffffffffffffffffffffffff168173ffffffffffffffffffffffffffffffffffffffff167f8be0079c531659141344cd1fd0a4f28419497f9722a3daafe3b4186f6b6457e060405160405180910390a35050565b6001816000016000828254019250508190555050565b600660009054906101000a900460ff16156200026b576040517f08c379a00000000000000000000000000000000000000000000000000000000081526004016200026290620007b6565b60405180910390fd5b6200027c816200034d60201b60201c565b6001600660006101000a81548160ff02191690831515021790555050565b60003073ffffffffffffffffffffffffffffffffffffffff163373ffffffffffffffffffffffffffffffffffffffff1614156200034657600080368080601f016020809104026020016040519081016040528093929190818152602001838380828437600081840152601f19601f820116905080830192505050505050509050600080369050905073ffffffffffffffffffffffffffffffffffffffff8183015116925050506200034a565b3390505b90565b6040518060800160405280604f815260200162004c86604f91398051906020012081805190602001206040518060400160405280600181526020017f31000000000000000000000000000000000000000000000000000000000000008152508051906020012030620003c4620003fc60201b60201c565b60001b604051602001620003dd95949392919062000804565b6040516020818303038152906040528051906020012060078190555050565b6000804690508091505090565b828054620004179062000890565b90600052602060002090601f0160209004810192826200043b576000855562000487565b82601f106200045657805160ff191683800117855562000487565b8280016001018555821562000487579182015b828111156200048657825182559160200191906001019062000469565b5b5090506200049691906200049a565b5090565b5b80821115620004b55760008160009055506001016200049b565b5090565b6000604051905090565b600080fd5b600080fd5b600080fd5b600080fd5b6000601f19601f8301169050919050565b7f4e487b7100000000000000000000000000000000000000000000000000000000600052604160045260246000fd5b6200052282620004d7565b810181811067ffffffffffffffff82111715620005445762000543620004e8565b5b80604052505050565b600062000559620004b9565b905062000567828262000517565b919050565b600067ffffffffffffffff8211156200058a5762000589620004e8565b5b6200059582620004d7565b9050602081019050919050565b60005b83811015620005c2578082015181840152602081019050620005a5565b83811115620005d2576000848401525b50505050565b6000620005ef620005e9846200056c565b6200054d565b9050828152602081018484840111156200060e576200060d620004d2565b5b6200061b848285620005a2565b509392505050565b600082601f8301126200063b576200063a620004cd565b5b81516200064d848260208601620005d8565b91505092915050565b600073ffffffffffffffffffffffffffffffffffffffff82169050919050565b6000620006838262000656565b9050919050565b620006958162000676565b8114620006a157600080fd5b50565b600081519050620006b5816200068a565b92915050565b600080600060608486031215620006d757620006d6620004c3565b5b600084015167ffffffffffffffff811115620006f857620006f7620004c8565b5b620007068682870162000623565b935050602084015167ffffffffffffffff8111156200072a5762000729620004c8565b5b620007388682870162000623565b92505060406200074b86828701620006a4565b9150509250925092565b600082825260208201905092915050565b7f616c726561647920696e69746564000000000000000000000000000000000000600082015250565b60006200079e600e8362000755565b9150620007ab8262000766565b602082019050919050565b60006020820190508181036000830152620007d1816200078f565b9050919050565b6000819050919050565b620007ed81620007d8565b82525050565b620007fe8162000676565b82525050565b600060a0820190506200081b6000830188620007e2565b6200082a6020830187620007e2565b620008396040830186620007e2565b620008486060830185620007f3565b620008576080830184620007e2565b9695505050505050565b7f4e487b7100000000000000000000000000000000000000000000000000000000600052602260045260246000fd5b60006002820490506001821680620008a957607f821691505b60208210811415620008c057620008bf62000861565b5b50919050565b6143b080620008d66000396000f3fe6080604052600436106101ee5760003560e01c80636352211e1161010d578063b88d4fde116100a0578063d547cfb71161006f578063d547cfb714610700578063dbc90de11461072b578063e8a3d48514610756578063e985e9c514610781578063f2fde38b146107be576101ee565b8063b88d4fde14610648578063bcc0408c14610671578063c87b56dd1461069a578063cf3e4ed7146106d7576101ee565b80638da5cb5b116100dc5780638da5cb5b146105a057806395d89b41146105cb578063a22cb465146105f6578063a72483dd1461061f576101ee565b80636352211e146104e657806370a0823114610523578063715018a614610560578063755edd1714610577576101ee565b806320379ee5116101855780633408e470116101545780633408e4701461044057806342842e0e1461046b5780634380aa3a1461049457806345406584146104bd576101ee565b806320379ee51461037057806320fe4e691461039b57806323b872dd146103da5780632d0335ab14610403576101ee565b80630c53c51c116101c15780630c53c51c146102c15780630f7e5970146102f157806318160ddd1461031c57806318d72b5414610347576101ee565b806301ffc9a7146101f357806306fdde0314610230578063081812fc1461025b578063095ea7b314610298575b600080fd5b3480156101ff57600080fd5b5061021a60048036038101906102159190612948565b6107e7565b6040516102279190612990565b60405180910390f35b34801561023c57600080fd5b506102456108c9565b6040516102529190612a44565b60405180910390f35b34801561026757600080fd5b50610282600480360381019061027d9190612a9c565b61095b565b60405161028f9190612b0a565b60405180910390f35b3480156102a457600080fd5b506102bf60048036038101906102ba9190612b51565b6109e0565b005b6102db60048036038101906102d69190612d35565b610a1b565b6040516102e89190612e21565b60405180910390f35b3480156102fd57600080fd5b50610306610c8d565b6040516103139190612a44565b60405180910390f35b34801561032857600080fd5b50610331610cc6565b60405161033e9190612e52565b60405180910390f35b34801561035357600080fd5b5061036e60048036038101906103699190612e6d565b610ce3565b005b34801561037c57600080fd5b50610385610da3565b6040516103929190612ea9565b60405180910390f35b3480156103a757600080fd5b506103c260048036038101906103bd9190612f65565b610dad565b6040516103d193929190612fdd565b60405180910390f35b3480156103e657600080fd5b5061040160048036038101906103fc9190613022565b610f2d565b005b34801561040f57600080fd5b5061042a60048036038101906104259190612e6d565b610f68565b6040516104379190612e52565b60405180910390f35b34801561044c57600080fd5b50610455610fb1565b6040516104629190612e52565b60405180910390f35b34801561047757600080fd5b50610492600480360381019061048d9190613022565b610fbe565b005b3480156104a057600080fd5b506104bb60048036038101906104b691906130d5565b610ff9565b005b3480156104c957600080fd5b506104e460048036038101906104df9190613156565b61110e565b005b3480156104f257600080fd5b5061050d60048036038101906105089190612a9c565b61122f565b60405161051a9190612b0a565b60405180910390f35b34801561052f57600080fd5b5061054a60048036038101906105459190612e6d565b6112e1565b6040516105579190612e52565b60405180910390f35b34801561056c57600080fd5b50610575611399565b005b34801561058357600080fd5b5061059e60048036038101906105999190612e6d565b611421565b005b3480156105ac57600080fd5b506105b56114c3565b6040516105c29190612b0a565b60405180910390f35b3480156105d757600080fd5b506105e06114ed565b6040516105ed9190612a44565b60405180910390f35b34801561060257600080fd5b5061061d6004803603810190610618919061326b565b61157f565b005b34801561062b57600080fd5b5061064660048036038101906106419190613022565b6115ba565b005b34801561065457600080fd5b5061066f600480360381019061066a91906132ab565b611646565b005b34801561067d57600080fd5b50610698600480360381019061069391906132ab565b611681565b005b3480156106a657600080fd5b506106c160048036038101906106bc9190612a9c565b61170f565b6040516106ce9190612a44565b60405180910390f35b3480156106e357600080fd5b506106fe60048036038101906106f9919061332e565b611749565b005b34801561070c57600080fd5b5061071561185b565b6040516107229190612a44565b60405180910390f35b34801561073757600080fd5b5061074061187b565b60405161074d9190613441565b60405180910390f35b34801561076257600080fd5b5061076b6118a1565b6040516107789190612a44565b60405180910390f35b34801561078d57600080fd5b506107a860048036038101906107a3919061345c565b6118c1565b6040516107b59190612990565b60405180910390f35b3480156107ca57600080fd5b506107e560048036038101906107e09190612e6d565b6119b4565b005b60007f80ac58cd000000000000000000000000000000000000000000000000000000007bffffffffffffffffffffffffffffffffffffffffffffffffffffffff1916827bffffffffffffffffffffffffffffffffffffffffffffffffffffffff191614806108b257507f5b5e139f000000000000000000000000000000000000000000000000000000007bffffffffffffffffffffffffffffffffffffffffffffffffffffffff1916827bffffffffffffffffffffffffffffffffffffffffffffffffffffffff1916145b806108c257506108c182611b73565b5b9050919050565b6060600080546108d8906134cb565b80601f0160208091040260200160405190810160405280929190818152602001828054610904906134cb565b80156109515780601f1061092657610100808354040283529160200191610951565b820191906000526020600020905b81548152906001019060200180831161093457829003601f168201915b5050505050905090565b600061096682611bdd565b6109a5576040517f08c379a000000000000000000000000000000000000000000000000000000000815260040161099c9061356f565b60405180910390fd5b6004600083815260200190815260200160002060009054906101000a900473ffffffffffffffffffffffffffffffffffffffff169050919050565b6040517f08c379a0000000000000000000000000000000000000000000000000000000008152600401610a12906135db565b60405180910390fd5b606060006040518060600160405280600860008a73ffffffffffffffffffffffffffffffffffffffff1673ffffffffffffffffffffffffffffffffffffffff1681526020019081526020016000205481526020018873ffffffffffffffffffffffffffffffffffffffff168152602001878152509050610a9e8782878787611c49565b610add576040517f08c379a0000000000000000000000000000000000000000000000000000000008152600401610ad49061366d565b60405180910390fd5b610b306001600860008a73ffffffffffffffffffffffffffffffffffffffff1673ffffffffffffffffffffffffffffffffffffffff16815260200190815260200160002054611d5290919063ffffffff16565b600860008973ffffffffffffffffffffffffffffffffffffffff1673ffffffffffffffffffffffffffffffffffffffff168152602001908152602001600020819055507f5845892132946850460bff5a0083f71031bc5bf9aadcd40f1de79423eac9b10b873388604051610ba6939291906136ae565b60405180910390a16000803073ffffffffffffffffffffffffffffffffffffffff16888a604051602001610bdb929190613770565b604051602081830303815290604052604051610bf79190613798565b6000604051808303816000865af19150503d8060008114610c34576040519150601f19603f3d011682016040523d82523d6000602084013e610c39565b606091505b509150915081610c7e576040517f08c379a0000000000000000000000000000000000000000000000000000000008152600401610c75906137fb565b60405180910390fd5b80935050505095945050505050565b6040518060400160405280600181526020017f310000000000000000000000000000000000000000000000000000000000000081525081565b60006001610cd4600a611d68565b610cde919061384a565b905090565b610ceb611d76565b73ffffffffffffffffffffffffffffffffffffffff16610d096114c3565b73ffffffffffffffffffffffffffffffffffffffff1614610d5f576040517f08c379a0000000000000000000000000000000000000000000000000000000008152600401610d56906138ca565b60405180910390fd5b80600c60006101000a81548173ffffffffffffffffffffffffffffffffffffffff021916908373ffffffffffffffffffffffffffffffffffffffff16021790555050565b6000600754905090565b600d828051602081018201805184825260208301602085012081835280955050505050508180516020810182018051848252602083016020850120818352809550505050505060009150915050806000018054610e09906134cb565b80601f0160208091040260200160405190810160405280929190818152602001828054610e35906134cb565b8015610e825780601f10610e5757610100808354040283529160200191610e82565b820191906000526020600020905b815481529060010190602001808311610e6557829003601f168201915b505050505090806001018054610e97906134cb565b80601f0160208091040260200160405190810160405280929190818152602001828054610ec3906134cb565b8015610f105780601f10610ee557610100808354040283529160200191610f10565b820191906000526020600020905b815481529060010190602001808311610ef357829003601f168201915b5050505050908060020160009054906101000a900460ff16905083565b6040517f08c379a0000000000000000000000000000000000000000000000000000000008152600401610f5f906135db565b60405180910390fd5b6000600860008373ffffffffffffffffffffffffffffffffffffffff1673ffffffffffffffffffffffffffffffffffffffff168152602001908152602001600020549050919050565b6000804690508091505090565b6040517f08c379a0000000000000000000000000000000000000000000000000000000008152600401610ff0906135db565b60405180910390fd5b611001611d76565b73ffffffffffffffffffffffffffffffffffffffff1661101f6114c3565b73ffffffffffffffffffffffffffffffffffffffff1614611075576040517f08c379a000000000000000000000000000000000000000000000000000000000815260040161106c906138ca565b60405180910390fd5b600c60009054906101000a900473ffffffffffffffffffffffffffffffffffffffff1673ffffffffffffffffffffffffffffffffffffffff16634380aa3a858585856040518563ffffffff1660e01b81526004016110d69493929190613917565b600060405180830381600087803b1580156110f057600080fd5b505af1158015611104573d6000803e3d6000fd5b5050505050505050565b611116611d76565b73ffffffffffffffffffffffffffffffffffffffff166111346114c3565b73ffffffffffffffffffffffffffffffffffffffff161461118a576040517f08c379a0000000000000000000000000000000000000000000000000000000008152600401611181906138ca565b60405180910390fd5b600c60009054906101000a900473ffffffffffffffffffffffffffffffffffffffff1673ffffffffffffffffffffffffffffffffffffffff16634540658489898989898989896040518963ffffffff1660e01b81526004016111f3989796959493929190613952565b600060405180830381600087803b15801561120d57600080fd5b505af1158015611221573d6000803e3d6000fd5b505050505050505050505050565b6000806002600084815260200190815260200160002060009054906101000a900473ffffffffffffffffffffffffffffffffffffffff169050600073ffffffffffffffffffffffffffffffffffffffff168173ffffffffffffffffffffffffffffffffffffffff1614156112d8576040517f08c379a00000000000000000000000000000000000000000000000000000000081526004016112cf90613a2d565b60405180910390fd5b80915050919050565b60008073ffffffffffffffffffffffffffffffffffffffff168273ffffffffffffffffffffffffffffffffffffffff161415611352576040517f08c379a000000000000000000000000000000000000000000000000000000000815260040161134990613abf565b60405180910390fd5b600360008373ffffffffffffffffffffffffffffffffffffffff1673ffffffffffffffffffffffffffffffffffffffff168152602001908152602001600020549050919050565b6113a1611d76565b73ffffffffffffffffffffffffffffffffffffffff166113bf6114c3565b73ffffffffffffffffffffffffffffffffffffffff1614611415576040517f08c379a000000000000000000000000000000000000000000000000000000000815260040161140c906138ca565b60405180910390fd5b61141f6000611d85565b565b611429611d76565b73ffffffffffffffffffffffffffffffffffffffff166114476114c3565b73ffffffffffffffffffffffffffffffffffffffff161461149d576040517f08c379a0000000000000000000000000000000000000000000000000000000008152600401611494906138ca565b60405180910390fd5b60006114a9600a611d68565b90506114b5600a611aac565b6114bf8282611e4b565b5050565b6000600960009054906101000a900473ffffffffffffffffffffffffffffffffffffffff16905090565b6060600180546114fc906134cb565b80601f0160208091040260200160405190810160405280929190818152602001828054611528906134cb565b80156115755780601f1061154a57610100808354040283529160200191611575565b820191906000526020600020905b81548152906001019060200180831161155857829003601f168201915b5050505050905090565b6040517f08c379a00000000000000000000000000000000000000000000000000000000081526004016115b1906135db565b60405180910390fd5b6115c2611d76565b73ffffffffffffffffffffffffffffffffffffffff166115e06114c3565b73ffffffffffffffffffffffffffffffffffffffff1614611636576040517f08c379a000000000000000000000000000000000000000000000000000000000815260040161162d906138ca565b60405180910390fd5b611641838383611e69565b505050565b6040517f08c379a0000000000000000000000000000000000000000000000000000000008152600401611678906135db565b60405180910390fd5b611689611d76565b73ffffffffffffffffffffffffffffffffffffffff166116a76114c3565b73ffffffffffffffffffffffffffffffffffffffff16146116fd576040517f08c379a00000000000000000000000000000000000000000000000000000000081526004016116f4906138ca565b60405180910390fd5b611709848484846120c5565b50505050565b606061171961185b565b61172283612121565b604051602001611733929190613b1b565b6040516020818303038152906040529050919050565b611751611d76565b73ffffffffffffffffffffffffffffffffffffffff1661176f6114c3565b73ffffffffffffffffffffffffffffffffffffffff16146117c5576040517f08c379a00000000000000000000000000000000000000000000000000000000081526004016117bc906138ca565b60405180910390fd5b6000600d87876040516117d9929190613b64565b9081526020016040518091039020905060008184846040516117fc929190613b64565b90815260200160405180910390209050858582600001919061181f929190612839565b508383826001019190611833929190612839565b5060018160020160006101000a81548160ff0219169083151502179055505050505050505050565b606060405180606001604052806033815260200161434860339139905090565b600c60009054906101000a900473ffffffffffffffffffffffffffffffffffffffff1681565b606060405180606001604052806040815260200161430860409139905090565b600080600b60009054906101000a900473ffffffffffffffffffffffffffffffffffffffff1690508273ffffffffffffffffffffffffffffffffffffffff168173ffffffffffffffffffffffffffffffffffffffff1663c4552791866040518263ffffffff1660e01b81526004016119399190612b0a565b602060405180830381865afa158015611956573d6000803e3d6000fd5b505050506040513d601f19601f8201168201806040525081019061197a9190613bbb565b73ffffffffffffffffffffffffffffffffffffffff1614156119a05760019150506119ae565b6119aa8484612282565b9150505b92915050565b6119bc611d76565b73ffffffffffffffffffffffffffffffffffffffff166119da6114c3565b73ffffffffffffffffffffffffffffffffffffffff1614611a30576040517f08c379a0000000000000000000000000000000000000000000000000000000008152600401611a27906138ca565b60405180910390fd5b600073ffffffffffffffffffffffffffffffffffffffff168173ffffffffffffffffffffffffffffffffffffffff161415611aa0576040517f08c379a0000000000000000000000000000000000000000000000000000000008152600401611a9790613c5a565b60405180910390fd5b611aa981611d85565b50565b6001816000016000828254019250508190555050565b60003073ffffffffffffffffffffffffffffffffffffffff163373ffffffffffffffffffffffffffffffffffffffff161415611b6c57600080368080601f016020809104026020016040519081016040528093929190818152602001838380828437600081840152601f19601f820116905080830192505050505050509050600080369050905073ffffffffffffffffffffffffffffffffffffffff818301511692505050611b70565b3390505b90565b60007f01ffc9a7000000000000000000000000000000000000000000000000000000007bffffffffffffffffffffffffffffffffffffffffffffffffffffffff1916827bffffffffffffffffffffffffffffffffffffffffffffffffffffffff1916149050919050565b60008073ffffffffffffffffffffffffffffffffffffffff166002600084815260200190815260200160002060009054906101000a900473ffffffffffffffffffffffffffffffffffffffff1673ffffffffffffffffffffffffffffffffffffffff1614159050919050565b60008073ffffffffffffffffffffffffffffffffffffffff168673ffffffffffffffffffffffffffffffffffffffff161415611cba576040517f08c379a0000000000000000000000000000000000000000000000000000000008152600401611cb190613cec565b60405180910390fd5b6001611ccd611cc887612316565b61237e565b83868660405160008152602001604052604051611ced9493929190613d1b565b6020604051602081039080840390855afa158015611d0f573d6000803e3d6000fd5b5050506020604051035173ffffffffffffffffffffffffffffffffffffffff168673ffffffffffffffffffffffffffffffffffffffff1614905095945050505050565b60008183611d609190613d60565b905092915050565b600081600001549050919050565b6000611d80611ac2565b905090565b6000600960009054906101000a900473ffffffffffffffffffffffffffffffffffffffff16905081600960006101000a81548173ffffffffffffffffffffffffffffffffffffffff021916908373ffffffffffffffffffffffffffffffffffffffff1602179055508173ffffffffffffffffffffffffffffffffffffffff168173ffffffffffffffffffffffffffffffffffffffff167f8be0079c531659141344cd1fd0a4f28419497f9722a3daafe3b4186f6b6457e060405160405180910390a35050565b611e658282604051806020016040528060008152506123b7565b5050565b8273ffffffffffffffffffffffffffffffffffffffff16611e898261122f565b73ffffffffffffffffffffffffffffffffffffffff1614611edf576040517f08c379a0000000000000000000000000000000000000000000000000000000008152600401611ed690613e28565b60405180910390fd5b600073ffffffffffffffffffffffffffffffffffffffff168273ffffffffffffffffffffffffffffffffffffffff161415611f4f576040517f08c379a0000000000000000000000000000000000000000000000000000000008152600401611f4690613eba565b60405180910390fd5b611f5a838383612412565b611f65600082612417565b6001600360008573ffffffffffffffffffffffffffffffffffffffff1673ffffffffffffffffffffffffffffffffffffffff1681526020019081526020016000206000828254611fb5919061384a565b925050819055506001600360008473ffffffffffffffffffffffffffffffffffffffff1673ffffffffffffffffffffffffffffffffffffffff168152602001908152602001600020600082825461200c9190613d60565b92505081905550816002600083815260200190815260200160002060006101000a81548173ffffffffffffffffffffffffffffffffffffffff021916908373ffffffffffffffffffffffffffffffffffffffff160217905550808273ffffffffffffffffffffffffffffffffffffffff168473ffffffffffffffffffffffffffffffffffffffff167fddf252ad1be2c89b69c2b068fc378daa952ba7f163c4a11628f55a4df523b3ef60405160405180910390a4505050565b6120d0848484611e69565b6120dc848484846124d0565b61211b576040517f08c379a000000000000000000000000000000000000000000000000000000000815260040161211290613f4c565b60405180910390fd5b50505050565b60606000821415612169576040518060400160405280600181526020017f3000000000000000000000000000000000000000000000000000000000000000815250905061227d565b600082905060005b6000821461219b57808061218490613f6c565b915050600a826121949190613fe4565b9150612171565b60008167ffffffffffffffff8111156121b7576121b6612b9b565b5b6040519080825280601f01601f1916602001820160405280156121e95781602001600182028036833780820191505090505b5090505b6000851461227657600182612202919061384a565b9150600a856122119190614015565b603061221d9190613d60565b60f81b81838151811061223357612232614046565b5b60200101907effffffffffffffffffffffffffffffffffffffffffffffffffffffffffffff1916908160001a905350600a8561226f9190613fe4565b94506121ed565b8093505050505b919050565b6000600560008473ffffffffffffffffffffffffffffffffffffffff1673ffffffffffffffffffffffffffffffffffffffff16815260200190815260200160002060008373ffffffffffffffffffffffffffffffffffffffff1673ffffffffffffffffffffffffffffffffffffffff16815260200190815260200160002060009054906101000a900460ff16905092915050565b60006040518060800160405280604381526020016142c56043913980519060200120826000015183602001518460400151805190602001206040516020016123619493929190614075565b604051602081830303815290604052805190602001209050919050565b6000612388610da3565b8260405160200161239a929190614127565b604051602081830303815290604052805190602001209050919050565b6123c18383612658565b6123ce60008484846124d0565b61240d576040517f08c379a000000000000000000000000000000000000000000000000000000000815260040161240490613f4c565b60405180910390fd5b505050565b505050565b816004600083815260200190815260200160002060006101000a81548173ffffffffffffffffffffffffffffffffffffffff021916908373ffffffffffffffffffffffffffffffffffffffff160217905550808273ffffffffffffffffffffffffffffffffffffffff1661248a8361122f565b73ffffffffffffffffffffffffffffffffffffffff167f8c5be1e5ebec7d5bd14f71427d1e84f3dd0314c0f7b2291e5b200ac8c7c3b92560405160405180910390a45050565b60006124f18473ffffffffffffffffffffffffffffffffffffffff16612826565b1561264b578373ffffffffffffffffffffffffffffffffffffffff1663150b7a0261251a611d76565b8786866040518563ffffffff1660e01b815260040161253c949392919061415e565b6020604051808303816000875af192505050801561257857506040513d601f19601f8201168201806040525081019061257591906141bf565b60015b6125fb573d80600081146125a8576040519150601f19603f3d011682016040523d82523d6000602084013e6125ad565b606091505b506000815114156125f3576040517f08c379a00000000000000000000000000000000000000000000000000000000081526004016125ea90613f4c565b60405180910390fd5b805181602001fd5b63150b7a0260e01b7bffffffffffffffffffffffffffffffffffffffffffffffffffffffff1916817bffffffffffffffffffffffffffffffffffffffffffffffffffffffff191614915050612650565b600190505b949350505050565b600073ffffffffffffffffffffffffffffffffffffffff168273ffffffffffffffffffffffffffffffffffffffff1614156126c8576040517f08c379a00000000000000000000000000000000000000000000000000000000081526004016126bf90614238565b60405180910390fd5b6126d181611bdd565b15612711576040517f08c379a0000000000000000000000000000000000000000000000000000000008152600401612708906142a4565b60405180910390fd5b61271d60008383612412565b6001600360008473ffffffffffffffffffffffffffffffffffffffff1673ffffffffffffffffffffffffffffffffffffffff168152602001908152602001600020600082825461276d9190613d60565b92505081905550816002600083815260200190815260200160002060006101000a81548173ffffffffffffffffffffffffffffffffffffffff021916908373ffffffffffffffffffffffffffffffffffffffff160217905550808273ffffffffffffffffffffffffffffffffffffffff16600073ffffffffffffffffffffffffffffffffffffffff167fddf252ad1be2c89b69c2b068fc378daa952ba7f163c4a11628f55a4df523b3ef60405160405180910390a45050565b600080823b905060008111915050919050565b828054612845906134cb565b90600052602060002090601f01602090048101928261286757600085556128ae565b82601f1061288057803560ff19168380011785556128ae565b828001600101855582156128ae579182015b828111156128ad578235825591602001919060010190612892565b5b5090506128bb91906128bf565b5090565b5b808211156128d85760008160009055506001016128c0565b5090565b6000604051905090565b600080fd5b600080fd5b60007fffffffff0000000000000000000000000000000000000000000000000000000082169050919050565b612925816128f0565b811461293057600080fd5b50565b6000813590506129428161291c565b92915050565b60006020828403121561295e5761295d6128e6565b5b600061296c84828501612933565b91505092915050565b60008115159050919050565b61298a81612975565b82525050565b60006020820190506129a56000830184612981565b92915050565b600081519050919050565b600082825260208201905092915050565b60005b838110156129e55780820151818401526020810190506129ca565b838111156129f4576000848401525b50505050565b6000601f19601f8301169050919050565b6000612a16826129ab565b612a2081856129b6565b9350612a308185602086016129c7565b612a39816129fa565b840191505092915050565b60006020820190508181036000830152612a5e8184612a0b565b905092915050565b6000819050919050565b612a7981612a66565b8114612a8457600080fd5b50565b600081359050612a9681612a70565b92915050565b600060208284031215612ab257612ab16128e6565b5b6000612ac084828501612a87565b91505092915050565b600073ffffffffffffffffffffffffffffffffffffffff82169050919050565b6000612af482612ac9565b9050919050565b612b0481612ae9565b82525050565b6000602082019050612b1f6000830184612afb565b92915050565b612b2e81612ae9565b8114612b3957600080fd5b50565b600081359050612b4b81612b25565b92915050565b60008060408385031215612b6857612b676128e6565b5b6000612b7685828601612b3c565b9250506020612b8785828601612a87565b9150509250929050565b600080fd5b600080fd5b7f4e487b7100000000000000000000000000000000000000000000000000000000600052604160045260246000fd5b612bd3826129fa565b810181811067ffffffffffffffff82111715612bf257612bf1612b9b565b5b80604052505050565b6000612c056128dc565b9050612c118282612bca565b919050565b600067ffffffffffffffff821115612c3157612c30612b9b565b5b612c3a826129fa565b9050602081019050919050565b82818337600083830152505050565b6000612c69612c6484612c16565b612bfb565b905082815260208101848484011115612c8557612c84612b96565b5b612c90848285612c47565b509392505050565b600082601f830112612cad57612cac612b91565b5b8135612cbd848260208601612c56565b91505092915050565b6000819050919050565b612cd981612cc6565b8114612ce457600080fd5b50565b600081359050612cf681612cd0565b92915050565b600060ff82169050919050565b612d1281612cfc565b8114612d1d57600080fd5b50565b600081359050612d2f81612d09565b92915050565b600080600080600060a08688031215612d5157612d506128e6565b5b6000612d5f88828901612b3c565b955050602086013567ffffffffffffffff811115612d8057612d7f6128eb565b5b612d8c88828901612c98565b9450506040612d9d88828901612ce7565b9350506060612dae88828901612ce7565b9250506080612dbf88828901612d20565b9150509295509295909350565b600081519050919050565b600082825260208201905092915050565b6000612df382612dcc565b612dfd8185612dd7565b9350612e0d8185602086016129c7565b612e16816129fa565b840191505092915050565b60006020820190508181036000830152612e3b8184612de8565b905092915050565b612e4c81612a66565b82525050565b6000602082019050612e676000830184612e43565b92915050565b600060208284031215612e8357612e826128e6565b5b6000612e9184828501612b3c565b91505092915050565b612ea381612cc6565b82525050565b6000602082019050612ebe6000830184612e9a565b92915050565b600067ffffffffffffffff821115612edf57612ede612b9b565b5b612ee8826129fa565b9050602081019050919050565b6000612f08612f0384612ec4565b612bfb565b905082815260208101848484011115612f2457612f23612b96565b5b612f2f848285612c47565b509392505050565b600082601f830112612f4c57612f4b612b91565b5b8135612f5c848260208601612ef5565b91505092915050565b60008060408385031215612f7c57612f7b6128e6565b5b600083013567ffffffffffffffff811115612f9a57612f996128eb565b5b612fa685828601612f37565b925050602083013567ffffffffffffffff811115612fc757612fc66128eb565b5b612fd385828601612f37565b9150509250929050565b60006060820190508181036000830152612ff78186612a0b565b9050818103602083015261300b8185612a0b565b905061301a6040830184612981565b949350505050565b60008060006060848603121561303b5761303a6128e6565b5b600061304986828701612b3c565b935050602061305a86828701612b3c565b925050604061306b86828701612a87565b9150509250925092565b600080fd5b600080fd5b60008083601f84011261309557613094612b91565b5b8235905067ffffffffffffffff8111156130b2576130b1613075565b5b6020830191508360018202830111156130ce576130cd61307a565b5b9250929050565b600080600080604085870312156130ef576130ee6128e6565b5b600085013567ffffffffffffffff81111561310d5761310c6128eb565b5b6131198782880161307f565b9450945050602085013567ffffffffffffffff81111561313c5761313b6128eb565b5b6131488782880161307f565b925092505092959194509250565b6000806000806000806000806080898b031215613176576131756128e6565b5b600089013567ffffffffffffffff811115613194576131936128eb565b5b6131a08b828c0161307f565b9850985050602089013567ffffffffffffffff8111156131c3576131c26128eb565b5b6131cf8b828c0161307f565b9650965050604089013567ffffffffffffffff8111156131f2576131f16128eb565b5b6131fe8b828c0161307f565b9450945050606089013567ffffffffffffffff811115613221576132206128eb565b5b61322d8b828c0161307f565b92509250509295985092959890939650565b61324881612975565b811461325357600080fd5b50565b6000813590506132658161323f565b92915050565b60008060408385031215613282576132816128e6565b5b600061329085828601612b3c565b92505060206132a185828601613256565b9150509250929050565b600080600080608085870312156132c5576132c46128e6565b5b60006132d387828801612b3c565b94505060206132e487828801612b3c565b93505060406132f587828801612a87565b925050606085013567ffffffffffffffff811115613316576133156128eb565b5b61332287828801612c98565b91505092959194509250565b6000806000806000806060878903121561334b5761334a6128e6565b5b600087013567ffffffffffffffff811115613369576133686128eb565b5b61337589828a0161307f565b9650965050602087013567ffffffffffffffff811115613398576133976128eb565b5b6133a489828a0161307f565b9450945050604087013567ffffffffffffffff8111156133c7576133c66128eb565b5b6133d389828a0161307f565b92509250509295509295509295565b6000819050919050565b60006134076134026133fd84612ac9565b6133e2565b612ac9565b9050919050565b6000613419826133ec565b9050919050565b600061342b8261340e565b9050919050565b61343b81613420565b82525050565b60006020820190506134566000830184613432565b92915050565b60008060408385031215613473576134726128e6565b5b600061348185828601612b3c565b925050602061349285828601612b3c565b9150509250929050565b7f4e487b7100000000000000000000000000000000000000000000000000000000600052602260045260246000fd5b600060028204905060018216806134e357607f821691505b602082108114156134f7576134f661349c565b5b50919050565b7f4552433732313a20617070726f76656420717565727920666f72206e6f6e657860008201527f697374656e7420746f6b656e0000000000000000000000000000000000000000602082015250565b6000613559602c836129b6565b9150613564826134fd565b604082019050919050565b600060208201905081810360008301526135888161354c565b9050919050565b7f5468697320636f6e7472616374206973206f6e6c7920666f7220766965770000600082015250565b60006135c5601e836129b6565b91506135d08261358f565b602082019050919050565b600060208201905081810360008301526135f4816135b8565b9050919050565b7f5369676e657220616e64207369676e617475726520646f206e6f74206d61746360008201527f6800000000000000000000000000000000000000000000000000000000000000602082015250565b60006136576021836129b6565b9150613662826135fb565b604082019050919050565b600060208201905081810360008301526136868161364a565b9050919050565b600061369882612ac9565b9050919050565b6136a88161368d565b82525050565b60006060820190506136c36000830186612afb565b6136d0602083018561369f565b81810360408301526136e28184612de8565b9050949350505050565b600081905092915050565b600061370282612dcc565b61370c81856136ec565b935061371c8185602086016129c7565b80840191505092915050565b60008160601b9050919050565b600061374082613728565b9050919050565b600061375282613735565b9050919050565b61376a61376582612ae9565b613747565b82525050565b600061377c82856136f7565b91506137888284613759565b6014820191508190509392505050565b60006137a482846136f7565b915081905092915050565b7f46756e6374696f6e2063616c6c206e6f74207375636365737366756c00000000600082015250565b60006137e5601c836129b6565b91506137f0826137af565b602082019050919050565b60006020820190508181036000830152613814816137d8565b9050919050565b7f4e487b7100000000000000000000000000000000000000000000000000000000600052601160045260246000fd5b600061385582612a66565b915061386083612a66565b9250828210156138735761387261381b565b5b828203905092915050565b7f4f776e61626c653a2063616c6c6572206973206e6f7420746865206f776e6572600082015250565b60006138b46020836129b6565b91506138bf8261387e565b602082019050919050565b600060208201905081810360008301526138e3816138a7565b9050919050565b60006138f683856129b6565b9350613903838584612c47565b61390c836129fa565b840190509392505050565b600060408201905081810360008301526139328186886138ea565b905081810360208301526139478184866138ea565b905095945050505050565b6000608082019050818103600083015261396d818a8c6138ea565b9050818103602083015261398281888a6138ea565b905081810360408301526139978186886138ea565b905081810360608301526139ac8184866138ea565b90509998505050505050505050565b7f4552433732313a206f776e657220717565727920666f72206e6f6e657869737460008201527f656e7420746f6b656e0000000000000000000000000000000000000000000000602082015250565b6000613a176029836129b6565b9150613a22826139bb565b604082019050919050565b60006020820190508181036000830152613a4681613a0a565b9050919050565b7f4552433732313a2062616c616e636520717565727920666f7220746865207a6560008201527f726f206164647265737300000000000000000000000000000000000000000000602082015250565b6000613aa9602a836129b6565b9150613ab482613a4d565b604082019050919050565b60006020820190508181036000830152613ad881613a9c565b9050919050565b600081905092915050565b6000613af5826129ab565b613aff8185613adf565b9350613b0f8185602086016129c7565b80840191505092915050565b6000613b278285613aea565b9150613b338284613aea565b91508190509392505050565b6000613b4b8385613adf565b9350613b58838584612c47565b82840190509392505050565b6000613b71828486613b3f565b91508190509392505050565b6000613b8882612ae9565b9050919050565b613b9881613b7d565b8114613ba357600080fd5b50565b600081519050613bb581613b8f565b92915050565b600060208284031215613bd157613bd06128e6565b5b6000613bdf84828501613ba6565b91505092915050565b7f4f776e61626c653a206e6577206f776e657220697320746865207a65726f206160008201527f6464726573730000000000000000000000000000000000000000000000000000602082015250565b6000613c446026836129b6565b9150613c4f82613be8565b604082019050919050565b60006020820190508181036000830152613c7381613c37565b9050919050565b7f4e61746976654d6574615472616e73616374696f6e3a20494e56414c49445f5360008201527f49474e4552000000000000000000000000000000000000000000000000000000602082015250565b6000613cd66025836129b6565b9150613ce182613c7a565b604082019050919050565b60006020820190508181036000830152613d0581613cc9565b9050919050565b613d1581612cfc565b82525050565b6000608082019050613d306000830187612e9a565b613d3d6020830186613d0c565b613d4a6040830185612e9a565b613d576060830184612e9a565b95945050505050565b6000613d6b82612a66565b9150613d7683612a66565b9250827fffffffffffffffffffffffffffffffffffffffffffffffffffffffffffffffff03821115613dab57613daa61381b565b5b828201905092915050565b7f4552433732313a207472616e73666572206f6620746f6b656e2074686174206960008201527f73206e6f74206f776e0000000000000000000000000000000000000000000000602082015250565b6000613e126029836129b6565b9150613e1d82613db6565b604082019050919050565b60006020820190508181036000830152613e4181613e05565b9050919050565b7f4552433732313a207472616e7366657220746f20746865207a65726f2061646460008201527f7265737300000000000000000000000000000000000000000000000000000000602082015250565b6000613ea46024836129b6565b9150613eaf82613e48565b604082019050919050565b60006020820190508181036000830152613ed381613e97565b9050919050565b7f4552433732313a207472616e7366657220746f206e6f6e20455243373231526560008201527f63656976657220696d706c656d656e7465720000000000000000000000000000602082015250565b6000613f366032836129b6565b9150613f4182613eda565b604082019050919050565b60006020820190508181036000830152613f6581613f29565b9050919050565b6000613f7782612a66565b91507fffffffffffffffffffffffffffffffffffffffffffffffffffffffffffffffff821415613faa57613fa961381b565b5b600182019050919050565b7f4e487b7100000000000000000000000000000000000000000000000000000000600052601260045260246000fd5b6000613fef82612a66565b9150613ffa83612a66565b92508261400a57614009613fb5565b5b828204905092915050565b600061402082612a66565b915061402b83612a66565b92508261403b5761403a613fb5565b5b828206905092915050565b7f4e487b7100000000000000000000000000000000000000000000000000000000600052603260045260246000fd5b600060808201905061408a6000830187612e9a565b6140976020830186612e43565b6140a46040830185612afb565b6140b16060830184612e9a565b95945050505050565b7f1901000000000000000000000000000000000000000000000000000000000000600082015250565b60006140f0600283613adf565b91506140fb826140ba565b600282019050919050565b6000819050919050565b61412161411c82612cc6565b614106565b82525050565b6000614132826140e3565b915061413e8285614110565b60208201915061414e8284614110565b6020820191508190509392505050565b60006080820190506141736000830187612afb565b6141806020830186612afb565b61418d6040830185612e43565b818103606083015261419f8184612de8565b905095945050505050565b6000815190506141b98161291c565b92915050565b6000602082840312156141d5576141d46128e6565b5b60006141e3848285016141aa565b91505092915050565b7f4552433732313a206d696e7420746f20746865207a65726f2061646472657373600082015250565b60006142226020836129b6565b915061422d826141ec565b602082019050919050565b6000602082019050818103600083015261425181614215565b9050919050565b7f4552433732313a20746f6b656e20616c7265616479206d696e74656400000000600082015250565b600061428e601c836129b6565b915061429982614258565b602082019050919050565b600060208201905081810360008301526142bd81614281565b905091905056fe4d6574615472616e73616374696f6e2875696e74323536206e6f6e63652c616464726573732066726f6d2c62797465732066756e6374696f6e5369676e61747572652968747470733a2f2f6b696e672d686f6e6f722d6e66742e6f73732d636e2d6265696a696e672e616c6979756e63732e636f6d2f636f6e74726163742e6a736f6e68747470733a2f2f6b696e672d686f6e6f722d6e66742e6f73732d636e2d6265696a696e672e616c6979756e63732e636f6d2fa26469706673582212208519157fb06bdc5473bf2bd2debf698b111ce0d69bc6f8ac361bb6b3a6f1328b64736f6c634300080a0033454950373132446f6d61696e28737472696e67206e616d652c737472696e672076657273696f6e2c6164647265737320766572696679696e67436f6e74726163742c627974657333322073616c7429",
  "immutableReferences": {},
  "source": "// SPDX-License-Identifier: MIT\n\npragma solidity ^0.8.0;\n\nimport \"./ERC721Tradable.sol\";\nimport \"./ConsumerBase.sol\";\n\n/**\n * @title Creature\n * Creature - a contract for my non-fungible creatures.\n */\ncontract KingHonorNFTView is ERC721Tradable, ConsumerBase {\n    constructor(\n        string memory _name,\n        string memory _symbol,\n        address _proxyRegistryAddress)\n        ERC721Tradable(_name, _name, _proxyRegistryAddress)\n    {}\n\n    function baseTokenURI() override public pure returns (string memory) {\n        return \"https://king-honor-nft.oss-cn-beijing.aliyuncs.com/\";\n    }\n\n    function contractURI() public pure returns (string memory) {\n        return \"https://king-honor-nft.oss-cn-beijing.aliyuncs.com/contract.json\";\n    }\n\n    /**\n     * This is used instead of msg.sender as transactions won't be sent by the original token owner, but by OpenSea.\n     */\n    function _msgSender()\n        internal\n        override\n        view\n        returns (address sender)\n    {\n        return ContextMixin.msgSender();\n    }\n\n    // forbiden\n    function approve(address to, uint256 tokenId) public virtual override {\n        revert(\"This contract is only for view\");\n    }\n\n    // forbiden\n    function setApprovalForAll(address operator, bool approved) public virtual override {\n        revert(\"This contract is only for view\");\n    }\n\n    // forbiden\n    function transferFrom(address from, address to, uint256 tokenId) public virtual override {\n        revert(\"This contract is only for view\");\n    }\n\n    // forbiden\n    function safeTransferFrom(address from, address to, uint256 tokenId) public virtual override {\n        revert(\"This contract is only for view\");\n    }\n\n    // forbiden\n    function safeTransferFrom(address from, address to, uint256 tokenId, bytes memory _data) public virtual override {\n        revert(\"This contract is only for view\");\n    }\n\n    // cross-chain transferFrom\n    function crossChainTransferFrom(address from, address to, uint256 tokenId) public onlyOwner {\n        _transfer(from, to, tokenId);\n    }\n\n    // cross-chain safeTransferFrom\n    function crossChainSafeTransferFrom(address from, address to, uint256 tokenId, bytes memory _data) public onlyOwner {\n        _safeTransfer(from, to, tokenId, _data);\n    }\n}",
  "sourcePath": "/home/ubuntu/hthuang/KingHonorNFT/ethereum/contracts/KingHonorNFTView.sol",
  "compiler": {
    "name": "solc",
    "version": "0.8.10+commit.fc410830.Emscripten.clang"
  },
  "schemaVersion": "3.4.3",
  "updatedAt": "2022-02-04T13:49:33.014Z",
  "networkType": "ethereum",
  "devdoc": {
    "kind": "dev",
    "methods": {
      "approve(address,uint256)": {
        "details": "See {IERC721-approve}."
      },
      "balanceOf(address)": {
        "details": "See {IERC721-balanceOf}."
      },
      "getApproved(uint256)": {
        "details": "See {IERC721-getApproved}."
      },
      "mintTo(address)": {
        "details": "Mints a token to an address with a tokenURI.",
        "params": {
          "_to": "address of the future owner of the token"
        }
      },
      "name()": {
        "details": "See {IERC721Metadata-name}."
      },
      "owner()": {
        "details": "Returns the address of the current owner."
      },
      "ownerOf(uint256)": {
        "details": "See {IERC721-ownerOf}."
      },
      "renounceOwnership()": {
        "details": "Leaves the contract without owner. It will not be possible to call `onlyOwner` functions anymore. Can only be called by the current owner. NOTE: Renouncing ownership will leave the contract without an owner, thereby removing any functionality that is only available to the owner."
      },
      "safeTransferFrom(address,address,uint256)": {
        "details": "See {IERC721-safeTransferFrom}."
      },
      "safeTransferFrom(address,address,uint256,bytes)": {
        "details": "See {IERC721-safeTransferFrom}."
      },
      "setApprovalForAll(address,bool)": {
        "details": "See {IERC721-setApprovalForAll}."
      },
      "supportsInterface(bytes4)": {
        "details": "See {IERC165-supportsInterface}."
      },
      "symbol()": {
        "details": "See {IERC721Metadata-symbol}."
      },
      "totalSupply()": {
        "details": "Returns the total tokens minted so far. 1 is always subtracted from the Counter since it tracks the next available tokenId."
      },
      "transferFrom(address,address,uint256)": {
        "details": "See {IERC721-transferFrom}."
      },
      "transferOwnership(address)": {
        "details": "Transfers ownership of the contract to a new account (`newOwner`). Can only be called by the current owner."
      }
    },
    "title": "Creature Creature - a contract for my non-fungible creatures.",
    "version": 1
  },
  "userdoc": {
    "kind": "user",
    "methods": {
      "isApprovedForAll(address,address)": {
        "notice": "Override isApprovedForAll to whitelist user's OpenSea proxy accounts to enable gas-less listings."
      }
    },
    "version": 1
  }
}