{
  "contractName": "KingHonorNFT",
  "abi": [
    {
      "inputs": [
        {
          "internalType": "string",
          "name": "_name",
          "type": "string"
        },
        {
          "internalType": "string",
          "name": "_symbol",
          "type": "string"
        },
        {
          "internalType": "address",
          "name": "_proxyRegistryAddress",
          "type": "address"
        }
      ],
      "stateMutability": "nonpayable",
      "type": "constructor"
    },
    {
      "anonymous": false,
      "inputs": [
        {
          "indexed": true,
          "internalType": "address",
          "name": "owner",
          "type": "address"
        },
        {
          "indexed": true,
          "internalType": "address",
          "name": "approved",
          "type": "address"
        },
        {
          "indexed": true,
          "internalType": "uint256",
          "name": "tokenId",
          "type": "uint256"
        }
      ],
      "name": "Approval",
      "type": "event"
    },
    {
      "anonymous": false,
      "inputs": [
        {
          "indexed": true,
          "internalType": "address",
          "name": "owner",
          "type": "address"
        },
        {
          "indexed": true,
          "internalType": "address",
          "name": "operator",
          "type": "address"
        },
        {
          "indexed": false,
          "internalType": "bool",
          "name": "approved",
          "type": "bool"
        }
      ],
      "name": "ApprovalForAll",
      "type": "event"
    },
    {
      "anonymous": false,
      "inputs": [
        {
          "indexed": false,
          "internalType": "address",
          "name": "userAddress",
          "type": "address"
        },
        {
          "indexed": false,
          "internalType": "address payable",
          "name": "relayerAddress",
          "type": "address"
        },
        {
          "indexed": false,
          "internalType": "bytes",
          "name": "functionSignature",
          "type": "bytes"
        }
      ],
      "name": "MetaTransactionExecuted",
      "type": "event"
    },
    {
      "anonymous": false,
      "inputs": [
        {
          "indexed": true,
          "internalType": "address",
          "name": "previousOwner",
          "type": "address"
        },
        {
          "indexed": true,
          "internalType": "address",
          "name": "newOwner",
          "type": "address"
        }
      ],
      "name": "OwnershipTransferred",
      "type": "event"
    },
    {
      "anonymous": false,
      "inputs": [
        {
          "indexed": true,
          "internalType": "address",
          "name": "from",
          "type": "address"
        },
        {
          "indexed": true,
          "internalType": "address",
          "name": "to",
          "type": "address"
        },
        {
          "indexed": true,
          "internalType": "uint256",
          "name": "tokenId",
          "type": "uint256"
        }
      ],
      "name": "Transfer",
      "type": "event"
    },
    {
      "inputs": [],
      "name": "ERC712_VERSION",
      "outputs": [
        {
          "internalType": "string",
          "name": "",
          "type": "string"
        }
      ],
      "stateMutability": "view",
      "type": "function",
      "constant": true
    },
    {
      "inputs": [
        {
          "internalType": "address",
          "name": "to",
          "type": "address"
        },
        {
          "internalType": "uint256",
          "name": "tokenId",
          "type": "uint256"
        }
      ],
      "name": "approve",
      "outputs": [],
      "stateMutability": "nonpayable",
      "type": "function"
    },
    {
      "inputs": [
        {
          "internalType": "address",
          "name": "owner",
          "type": "address"
        }
      ],
      "name": "balanceOf",
      "outputs": [
        {
          "internalType": "uint256",
          "name": "",
          "type": "uint256"
        }
      ],
      "stateMutability": "view",
      "type": "function",
      "constant": true
    },
    {
      "inputs": [],
      "name": "crossChainContract",
      "outputs": [
        {
          "internalType": "contract ICrossChain",
          "name": "",
          "type": "address"
        }
      ],
      "stateMutability": "view",
      "type": "function",
      "constant": true
    },
    {
      "inputs": [
        {
          "internalType": "address",
          "name": "userAddress",
          "type": "address"
        },
        {
          "internalType": "bytes",
          "name": "functionSignature",
          "type": "bytes"
        },
        {
          "internalType": "bytes32",
          "name": "sigR",
          "type": "bytes32"
        },
        {
          "internalType": "bytes32",
          "name": "sigS",
          "type": "bytes32"
        },
        {
          "internalType": "uint8",
          "name": "sigV",
          "type": "uint8"
        }
      ],
      "name": "executeMetaTransaction",
      "outputs": [
        {
          "internalType": "bytes",
          "name": "",
          "type": "bytes"
        }
      ],
      "stateMutability": "payable",
      "type": "function",
      "payable": true
    },
    {
      "inputs": [
        {
          "internalType": "uint256",
          "name": "tokenId",
          "type": "uint256"
        }
      ],
      "name": "getApproved",
      "outputs": [
        {
          "internalType": "address",
          "name": "",
          "type": "address"
        }
      ],
      "stateMutability": "view",
      "type": "function",
      "constant": true
    },
    {
      "inputs": [],
      "name": "getChainId",
      "outputs": [
        {
          "internalType": "uint256",
          "name": "",
          "type": "uint256"
        }
      ],
      "stateMutability": "view",
      "type": "function",
      "constant": true
    },
    {
      "inputs": [],
      "name": "getDomainSeperator",
      "outputs": [
        {
          "internalType": "bytes32",
          "name": "",
          "type": "bytes32"
        }
      ],
      "stateMutability": "view",
      "type": "function",
      "constant": true
    },
    {
      "inputs": [
        {
          "internalType": "address",
          "name": "user",
          "type": "address"
        }
      ],
      "name": "getNonce",
      "outputs": [
        {
          "internalType": "uint256",
          "name": "nonce",
          "type": "uint256"
        }
      ],
      "stateMutability": "view",
      "type": "function",
      "constant": true
    },
    {
      "inputs": [
        {
          "internalType": "address",
          "name": "owner",
          "type": "address"
        },
        {
          "internalType": "address",
          "name": "operator",
          "type": "address"
        }
      ],
      "name": "isApprovedForAll",
      "outputs": [
        {
          "internalType": "bool",
          "name": "",
          "type": "bool"
        }
      ],
      "stateMutability": "view",
      "type": "function",
      "constant": true
    },
    {
      "inputs": [
        {
          "internalType": "string",
          "name": "",
          "type": "string"
        },
        {
          "internalType": "string",
          "name": "",
          "type": "string"
        }
      ],
      "name": "methodMap",
      "outputs": [
        {
          "internalType": "string",
          "name": "contractAddress",
          "type": "string"
        },
        {
          "internalType": "string",
          "name": "methodName",
          "type": "string"
        },
        {
          "internalType": "bool",
          "name": "used",
          "type": "bool"
        }
      ],
      "stateMutability": "view",
      "type": "function",
      "constant": true
    },
    {
      "inputs": [],
      "name": "name",
      "outputs": [
        {
          "internalType": "string",
          "name": "",
          "type": "string"
        }
      ],
      "stateMutability": "view",
      "type": "function",
      "constant": true
    },
    {
      "inputs": [],
      "name": "owner",
      "outputs": [
        {
          "internalType": "address",
          "name": "",
          "type": "address"
        }
      ],
      "stateMutability": "view",
      "type": "function",
      "constant": true
    },
    {
      "inputs": [
        {
          "internalType": "uint256",
          "name": "tokenId",
          "type": "uint256"
        }
      ],
      "name": "ownerOf",
      "outputs": [
        {
          "internalType": "address",
          "name": "",
          "type": "address"
        }
      ],
      "stateMutability": "view",
      "type": "function",
      "constant": true
    },
    {
      "inputs": [
        {
          "internalType": "string",
          "name": "_toChain",
          "type": "string"
        },
        {
          "internalType": "string",
          "name": "_contractAddress",
          "type": "string"
        },
        {
          "internalType": "string",
          "name": "_methodName",
          "type": "string"
        }
      ],
      "name": "registerDestinationMethod",
      "outputs": [],
      "stateMutability": "nonpayable",
      "type": "function"
    },
    {
      "inputs": [
        {
          "internalType": "string",
          "name": "_funcName",
          "type": "string"
        },
        {
          "internalType": "string",
          "name": "_interface",
          "type": "string"
        }
      ],
      "name": "registerInterface",
      "outputs": [],
      "stateMutability": "nonpayable",
      "type": "function"
    },
    {
      "inputs": [
        {
          "internalType": "string",
          "name": "_funcName",
          "type": "string"
        },
        {
          "internalType": "string",
          "name": "_abiString",
          "type": "string"
        },
        {
          "internalType": "string",
          "name": "_paramName",
          "type": "string"
        },
        {
          "internalType": "string",
          "name": "_paramType",
          "type": "string"
        }
      ],
      "name": "registerTarget",
      "outputs": [],
      "stateMutability": "nonpayable",
      "type": "function"
    },
    {
      "inputs": [],
      "name": "renounceOwnership",
      "outputs": [],
      "stateMutability": "nonpayable",
      "type": "function"
    },
    {
      "inputs": [
        {
          "internalType": "address",
          "name": "operator",
          "type": "address"
        },
        {
          "internalType": "bool",
          "name": "approved",
          "type": "bool"
        }
      ],
      "name": "setApprovalForAll",
      "outputs": [],
      "stateMutability": "nonpayable",
      "type": "function"
    },
    {
      "inputs": [
        {
          "internalType": "address",
          "name": "_address",
          "type": "address"
        }
      ],
      "name": "setCrossChainContract",
      "outputs": [],
      "stateMutability": "nonpayable",
      "type": "function"
    },
    {
      "inputs": [
        {
          "internalType": "bytes4",
          "name": "interfaceId",
          "type": "bytes4"
        }
      ],
      "name": "supportsInterface",
      "outputs": [
        {
          "internalType": "bool",
          "name": "",
          "type": "bool"
        }
      ],
      "stateMutability": "view",
      "type": "function",
      "constant": true
    },
    {
      "inputs": [],
      "name": "symbol",
      "outputs": [
        {
          "internalType": "string",
          "name": "",
          "type": "string"
        }
      ],
      "stateMutability": "view",
      "type": "function",
      "constant": true
    },
    {
      "inputs": [
        {
          "internalType": "uint256",
          "name": "_tokenId",
          "type": "uint256"
        }
      ],
      "name": "tokenURI",
      "outputs": [
        {
          "internalType": "string",
          "name": "",
          "type": "string"
        }
      ],
      "stateMutability": "pure",
      "type": "function",
      "constant": true
    },
    {
      "inputs": [],
      "name": "totalSupply",
      "outputs": [
        {
          "internalType": "uint256",
          "name": "",
          "type": "uint256"
        }
      ],
      "stateMutability": "view",
      "type": "function",
      "constant": true
    },
    {
      "inputs": [
        {
          "internalType": "address",
          "name": "newOwner",
          "type": "address"
        }
      ],
      "name": "transferOwnership",
      "outputs": [],
      "stateMutability": "nonpayable",
      "type": "function"
    },
    {
      "inputs": [],
      "name": "baseTokenURI",
      "outputs": [
        {
          "internalType": "string",
          "name": "",
          "type": "string"
        }
      ],
      "stateMutability": "pure",
      "type": "function",
      "constant": true
    },
    {
      "inputs": [],
      "name": "contractURI",
      "outputs": [
        {
          "internalType": "string",
          "name": "",
          "type": "string"
        }
      ],
      "stateMutability": "pure",
      "type": "function",
      "constant": true
    },
    {
      "inputs": [
        {
          "internalType": "address",
          "name": "_to",
          "type": "address"
        }
      ],
      "name": "mintTo",
      "outputs": [],
      "stateMutability": "nonpayable",
      "type": "function"
    },
    {
      "inputs": [
        {
          "internalType": "address",
          "name": "from",
          "type": "address"
        },
        {
          "internalType": "address",
          "name": "to",
          "type": "address"
        },
        {
          "internalType": "uint256",
          "name": "tokenId",
          "type": "uint256"
        }
      ],
      "name": "transferFrom",
      "outputs": [],
      "stateMutability": "nonpayable",
      "type": "function"
    },
    {
      "inputs": [
        {
          "internalType": "address",
          "name": "from",
          "type": "address"
        },
        {
          "internalType": "address",
          "name": "to",
          "type": "address"
        },
        {
          "internalType": "uint256",
          "name": "tokenId",
          "type": "uint256"
        }
      ],
      "name": "safeTransferFrom",
      "outputs": [],
      "stateMutability": "nonpayable",
      "type": "function"
    },
    {
      "inputs": [
        {
          "internalType": "address",
          "name": "from",
          "type": "address"
        },
        {
          "internalType": "address",
          "name": "to",
          "type": "address"
        },
        {
          "internalType": "uint256",
          "name": "tokenId",
          "type": "uint256"
        },
        {
          "internalType": "bytes",
          "name": "_data",
          "type": "bytes"
        }
      ],
      "name": "safeTransferFrom",
      "outputs": [],
      "stateMutability": "nonpayable",
      "type": "function"
    }
  ],
  "bytecode": "0x60806040526000600660006101000a81548160ff0219169083151502179055503480156200002c57600080fd5b5060405162005860380380620058608339818101604052810190620000529190620006bb565b828382828281600090805190602001906200006f92919062000409565b5080600190805190602001906200008892919062000409565b505050620000ab6200009f6200012060201b60201c565b6200013c60201b60201c565b80600b60006101000a81548173ffffffffffffffffffffffffffffffffffffffff021916908373ffffffffffffffffffffffffffffffffffffffff16021790555062000103600a6200020260201b62001c161760201c565b62000114836200021860201b60201c565b505050505050620008c6565b6000620001376200029a60201b62001c2c1760201c565b905090565b6000600960009054906101000a900473ffffffffffffffffffffffffffffffffffffffff16905081600960006101000a81548173ffffffffffffffffffffffffffffffffffffffff021916908373ffffffffffffffffffffffffffffffffffffffff1602179055508173ffffffffffffffffffffffffffffffffffffffff168173ffffffffffffffffffffffffffffffffffffffff167f8be0079c531659141344cd1fd0a4f28419497f9722a3daafe3b4186f6b6457e060405160405180910390a35050565b6001816000016000828254019250508190555050565b600660009054906101000a900460ff16156200026b576040517f08c379a00000000000000000000000000000000000000000000000000000000081526004016200026290620007b6565b60405180910390fd5b6200027c816200034d60201b60201c565b6001600660006101000a81548160ff02191690831515021790555050565b60003073ffffffffffffffffffffffffffffffffffffffff163373ffffffffffffffffffffffffffffffffffffffff1614156200034657600080368080601f016020809104026020016040519081016040528093929190818152602001838380828437600081840152601f19601f820116905080830192505050505050509050600080369050905073ffffffffffffffffffffffffffffffffffffffff8183015116925050506200034a565b3390505b90565b6040518060800160405280604f815260200162005811604f91398051906020012081805190602001206040518060400160405280600181526020017f31000000000000000000000000000000000000000000000000000000000000008152508051906020012030620003c4620003fc60201b60201c565b60001b604051602001620003dd95949392919062000804565b6040516020818303038152906040528051906020012060078190555050565b6000804690508091505090565b828054620004179062000890565b90600052602060002090601f0160209004810192826200043b576000855562000487565b82601f106200045657805160ff191683800117855562000487565b8280016001018555821562000487579182015b828111156200048657825182559160200191906001019062000469565b5b5090506200049691906200049a565b5090565b5b80821115620004b55760008160009055506001016200049b565b5090565b6000604051905090565b600080fd5b600080fd5b600080fd5b600080fd5b6000601f19601f8301169050919050565b7f4e487b7100000000000000000000000000000000000000000000000000000000600052604160045260246000fd5b6200052282620004d7565b810181811067ffffffffffffffff82111715620005445762000543620004e8565b5b80604052505050565b600062000559620004b9565b905062000567828262000517565b919050565b600067ffffffffffffffff8211156200058a5762000589620004e8565b5b6200059582620004d7565b9050602081019050919050565b60005b83811015620005c2578082015181840152602081019050620005a5565b83811115620005d2576000848401525b50505050565b6000620005ef620005e9846200056c565b6200054d565b9050828152602081018484840111156200060e576200060d620004d2565b5b6200061b848285620005a2565b509392505050565b600082601f8301126200063b576200063a620004cd565b5b81516200064d848260208601620005d8565b91505092915050565b600073ffffffffffffffffffffffffffffffffffffffff82169050919050565b6000620006838262000656565b9050919050565b620006958162000676565b8114620006a157600080fd5b50565b600081519050620006b5816200068a565b92915050565b600080600060608486031215620006d757620006d6620004c3565b5b600084015167ffffffffffffffff811115620006f857620006f7620004c8565b5b620007068682870162000623565b935050602084015167ffffffffffffffff8111156200072a5762000729620004c8565b5b620007388682870162000623565b92505060406200074b86828701620006a4565b9150509250925092565b600082825260208201905092915050565b7f616c726561647920696e69746564000000000000000000000000000000000000600082015250565b60006200079e600e8362000755565b9150620007ab8262000766565b602082019050919050565b60006020820190508181036000830152620007d1816200078f565b9050919050565b6000819050919050565b620007ed81620007d8565b82525050565b620007fe8162000676565b82525050565b600060a0820190506200081b6000830188620007e2565b6200082a6020830187620007e2565b620008396040830186620007e2565b620008486060830185620007f3565b620008576080830184620007e2565b9695505050505050565b7f4e487b7100000000000000000000000000000000000000000000000000000000600052602260045260246000fd5b60006002820490506001821680620008a957607f821691505b60208210811415620008c057620008bf62000861565b5b50919050565b614f3b80620008d66000396000f3fe6080604052600436106101d85760003560e01c80634540658411610102578063b88d4fde11610095578063dbc90de111610064578063dbc90de1146106c3578063e8a3d485146106ee578063e985e9c514610719578063f2fde38b14610756576101d8565b8063b88d4fde14610609578063c87b56dd14610632578063cf3e4ed71461066f578063d547cfb714610698576101d8565b8063755edd17116100d1578063755edd17146105615780638da5cb5b1461058a57806395d89b41146105b5578063a22cb465146105e0576101d8565b806345406584146104a75780636352211e146104d057806370a082311461050d578063715018a61461054a576101d8565b806318d72b541161017a5780632d0335ab116101495780632d0335ab146103ed5780633408e4701461042a57806342842e0e146104555780634380aa3a1461047e576101d8565b806318d72b541461033157806320379ee51461035a57806320fe4e691461038557806323b872dd146103c4576101d8565b8063095ea7b3116101b6578063095ea7b3146102825780630c53c51c146102ab5780630f7e5970146102db57806318160ddd14610306576101d8565b806301ffc9a7146101dd57806306fdde031461021a578063081812fc14610245575b600080fd5b3480156101e957600080fd5b5061020460048036038101906101ff9190612f95565b61077f565b6040516102119190612fdd565b60405180910390f35b34801561022657600080fd5b5061022f610861565b60405161023c9190613091565b60405180910390f35b34801561025157600080fd5b5061026c600480360381019061026791906130e9565b6108f3565b6040516102799190613157565b60405180910390f35b34801561028e57600080fd5b506102a960048036038101906102a4919061319e565b610978565b005b6102c560048036038101906102c09190613382565b610a90565b6040516102d2919061346e565b60405180910390f35b3480156102e757600080fd5b506102f0610d02565b6040516102fd9190613091565b60405180910390f35b34801561031257600080fd5b5061031b610d3b565b604051610328919061349f565b60405180910390f35b34801561033d57600080fd5b50610358600480360381019061035391906134ba565b610d58565b005b34801561036657600080fd5b5061036f610e18565b60405161037c91906134f6565b60405180910390f35b34801561039157600080fd5b506103ac60048036038101906103a791906135b2565b610e22565b6040516103bb9392919061362a565b60405180910390f35b3480156103d057600080fd5b506103eb60048036038101906103e6919061366f565b610fa2565b005b3480156103f957600080fd5b50610414600480360381019061040f91906134ba565b611050565b604051610421919061349f565b60405180910390f35b34801561043657600080fd5b5061043f611099565b60405161044c919061349f565b60405180910390f35b34801561046157600080fd5b5061047c6004803603810190610477919061366f565b6110a6565b005b34801561048a57600080fd5b506104a560048036038101906104a09190613722565b611164565b005b3480156104b357600080fd5b506104ce60048036038101906104c991906137a3565b611279565b005b3480156104dc57600080fd5b506104f760048036038101906104f291906130e9565b61139a565b6040516105049190613157565b60405180910390f35b34801561051957600080fd5b50610534600480360381019061052f91906134ba565b61144c565b604051610541919061349f565b60405180910390f35b34801561055657600080fd5b5061055f611504565b005b34801561056d57600080fd5b50610588600480360381019061058391906134ba565b61158c565b005b34801561059657600080fd5b5061059f6116ae565b6040516105ac9190613157565b60405180910390f35b3480156105c157600080fd5b506105ca6116d8565b6040516105d79190613091565b60405180910390f35b3480156105ec57600080fd5b50610607600480360381019061060291906138b8565b61176a565b005b34801561061557600080fd5b50610630600480360381019061062b919061394e565b611780565b005b34801561063e57600080fd5b50610659600480360381019061065491906130e9565b611879565b6040516106669190613091565b60405180910390f35b34801561067b57600080fd5b50610696600480360381019061069191906139d6565b6118b3565b005b3480156106a457600080fd5b506106ad6119c5565b6040516106ba9190613091565b60405180910390f35b3480156106cf57600080fd5b506106d86119e5565b6040516106e59190613ae9565b60405180910390f35b3480156106fa57600080fd5b50610703611a0b565b6040516107109190613091565b60405180910390f35b34801561072557600080fd5b50610740600480360381019061073b9190613b04565b611a2b565b60405161074d9190612fdd565b60405180910390f35b34801561076257600080fd5b5061077d600480360381019061077891906134ba565b611b1e565b005b60007f80ac58cd000000000000000000000000000000000000000000000000000000007bffffffffffffffffffffffffffffffffffffffffffffffffffffffff1916827bffffffffffffffffffffffffffffffffffffffffffffffffffffffff1916148061084a57507f5b5e139f000000000000000000000000000000000000000000000000000000007bffffffffffffffffffffffffffffffffffffffffffffffffffffffff1916827bffffffffffffffffffffffffffffffffffffffffffffffffffffffff1916145b8061085a575061085982611cdd565b5b9050919050565b60606000805461087090613b73565b80601f016020809104026020016040519081016040528092919081815260200182805461089c90613b73565b80156108e95780601f106108be576101008083540402835291602001916108e9565b820191906000526020600020905b8154815290600101906020018083116108cc57829003601f168201915b5050505050905090565b60006108fe82611d47565b61093d576040517f08c379a000000000000000000000000000000000000000000000000000000000815260040161093490613c17565b60405180910390fd5b6004600083815260200190815260200160002060009054906101000a900473ffffffffffffffffffffffffffffffffffffffff169050919050565b60006109838261139a565b90508073ffffffffffffffffffffffffffffffffffffffff168373ffffffffffffffffffffffffffffffffffffffff1614156109f4576040517f08c379a00000000000000000000000000000000000000000000000000000000081526004016109eb90613ca9565b60405180910390fd5b8073ffffffffffffffffffffffffffffffffffffffff16610a13611db3565b73ffffffffffffffffffffffffffffffffffffffff161480610a425750610a4181610a3c611db3565b611a2b565b5b610a81576040517f08c379a0000000000000000000000000000000000000000000000000000000008152600401610a7890613d3b565b60405180910390fd5b610a8b8383611dc2565b505050565b606060006040518060600160405280600860008a73ffffffffffffffffffffffffffffffffffffffff1673ffffffffffffffffffffffffffffffffffffffff1681526020019081526020016000205481526020018873ffffffffffffffffffffffffffffffffffffffff168152602001878152509050610b138782878787611e7b565b610b52576040517f08c379a0000000000000000000000000000000000000000000000000000000008152600401610b4990613dcd565b60405180910390fd5b610ba56001600860008a73ffffffffffffffffffffffffffffffffffffffff1673ffffffffffffffffffffffffffffffffffffffff16815260200190815260200160002054611f8490919063ffffffff16565b600860008973ffffffffffffffffffffffffffffffffffffffff1673ffffffffffffffffffffffffffffffffffffffff168152602001908152602001600020819055507f5845892132946850460bff5a0083f71031bc5bf9aadcd40f1de79423eac9b10b873388604051610c1b93929190613e0e565b60405180910390a16000803073ffffffffffffffffffffffffffffffffffffffff16888a604051602001610c50929190613ed0565b604051602081830303815290604052604051610c6c9190613ef8565b6000604051808303816000865af19150503d8060008114610ca9576040519150601f19603f3d011682016040523d82523d6000602084013e610cae565b606091505b509150915081610cf3576040517f08c379a0000000000000000000000000000000000000000000000000000000008152600401610cea90613f5b565b60405180910390fd5b80935050505095945050505050565b6040518060400160405280600181526020017f310000000000000000000000000000000000000000000000000000000000000081525081565b60006001610d49600a611f9a565b610d539190613faa565b905090565b610d60611db3565b73ffffffffffffffffffffffffffffffffffffffff16610d7e6116ae565b73ffffffffffffffffffffffffffffffffffffffff1614610dd4576040517f08c379a0000000000000000000000000000000000000000000000000000000008152600401610dcb9061402a565b60405180910390fd5b80600c60006101000a81548173ffffffffffffffffffffffffffffffffffffffff021916908373ffffffffffffffffffffffffffffffffffffffff16021790555050565b6000600754905090565b600d828051602081018201805184825260208301602085012081835280955050505050508180516020810182018051848252602083016020850120818352809550505050505060009150915050806000018054610e7e90613b73565b80601f0160208091040260200160405190810160405280929190818152602001828054610eaa90613b73565b8015610ef75780601f10610ecc57610100808354040283529160200191610ef7565b820191906000526020600020905b815481529060010190602001808311610eda57829003601f168201915b505050505090806001018054610f0c90613b73565b80601f0160208091040260200160405190810160405280929190818152602001828054610f3890613b73565b8015610f855780601f10610f5a57610100808354040283529160200191610f85565b820191906000526020600020905b815481529060010190602001808311610f6857829003601f168201915b5050505050908060020160009054906101000a900460ff16905083565b610fad838383611fa8565b6000838383604051602001610fc49392919061404a565b604051602081830303815290604052905061104a6040518060400160405280600881526020017f455448455245554d0000000000000000000000000000000000000000000000008152506040518060400160405280600c81526020017f7472616e7366657246726f6d000000000000000000000000000000000000000081525083612008565b50505050565b6000600860008373ffffffffffffffffffffffffffffffffffffffff1673ffffffffffffffffffffffffffffffffffffffff168152602001908152602001600020549050919050565b6000804690508091505090565b6110c18383836040518060200160405280600081525061213c565b60008383836040516020016110d8939291906140a7565b604051602081830303815290604052905061115e6040518060400160405280600881526020017f455448455245554d0000000000000000000000000000000000000000000000008152506040518060400160405280601081526020017f736166655472616e7366657246726f6d0000000000000000000000000000000081525083612008565b50505050565b61116c611db3565b73ffffffffffffffffffffffffffffffffffffffff1661118a6116ae565b73ffffffffffffffffffffffffffffffffffffffff16146111e0576040517f08c379a00000000000000000000000000000000000000000000000000000000081526004016111d79061402a565b60405180910390fd5b600c60009054906101000a900473ffffffffffffffffffffffffffffffffffffffff1673ffffffffffffffffffffffffffffffffffffffff16634380aa3a858585856040518563ffffffff1660e01b8152600401611241949392919061411e565b600060405180830381600087803b15801561125b57600080fd5b505af115801561126f573d6000803e3d6000fd5b5050505050505050565b611281611db3565b73ffffffffffffffffffffffffffffffffffffffff1661129f6116ae565b73ffffffffffffffffffffffffffffffffffffffff16146112f5576040517f08c379a00000000000000000000000000000000000000000000000000000000081526004016112ec9061402a565b60405180910390fd5b600c60009054906101000a900473ffffffffffffffffffffffffffffffffffffffff1673ffffffffffffffffffffffffffffffffffffffff16634540658489898989898989896040518963ffffffff1660e01b815260040161135e989796959493929190614159565b600060405180830381600087803b15801561137857600080fd5b505af115801561138c573d6000803e3d6000fd5b505050505050505050505050565b6000806002600084815260200190815260200160002060009054906101000a900473ffffffffffffffffffffffffffffffffffffffff169050600073ffffffffffffffffffffffffffffffffffffffff168173ffffffffffffffffffffffffffffffffffffffff161415611443576040517f08c379a000000000000000000000000000000000000000000000000000000000815260040161143a90614234565b60405180910390fd5b80915050919050565b60008073ffffffffffffffffffffffffffffffffffffffff168273ffffffffffffffffffffffffffffffffffffffff1614156114bd576040517f08c379a00000000000000000000000000000000000000000000000000000000081526004016114b4906142c6565b60405180910390fd5b600360008373ffffffffffffffffffffffffffffffffffffffff1673ffffffffffffffffffffffffffffffffffffffff168152602001908152602001600020549050919050565b61150c611db3565b73ffffffffffffffffffffffffffffffffffffffff1661152a6116ae565b73ffffffffffffffffffffffffffffffffffffffff1614611580576040517f08c379a00000000000000000000000000000000000000000000000000000000081526004016115779061402a565b60405180910390fd5b61158a600061219e565b565b611594611db3565b73ffffffffffffffffffffffffffffffffffffffff166115b26116ae565b73ffffffffffffffffffffffffffffffffffffffff1614611608576040517f08c379a00000000000000000000000000000000000000000000000000000000081526004016115ff9061402a565b60405180910390fd5b61161181612264565b6000816040516020016116249190613157565b60405160208183030381529060405290506116aa6040518060400160405280600881526020017f455448455245554d0000000000000000000000000000000000000000000000008152506040518060400160405280600681526020017f6d696e74546f000000000000000000000000000000000000000000000000000081525083612008565b5050565b6000600960009054906101000a900473ffffffffffffffffffffffffffffffffffffffff16905090565b6060600180546116e790613b73565b80601f016020809104026020016040519081016040528092919081815260200182805461171390613b73565b80156117605780601f1061173557610100808354040283529160200191611760565b820191906000526020600020905b81548152906001019060200180831161174357829003601f168201915b5050505050905090565b61177c611775611db3565b8383612306565b5050565b6117d085858585858080601f016020809104026020016040519081016040528093929190818152602001838380828437600081840152601f19601f8201169050808301925050505050505061213c565b600085858585856040516020016117eb959493929190614313565b60405160208183030381529060405290506118716040518060400160405280600881526020017f455448455245554d0000000000000000000000000000000000000000000000008152506040518060400160405280601081526020017f736166655472616e7366657246726f6d0000000000000000000000000000000081525083612008565b505050505050565b60606118836119c5565b61188c83612473565b60405160200161189d92919061439d565b6040516020818303038152906040529050919050565b6118bb611db3565b73ffffffffffffffffffffffffffffffffffffffff166118d96116ae565b73ffffffffffffffffffffffffffffffffffffffff161461192f576040517f08c379a00000000000000000000000000000000000000000000000000000000081526004016119269061402a565b60405180910390fd5b6000600d87876040516119439291906143e6565b9081526020016040518091039020905060008184846040516119669291906143e6565b908152602001604051809103902090508585826000019190611989929190612e86565b50838382600101919061199d929190612e86565b5060018160020160006101000a81548160ff0219169083151502179055505050505050505050565b6060604051806060016040528060338152602001614ed360339139905090565b600c60009054906101000a900473ffffffffffffffffffffffffffffffffffffffff1681565b6060604051806060016040528060408152602001614e9360409139905090565b600080600b60009054906101000a900473ffffffffffffffffffffffffffffffffffffffff1690508273ffffffffffffffffffffffffffffffffffffffff168173ffffffffffffffffffffffffffffffffffffffff1663c4552791866040518263ffffffff1660e01b8152600401611aa39190613157565b602060405180830381865afa158015611ac0573d6000803e3d6000fd5b505050506040513d601f19601f82011682018060405250810190611ae4919061443d565b73ffffffffffffffffffffffffffffffffffffffff161415611b0a576001915050611b18565b611b1484846125d4565b9150505b92915050565b611b26611db3565b73ffffffffffffffffffffffffffffffffffffffff16611b446116ae565b73ffffffffffffffffffffffffffffffffffffffff1614611b9a576040517f08c379a0000000000000000000000000000000000000000000000000000000008152600401611b919061402a565b60405180910390fd5b600073ffffffffffffffffffffffffffffffffffffffff168173ffffffffffffffffffffffffffffffffffffffff161415611c0a576040517f08c379a0000000000000000000000000000000000000000000000000000000008152600401611c01906144dc565b60405180910390fd5b611c138161219e565b50565b6001816000016000828254019250508190555050565b60003073ffffffffffffffffffffffffffffffffffffffff163373ffffffffffffffffffffffffffffffffffffffff161415611cd657600080368080601f016020809104026020016040519081016040528093929190818152602001838380828437600081840152601f19601f820116905080830192505050505050509050600080369050905073ffffffffffffffffffffffffffffffffffffffff818301511692505050611cda565b3390505b90565b60007f01ffc9a7000000000000000000000000000000000000000000000000000000007bffffffffffffffffffffffffffffffffffffffffffffffffffffffff1916827bffffffffffffffffffffffffffffffffffffffffffffffffffffffff1916149050919050565b60008073ffffffffffffffffffffffffffffffffffffffff166002600084815260200190815260200160002060009054906101000a900473ffffffffffffffffffffffffffffffffffffffff1673ffffffffffffffffffffffffffffffffffffffff1614159050919050565b6000611dbd611c2c565b905090565b816004600083815260200190815260200160002060006101000a81548173ffffffffffffffffffffffffffffffffffffffff021916908373ffffffffffffffffffffffffffffffffffffffff160217905550808273ffffffffffffffffffffffffffffffffffffffff16611e358361139a565b73ffffffffffffffffffffffffffffffffffffffff167f8c5be1e5ebec7d5bd14f71427d1e84f3dd0314c0f7b2291e5b200ac8c7c3b92560405160405180910390a45050565b60008073ffffffffffffffffffffffffffffffffffffffff168673ffffffffffffffffffffffffffffffffffffffff161415611eec576040517f08c379a0000000000000000000000000000000000000000000000000000000008152600401611ee39061456e565b60405180910390fd5b6001611eff611efa87612668565b6126d0565b83868660405160008152602001604052604051611f1f949392919061459d565b6020604051602081039080840390855afa158015611f41573d6000803e3d6000fd5b5050506020604051035173ffffffffffffffffffffffffffffffffffffffff168673ffffffffffffffffffffffffffffffffffffffff1614905095945050505050565b60008183611f9291906145e2565b905092915050565b600081600001549050919050565b611fb9611fb3611db3565b82612709565b611ff8576040517f08c379a0000000000000000000000000000000000000000000000000000000008152600401611fef906146aa565b60405180910390fd5b6120038383836127e7565b505050565b6000600d8460405161201a91906146ca565b908152602001604051809103902090506000818460405161203b91906146ca565b908152602001604051809103902090508060020160009054906101000a900460ff1661209c576040517f08c379a00000000000000000000000000000000000000000000000000000000081526004016120939061472d565b60405180910390fd5b600c60009054906101000a900473ffffffffffffffffffffffffffffffffffffffff1673ffffffffffffffffffffffffffffffffffffffff1663729518fc868360000184600101876040518563ffffffff1660e01b815260040161210394939291906147e2565b600060405180830381600087803b15801561211d57600080fd5b505af1158015612131573d6000803e3d6000fd5b505050505050505050565b61214d612147611db3565b83612709565b61218c576040517f08c379a0000000000000000000000000000000000000000000000000000000008152600401612183906146aa565b60405180910390fd5b61219884848484612a43565b50505050565b6000600960009054906101000a900473ffffffffffffffffffffffffffffffffffffffff16905081600960006101000a81548173ffffffffffffffffffffffffffffffffffffffff021916908373ffffffffffffffffffffffffffffffffffffffff1602179055508173ffffffffffffffffffffffffffffffffffffffff168173ffffffffffffffffffffffffffffffffffffffff167f8be0079c531659141344cd1fd0a4f28419497f9722a3daafe3b4186f6b6457e060405160405180910390a35050565b61226c611db3565b73ffffffffffffffffffffffffffffffffffffffff1661228a6116ae565b73ffffffffffffffffffffffffffffffffffffffff16146122e0576040517f08c379a00000000000000000000000000000000000000000000000000000000081526004016122d79061402a565b60405180910390fd5b60006122ec600a611f9a565b90506122f8600a611c16565b6123028282612a9f565b5050565b8173ffffffffffffffffffffffffffffffffffffffff168373ffffffffffffffffffffffffffffffffffffffff161415612375576040517f08c379a000000000000000000000000000000000000000000000000000000000815260040161236c9061488f565b60405180910390fd5b80600560008573ffffffffffffffffffffffffffffffffffffffff1673ffffffffffffffffffffffffffffffffffffffff16815260200190815260200160002060008473ffffffffffffffffffffffffffffffffffffffff1673ffffffffffffffffffffffffffffffffffffffff16815260200190815260200160002060006101000a81548160ff0219169083151502179055508173ffffffffffffffffffffffffffffffffffffffff168373ffffffffffffffffffffffffffffffffffffffff167f17307eab39ab6107e8899845ad3d59bd9653f200f220920489ca2b5937696c31836040516124669190612fdd565b60405180910390a3505050565b606060008214156124bb576040518060400160405280600181526020017f300000000000000000000000000000000000000000000000000000000000000081525090506125cf565b600082905060005b600082146124ed5780806124d6906148af565b915050600a826124e69190614927565b91506124c3565b60008167ffffffffffffffff811115612509576125086131e8565b5b6040519080825280601f01601f19166020018201604052801561253b5781602001600182028036833780820191505090505b5090505b600085146125c8576001826125549190613faa565b9150600a856125639190614958565b603061256f91906145e2565b60f81b81838151811061258557612584614989565b5b60200101907effffffffffffffffffffffffffffffffffffffffffffffffffffffffffffff1916908160001a905350600a856125c19190614927565b945061253f565b8093505050505b919050565b6000600560008473ffffffffffffffffffffffffffffffffffffffff1673ffffffffffffffffffffffffffffffffffffffff16815260200190815260200160002060008373ffffffffffffffffffffffffffffffffffffffff1673ffffffffffffffffffffffffffffffffffffffff16815260200190815260200160002060009054906101000a900460ff16905092915050565b6000604051806080016040528060438152602001614e506043913980519060200120826000015183602001518460400151805190602001206040516020016126b394939291906149b8565b604051602081830303815290604052805190602001209050919050565b60006126da610e18565b826040516020016126ec929190614a6a565b604051602081830303815290604052805190602001209050919050565b600061271482611d47565b612753576040517f08c379a000000000000000000000000000000000000000000000000000000000815260040161274a90614b13565b60405180910390fd5b600061275e8361139a565b90508073ffffffffffffffffffffffffffffffffffffffff168473ffffffffffffffffffffffffffffffffffffffff1614806127cd57508373ffffffffffffffffffffffffffffffffffffffff166127b5846108f3565b73ffffffffffffffffffffffffffffffffffffffff16145b806127de57506127dd8185611a2b565b5b91505092915050565b8273ffffffffffffffffffffffffffffffffffffffff166128078261139a565b73ffffffffffffffffffffffffffffffffffffffff161461285d576040517f08c379a000000000000000000000000000000000000000000000000000000000815260040161285490614ba5565b60405180910390fd5b600073ffffffffffffffffffffffffffffffffffffffff168273ffffffffffffffffffffffffffffffffffffffff1614156128cd576040517f08c379a00000000000000000000000000000000000000000000000000000000081526004016128c490614c37565b60405180910390fd5b6128d8838383612abd565b6128e3600082611dc2565b6001600360008573ffffffffffffffffffffffffffffffffffffffff1673ffffffffffffffffffffffffffffffffffffffff16815260200190815260200160002060008282546129339190613faa565b925050819055506001600360008473ffffffffffffffffffffffffffffffffffffffff1673ffffffffffffffffffffffffffffffffffffffff168152602001908152602001600020600082825461298a91906145e2565b92505081905550816002600083815260200190815260200160002060006101000a81548173ffffffffffffffffffffffffffffffffffffffff021916908373ffffffffffffffffffffffffffffffffffffffff160217905550808273ffffffffffffffffffffffffffffffffffffffff168473ffffffffffffffffffffffffffffffffffffffff167fddf252ad1be2c89b69c2b068fc378daa952ba7f163c4a11628f55a4df523b3ef60405160405180910390a4505050565b612a4e8484846127e7565b612a5a84848484612ac2565b612a99576040517f08c379a0000000000000000000000000000000000000000000000000000000008152600401612a9090614cc9565b60405180910390fd5b50505050565b612ab9828260405180602001604052806000815250612c4a565b5050565b505050565b6000612ae38473ffffffffffffffffffffffffffffffffffffffff16612ca5565b15612c3d578373ffffffffffffffffffffffffffffffffffffffff1663150b7a02612b0c611db3565b8786866040518563ffffffff1660e01b8152600401612b2e9493929190614ce9565b6020604051808303816000875af1925050508015612b6a57506040513d601f19601f82011682018060405250810190612b679190614d4a565b60015b612bed573d8060008114612b9a576040519150601f19603f3d011682016040523d82523d6000602084013e612b9f565b606091505b50600081511415612be5576040517f08c379a0000000000000000000000000000000000000000000000000000000008152600401612bdc90614cc9565b60405180910390fd5b805181602001fd5b63150b7a0260e01b7bffffffffffffffffffffffffffffffffffffffffffffffffffffffff1916817bffffffffffffffffffffffffffffffffffffffffffffffffffffffff191614915050612c42565b600190505b949350505050565b612c548383612cb8565b612c616000848484612ac2565b612ca0576040517f08c379a0000000000000000000000000000000000000000000000000000000008152600401612c9790614cc9565b60405180910390fd5b505050565b600080823b905060008111915050919050565b600073ffffffffffffffffffffffffffffffffffffffff168273ffffffffffffffffffffffffffffffffffffffff161415612d28576040517f08c379a0000000000000000000000000000000000000000000000000000000008152600401612d1f90614dc3565b60405180910390fd5b612d3181611d47565b15612d71576040517f08c379a0000000000000000000000000000000000000000000000000000000008152600401612d6890614e2f565b60405180910390fd5b612d7d60008383612abd565b6001600360008473ffffffffffffffffffffffffffffffffffffffff1673ffffffffffffffffffffffffffffffffffffffff1681526020019081526020016000206000828254612dcd91906145e2565b92505081905550816002600083815260200190815260200160002060006101000a81548173ffffffffffffffffffffffffffffffffffffffff021916908373ffffffffffffffffffffffffffffffffffffffff160217905550808273ffffffffffffffffffffffffffffffffffffffff16600073ffffffffffffffffffffffffffffffffffffffff167fddf252ad1be2c89b69c2b068fc378daa952ba7f163c4a11628f55a4df523b3ef60405160405180910390a45050565b828054612e9290613b73565b90600052602060002090601f016020900481019282612eb45760008555612efb565b82601f10612ecd57803560ff1916838001178555612efb565b82800160010185558215612efb579182015b82811115612efa578235825591602001919060010190612edf565b5b509050612f089190612f0c565b5090565b5b80821115612f25576000816000905550600101612f0d565b5090565b6000604051905090565b600080fd5b600080fd5b60007fffffffff0000000000000000000000000000000000000000000000000000000082169050919050565b612f7281612f3d565b8114612f7d57600080fd5b50565b600081359050612f8f81612f69565b92915050565b600060208284031215612fab57612faa612f33565b5b6000612fb984828501612f80565b91505092915050565b60008115159050919050565b612fd781612fc2565b82525050565b6000602082019050612ff26000830184612fce565b92915050565b600081519050919050565b600082825260208201905092915050565b60005b83811015613032578082015181840152602081019050613017565b83811115613041576000848401525b50505050565b6000601f19601f8301169050919050565b600061306382612ff8565b61306d8185613003565b935061307d818560208601613014565b61308681613047565b840191505092915050565b600060208201905081810360008301526130ab8184613058565b905092915050565b6000819050919050565b6130c6816130b3565b81146130d157600080fd5b50565b6000813590506130e3816130bd565b92915050565b6000602082840312156130ff576130fe612f33565b5b600061310d848285016130d4565b91505092915050565b600073ffffffffffffffffffffffffffffffffffffffff82169050919050565b600061314182613116565b9050919050565b61315181613136565b82525050565b600060208201905061316c6000830184613148565b92915050565b61317b81613136565b811461318657600080fd5b50565b60008135905061319881613172565b92915050565b600080604083850312156131b5576131b4612f33565b5b60006131c385828601613189565b92505060206131d4858286016130d4565b9150509250929050565b600080fd5b600080fd5b7f4e487b7100000000000000000000000000000000000000000000000000000000600052604160045260246000fd5b61322082613047565b810181811067ffffffffffffffff8211171561323f5761323e6131e8565b5b80604052505050565b6000613252612f29565b905061325e8282613217565b919050565b600067ffffffffffffffff82111561327e5761327d6131e8565b5b61328782613047565b9050602081019050919050565b82818337600083830152505050565b60006132b66132b184613263565b613248565b9050828152602081018484840111156132d2576132d16131e3565b5b6132dd848285613294565b509392505050565b600082601f8301126132fa576132f96131de565b5b813561330a8482602086016132a3565b91505092915050565b6000819050919050565b61332681613313565b811461333157600080fd5b50565b6000813590506133438161331d565b92915050565b600060ff82169050919050565b61335f81613349565b811461336a57600080fd5b50565b60008135905061337c81613356565b92915050565b600080600080600060a0868803121561339e5761339d612f33565b5b60006133ac88828901613189565b955050602086013567ffffffffffffffff8111156133cd576133cc612f38565b5b6133d9888289016132e5565b94505060406133ea88828901613334565b93505060606133fb88828901613334565b925050608061340c8882890161336d565b9150509295509295909350565b600081519050919050565b600082825260208201905092915050565b600061344082613419565b61344a8185613424565b935061345a818560208601613014565b61346381613047565b840191505092915050565b600060208201905081810360008301526134888184613435565b905092915050565b613499816130b3565b82525050565b60006020820190506134b46000830184613490565b92915050565b6000602082840312156134d0576134cf612f33565b5b60006134de84828501613189565b91505092915050565b6134f081613313565b82525050565b600060208201905061350b60008301846134e7565b92915050565b600067ffffffffffffffff82111561352c5761352b6131e8565b5b61353582613047565b9050602081019050919050565b600061355561355084613511565b613248565b905082815260208101848484011115613571576135706131e3565b5b61357c848285613294565b509392505050565b600082601f830112613599576135986131de565b5b81356135a9848260208601613542565b91505092915050565b600080604083850312156135c9576135c8612f33565b5b600083013567ffffffffffffffff8111156135e7576135e6612f38565b5b6135f385828601613584565b925050602083013567ffffffffffffffff81111561361457613613612f38565b5b61362085828601613584565b9150509250929050565b600060608201905081810360008301526136448186613058565b905081810360208301526136588185613058565b90506136676040830184612fce565b949350505050565b60008060006060848603121561368857613687612f33565b5b600061369686828701613189565b93505060206136a786828701613189565b92505060406136b8868287016130d4565b9150509250925092565b600080fd5b600080fd5b60008083601f8401126136e2576136e16131de565b5b8235905067ffffffffffffffff8111156136ff576136fe6136c2565b5b60208301915083600182028301111561371b5761371a6136c7565b5b9250929050565b6000806000806040858703121561373c5761373b612f33565b5b600085013567ffffffffffffffff81111561375a57613759612f38565b5b613766878288016136cc565b9450945050602085013567ffffffffffffffff81111561378957613788612f38565b5b613795878288016136cc565b925092505092959194509250565b6000806000806000806000806080898b0312156137c3576137c2612f33565b5b600089013567ffffffffffffffff8111156137e1576137e0612f38565b5b6137ed8b828c016136cc565b9850985050602089013567ffffffffffffffff8111156138105761380f612f38565b5b61381c8b828c016136cc565b9650965050604089013567ffffffffffffffff81111561383f5761383e612f38565b5b61384b8b828c016136cc565b9450945050606089013567ffffffffffffffff81111561386e5761386d612f38565b5b61387a8b828c016136cc565b92509250509295985092959890939650565b61389581612fc2565b81146138a057600080fd5b50565b6000813590506138b28161388c565b92915050565b600080604083850312156138cf576138ce612f33565b5b60006138dd85828601613189565b92505060206138ee858286016138a3565b9150509250929050565b60008083601f84011261390e5761390d6131de565b5b8235905067ffffffffffffffff81111561392b5761392a6136c2565b5b602083019150836001820283011115613947576139466136c7565b5b9250929050565b60008060008060006080868803121561396a57613969612f33565b5b600061397888828901613189565b955050602061398988828901613189565b945050604061399a888289016130d4565b935050606086013567ffffffffffffffff8111156139bb576139ba612f38565b5b6139c7888289016138f8565b92509250509295509295909350565b600080600080600080606087890312156139f3576139f2612f33565b5b600087013567ffffffffffffffff811115613a1157613a10612f38565b5b613a1d89828a016136cc565b9650965050602087013567ffffffffffffffff811115613a4057613a3f612f38565b5b613a4c89828a016136cc565b9450945050604087013567ffffffffffffffff811115613a6f57613a6e612f38565b5b613a7b89828a016136cc565b92509250509295509295509295565b6000819050919050565b6000613aaf613aaa613aa584613116565b613a8a565b613116565b9050919050565b6000613ac182613a94565b9050919050565b6000613ad382613ab6565b9050919050565b613ae381613ac8565b82525050565b6000602082019050613afe6000830184613ada565b92915050565b60008060408385031215613b1b57613b1a612f33565b5b6000613b2985828601613189565b9250506020613b3a85828601613189565b9150509250929050565b7f4e487b7100000000000000000000000000000000000000000000000000000000600052602260045260246000fd5b60006002820490506001821680613b8b57607f821691505b60208210811415613b9f57613b9e613b44565b5b50919050565b7f4552433732313a20617070726f76656420717565727920666f72206e6f6e657860008201527f697374656e7420746f6b656e0000000000000000000000000000000000000000602082015250565b6000613c01602c83613003565b9150613c0c82613ba5565b604082019050919050565b60006020820190508181036000830152613c3081613bf4565b9050919050565b7f4552433732313a20617070726f76616c20746f2063757272656e74206f776e6560008201527f7200000000000000000000000000000000000000000000000000000000000000602082015250565b6000613c93602183613003565b9150613c9e82613c37565b604082019050919050565b60006020820190508181036000830152613cc281613c86565b9050919050565b7f4552433732313a20617070726f76652063616c6c6572206973206e6f74206f7760008201527f6e6572206e6f7220617070726f76656420666f7220616c6c0000000000000000602082015250565b6000613d25603883613003565b9150613d3082613cc9565b604082019050919050565b60006020820190508181036000830152613d5481613d18565b9050919050565b7f5369676e657220616e64207369676e617475726520646f206e6f74206d61746360008201527f6800000000000000000000000000000000000000000000000000000000000000602082015250565b6000613db7602183613003565b9150613dc282613d5b565b604082019050919050565b60006020820190508181036000830152613de681613daa565b9050919050565b6000613df882613116565b9050919050565b613e0881613ded565b82525050565b6000606082019050613e236000830186613148565b613e306020830185613dff565b8181036040830152613e428184613435565b9050949350505050565b600081905092915050565b6000613e6282613419565b613e6c8185613e4c565b9350613e7c818560208601613014565b80840191505092915050565b60008160601b9050919050565b6000613ea082613e88565b9050919050565b6000613eb282613e95565b9050919050565b613eca613ec582613136565b613ea7565b82525050565b6000613edc8285613e57565b9150613ee88284613eb9565b6014820191508190509392505050565b6000613f048284613e57565b915081905092915050565b7f46756e6374696f6e2063616c6c206e6f74207375636365737366756c00000000600082015250565b6000613f45601c83613003565b9150613f5082613f0f565b602082019050919050565b60006020820190508181036000830152613f7481613f38565b9050919050565b7f4e487b7100000000000000000000000000000000000000000000000000000000600052601160045260246000fd5b6000613fb5826130b3565b9150613fc0836130b3565b925082821015613fd357613fd2613f7b565b5b828203905092915050565b7f4f776e61626c653a2063616c6c6572206973206e6f7420746865206f776e6572600082015250565b6000614014602083613003565b915061401f82613fde565b602082019050919050565b6000602082019050818103600083015261404381614007565b9050919050565b600060608201905061405f6000830186613148565b61406c6020830185613148565b6140796040830184613490565b949350505050565b50565b6000614091600083613003565b915061409c82614081565b600082019050919050565b60006080820190506140bc6000830186613148565b6140c96020830185613148565b6140d66040830184613490565b81810360608301526140e781614084565b9050949350505050565b60006140fd8385613003565b935061410a838584613294565b61411383613047565b840190509392505050565b600060408201905081810360008301526141398186886140f1565b9050818103602083015261414e8184866140f1565b905095945050505050565b60006080820190508181036000830152614174818a8c6140f1565b9050818103602083015261418981888a6140f1565b9050818103604083015261419e8186886140f1565b905081810360608301526141b38184866140f1565b90509998505050505050505050565b7f4552433732313a206f776e657220717565727920666f72206e6f6e657869737460008201527f656e7420746f6b656e0000000000000000000000000000000000000000000000602082015250565b600061421e602983613003565b9150614229826141c2565b604082019050919050565b6000602082019050818103600083015261424d81614211565b9050919050565b7f4552433732313a2062616c616e636520717565727920666f7220746865207a6560008201527f726f206164647265737300000000000000000000000000000000000000000000602082015250565b60006142b0602a83613003565b91506142bb82614254565b604082019050919050565b600060208201905081810360008301526142df816142a3565b9050919050565b60006142f28385613424565b93506142ff838584613294565b61430883613047565b840190509392505050565b60006080820190506143286000830188613148565b6143356020830187613148565b6143426040830186613490565b81810360608301526143558184866142e6565b90509695505050505050565b600081905092915050565b600061437782612ff8565b6143818185614361565b9350614391818560208601613014565b80840191505092915050565b60006143a9828561436c565b91506143b5828461436c565b91508190509392505050565b60006143cd8385614361565b93506143da838584613294565b82840190509392505050565b60006143f38284866143c1565b91508190509392505050565b600061440a82613136565b9050919050565b61441a816143ff565b811461442557600080fd5b50565b60008151905061443781614411565b92915050565b60006020828403121561445357614452612f33565b5b600061446184828501614428565b91505092915050565b7f4f776e61626c653a206e6577206f776e657220697320746865207a65726f206160008201527f6464726573730000000000000000000000000000000000000000000000000000602082015250565b60006144c6602683613003565b91506144d18261446a565b604082019050919050565b600060208201905081810360008301526144f5816144b9565b9050919050565b7f4e61746976654d6574615472616e73616374696f6e3a20494e56414c49445f5360008201527f49474e4552000000000000000000000000000000000000000000000000000000602082015250565b6000614558602583613003565b9150614563826144fc565b604082019050919050565b600060208201905081810360008301526145878161454b565b9050919050565b61459781613349565b82525050565b60006080820190506145b260008301876134e7565b6145bf602083018661458e565b6145cc60408301856134e7565b6145d960608301846134e7565b95945050505050565b60006145ed826130b3565b91506145f8836130b3565b9250827fffffffffffffffffffffffffffffffffffffffffffffffffffffffffffffffff0382111561462d5761462c613f7b565b5b828201905092915050565b7f4552433732313a207472616e736665722063616c6c6572206973206e6f74206f60008201527f776e6572206e6f7220617070726f766564000000000000000000000000000000602082015250565b6000614694603183613003565b915061469f82614638565b604082019050919050565b600060208201905081810360008301526146c381614687565b9050919050565b60006146d6828461436c565b915081905092915050565b7f6d6574686f64206e6f7420726567697374657265640000000000000000000000600082015250565b6000614717601583613003565b9150614722826146e1565b602082019050919050565b600060208201905081810360008301526147468161470a565b9050919050565b60008190508160005260206000209050919050565b6000815461476f81613b73565b6147798186613003565b9450600182166000811461479457600181146147a6576147d9565b60ff19831686526020860193506147d9565b6147af8561474d565b60005b838110156147d1578154818901526001820191506020810190506147b2565b808801955050505b50505092915050565b600060808201905081810360008301526147fc8187613058565b905081810360208301526148108186614762565b905081810360408301526148248185614762565b905081810360608301526148388184613435565b905095945050505050565b7f4552433732313a20617070726f766520746f2063616c6c657200000000000000600082015250565b6000614879601983613003565b915061488482614843565b602082019050919050565b600060208201905081810360008301526148a88161486c565b9050919050565b60006148ba826130b3565b91507fffffffffffffffffffffffffffffffffffffffffffffffffffffffffffffffff8214156148ed576148ec613f7b565b5b600182019050919050565b7f4e487b7100000000000000000000000000000000000000000000000000000000600052601260045260246000fd5b6000614932826130b3565b915061493d836130b3565b92508261494d5761494c6148f8565b5b828204905092915050565b6000614963826130b3565b915061496e836130b3565b92508261497e5761497d6148f8565b5b828206905092915050565b7f4e487b7100000000000000000000000000000000000000000000000000000000600052603260045260246000fd5b60006080820190506149cd60008301876134e7565b6149da6020830186613490565b6149e76040830185613148565b6149f460608301846134e7565b95945050505050565b7f1901000000000000000000000000000000000000000000000000000000000000600082015250565b6000614a33600283614361565b9150614a3e826149fd565b600282019050919050565b6000819050919050565b614a64614a5f82613313565b614a49565b82525050565b6000614a7582614a26565b9150614a818285614a53565b602082019150614a918284614a53565b6020820191508190509392505050565b7f4552433732313a206f70657261746f7220717565727920666f72206e6f6e657860008201527f697374656e7420746f6b656e0000000000000000000000000000000000000000602082015250565b6000614afd602c83613003565b9150614b0882614aa1565b604082019050919050565b60006020820190508181036000830152614b2c81614af0565b9050919050565b7f4552433732313a207472616e73666572206f6620746f6b656e2074686174206960008201527f73206e6f74206f776e0000000000000000000000000000000000000000000000602082015250565b6000614b8f602983613003565b9150614b9a82614b33565b604082019050919050565b60006020820190508181036000830152614bbe81614b82565b9050919050565b7f4552433732313a207472616e7366657220746f20746865207a65726f2061646460008201527f7265737300000000000000000000000000000000000000000000000000000000602082015250565b6000614c21602483613003565b9150614c2c82614bc5565b604082019050919050565b60006020820190508181036000830152614c5081614c14565b9050919050565b7f4552433732313a207472616e7366657220746f206e6f6e20455243373231526560008201527f63656976657220696d706c656d656e7465720000000000000000000000000000602082015250565b6000614cb3603283613003565b9150614cbe82614c57565b604082019050919050565b60006020820190508181036000830152614ce281614ca6565b9050919050565b6000608082019050614cfe6000830187613148565b614d0b6020830186613148565b614d186040830185613490565b8181036060830152614d2a8184613435565b905095945050505050565b600081519050614d4481612f69565b92915050565b600060208284031215614d6057614d5f612f33565b5b6000614d6e84828501614d35565b91505092915050565b7f4552433732313a206d696e7420746f20746865207a65726f2061646472657373600082015250565b6000614dad602083613003565b9150614db882614d77565b602082019050919050565b60006020820190508181036000830152614ddc81614da0565b9050919050565b7f4552433732313a20746f6b656e20616c7265616479206d696e74656400000000600082015250565b6000614e19601c83613003565b9150614e2482614de3565b602082019050919050565b60006020820190508181036000830152614e4881614e0c565b905091905056fe4d6574615472616e73616374696f6e2875696e74323536206e6f6e63652c616464726573732066726f6d2c62797465732066756e6374696f6e5369676e61747572652968747470733a2f2f6b696e672d686f6e6f722d6e66742e6f73732d636e2d6265696a696e672e616c6979756e63732e636f6d2f636f6e74726163742e6a736f6e68747470733a2f2f6b696e672d686f6e6f722d6e66742e6f73732d636e2d6265696a696e672e616c6979756e63732e636f6d2fa26469706673582212200d3aee30a801356466ccbdca90677704ac1c6a4322b8e445472be8c9641049cb64736f6c634300080a0033454950373132446f6d61696e28737472696e67206e616d652c737472696e672076657273696f6e2c6164647265737320766572696679696e67436f6e74726163742c627974657333322073616c7429",
  "immutableReferences": {},
  "source": "// SPDX-License-Identifier: MIT\n\npragma solidity ^0.8.0;\n\nimport \"./ERC721Tradable.sol\";\nimport \"./ConsumerBase.sol\";\n\nstring constant TO_CHAIN = \"ETHEREUM\";\n\n/**\n * @title Creature\n * Creature - a contract for my non-fungible creatures.\n */\ncontract KingHonorNFT is ERC721Tradable, ConsumerBase {\n    constructor(\n        string memory _name,\n        string memory _symbol,\n        address _proxyRegistryAddress)\n        ERC721Tradable(_name, _name, _proxyRegistryAddress)\n    {}\n\n    function baseTokenURI() override public pure returns (string memory) {\n        return \"https://king-honor-nft.oss-cn-beijing.aliyuncs.com/\";\n    }\n\n    function contractURI() public pure returns (string memory) {\n        return \"https://king-honor-nft.oss-cn-beijing.aliyuncs.com/contract.json\";\n    }\n\n    /**\n     * This is used instead of msg.sender as transactions won't be sent by the original token owner, but by OpenSea.\n     */\n    function _msgSender()\n        internal\n        override\n        view\n        returns (address sender)\n    {\n        return ContextMixin.msgSender();\n    }\n\n    function crossChainCall(string memory _toChain, string memory _methodName, bytes memory _data) internal {\n        mapping(string => DestinationMethod) storage map = methodMap[_toChain];\n        DestinationMethod storage method = map[_methodName];\n        require(method.used, \"method not registered\");\n\n        crossChainContract.sendMessage(_toChain, method.contractAddress, method.methodName, _data);\n    }\n\n    function mintTo(address _to) public override onlyOwner {\n        super.mintTo(_to);\n\n        bytes memory data = abi.encode(_to);\n        crossChainCall(TO_CHAIN, \"mintTo\", data);\n    }\n\n    function transferFrom(address from, address to, uint256 tokenId) public override {\n        super.transferFrom(from, to, tokenId);\n\n        bytes memory data = abi.encode(from, to, tokenId);\n        crossChainCall(TO_CHAIN, \"transferFrom\", data);\n    }\n\n    function safeTransferFrom(address from, address to, uint256 tokenId) public override {\n        super.safeTransferFrom(from, to, tokenId, \"\");\n\n        bytes memory data = abi.encode(from, to, tokenId, \"\");\n        crossChainCall(TO_CHAIN, \"safeTransferFrom\", data);\n    }\n\n    function safeTransferFrom(address from, address to, uint256 tokenId, bytes calldata _data) public override {\n        super.safeTransferFrom(from, to, tokenId, _data);\n\n        bytes memory data = abi.encode(from, to, tokenId, _data);\n        crossChainCall(TO_CHAIN, \"safeTransferFrom\", data);\n    }\n}",
  "sourcePath": "/home/ubuntu/hthuang/KingHonorNFT/platon/contracts/KingHonorNFT.sol",
  "compiler": {
    "name": "solc",
    "version": "0.8.10+commit.fc410830.Emscripten.clang"
  },
  "schemaVersion": "3.4.3",
  "updatedAt": "2022-02-04T13:25:35.687Z",
  "networkType": "ethereum",
  "devdoc": {
    "kind": "dev",
    "methods": {
      "approve(address,uint256)": {
        "details": "See {IERC721-approve}."
      },
      "balanceOf(address)": {
        "details": "See {IERC721-balanceOf}."
      },
      "getApproved(uint256)": {
        "details": "See {IERC721-getApproved}."
      },
      "mintTo(address)": {
        "details": "Mints a token to an address with a tokenURI.",
        "params": {
          "_to": "address of the future owner of the token"
        }
      },
      "name()": {
        "details": "See {IERC721Metadata-name}."
      },
      "owner()": {
        "details": "Returns the address of the current owner."
      },
      "ownerOf(uint256)": {
        "details": "See {IERC721-ownerOf}."
      },
      "renounceOwnership()": {
        "details": "Leaves the contract without owner. It will not be possible to call `onlyOwner` functions anymore. Can only be called by the current owner. NOTE: Renouncing ownership will leave the contract without an owner, thereby removing any functionality that is only available to the owner."
      },
      "safeTransferFrom(address,address,uint256)": {
        "details": "See {IERC721-safeTransferFrom}."
      },
      "safeTransferFrom(address,address,uint256,bytes)": {
        "details": "See {IERC721-safeTransferFrom}."
      },
      "setApprovalForAll(address,bool)": {
        "details": "See {IERC721-setApprovalForAll}."
      },
      "supportsInterface(bytes4)": {
        "details": "See {IERC165-supportsInterface}."
      },
      "symbol()": {
        "details": "See {IERC721Metadata-symbol}."
      },
      "totalSupply()": {
        "details": "Returns the total tokens minted so far. 1 is always subtracted from the Counter since it tracks the next available tokenId."
      },
      "transferFrom(address,address,uint256)": {
        "details": "See {IERC721-transferFrom}."
      },
      "transferOwnership(address)": {
        "details": "Transfers ownership of the contract to a new account (`newOwner`). Can only be called by the current owner."
      }
    },
    "title": "Creature Creature - a contract for my non-fungible creatures.",
    "version": 1
  },
  "userdoc": {
    "kind": "user",
    "methods": {
      "isApprovedForAll(address,address)": {
        "notice": "Override isApprovedForAll to whitelist user's OpenSea proxy accounts to enable gas-less listings."
      }
    },
    "version": 1
  }
}