{
  "contractName": "MultiPorterCrossChain",
  "abi": [
    {
      "anonymous": false,
      "inputs": [
        {
          "indexed": true,
          "internalType": "address",
          "name": "previousOwner",
          "type": "address"
        },
        {
          "indexed": true,
          "internalType": "address",
          "name": "newOwner",
          "type": "address"
        }
      ],
      "name": "OwnershipTransferred",
      "type": "event"
    },
    {
      "inputs": [
        {
          "internalType": "string",
          "name": "",
          "type": "string"
        }
      ],
      "name": "availableReceivedMessageIndexTable",
      "outputs": [
        {
          "internalType": "uint256",
          "name": "",
          "type": "uint256"
        }
      ],
      "stateMutability": "view",
      "type": "function",
      "constant": true
    },
    {
      "inputs": [
        {
          "internalType": "address[]",
          "name": "_porters",
          "type": "address[]"
        },
        {
          "internalType": "uint256",
          "name": "_requirement",
          "type": "uint256"
        }
      ],
      "name": "changePortersAndRequirement",
      "outputs": [],
      "stateMutability": "nonpayable",
      "type": "function"
    },
    {
      "inputs": [
        {
          "internalType": "string",
          "name": "_chainName",
          "type": "string"
        },
        {
          "internalType": "uint256",
          "name": "_id",
          "type": "uint256"
        }
      ],
      "name": "executeMessage",
      "outputs": [],
      "stateMutability": "nonpayable",
      "type": "function"
    },
    {
      "inputs": [
        {
          "internalType": "string[]",
          "name": "_chainNames",
          "type": "string[]"
        }
      ],
      "name": "getExecutableMessages",
      "outputs": [
        {
          "components": [
            {
              "internalType": "uint256",
              "name": "id",
              "type": "uint256"
            },
            {
              "internalType": "string",
              "name": "fromChain",
              "type": "string"
            },
            {
              "internalType": "string",
              "name": "sender",
              "type": "string"
            },
            {
              "internalType": "address",
              "name": "contractAddress",
              "type": "address"
            },
            {
              "internalType": "string",
              "name": "action",
              "type": "string"
            },
            {
              "internalType": "bytes",
              "name": "data",
              "type": "bytes"
            },
            {
              "internalType": "bool",
              "name": "executed",
              "type": "bool"
            },
            {
              "internalType": "uint256",
              "name": "errorCode",
              "type": "uint256"
            }
          ],
          "internalType": "struct ReceivedMessage[]",
          "name": "",
          "type": "tuple[]"
        }
      ],
      "stateMutability": "view",
      "type": "function",
      "constant": true
    },
    {
      "inputs": [
        {
          "internalType": "string",
          "name": "_chainName",
          "type": "string"
        }
      ],
      "name": "getMsgPortingTask",
      "outputs": [
        {
          "internalType": "uint256",
          "name": "",
          "type": "uint256"
        }
      ],
      "stateMutability": "view",
      "type": "function",
      "constant": true
    },
    {
      "inputs": [
        {
          "internalType": "string",
          "name": "_chainName",
          "type": "string"
        },
        {
          "internalType": "uint256",
          "name": "_id",
          "type": "uint256"
        }
      ],
      "name": "getReceivedMessage",
      "outputs": [
        {
          "components": [
            {
              "internalType": "uint256",
              "name": "id",
              "type": "uint256"
            },
            {
              "internalType": "string",
              "name": "fromChain",
              "type": "string"
            },
            {
              "internalType": "string",
              "name": "sender",
              "type": "string"
            },
            {
              "internalType": "address",
              "name": "contractAddress",
              "type": "address"
            },
            {
              "internalType": "string",
              "name": "action",
              "type": "string"
            },
            {
              "internalType": "bytes",
              "name": "data",
              "type": "bytes"
            },
            {
              "internalType": "bool",
              "name": "executed",
              "type": "bool"
            },
            {
              "internalType": "uint256",
              "name": "errorCode",
              "type": "uint256"
            }
          ],
          "internalType": "struct ReceivedMessage",
          "name": "",
          "type": "tuple"
        }
      ],
      "stateMutability": "view",
      "type": "function",
      "constant": true
    },
    {
      "inputs": [
        {
          "internalType": "string",
          "name": "_chainName",
          "type": "string"
        }
      ],
      "name": "getReceivedMessageNumber",
      "outputs": [
        {
          "internalType": "uint256",
          "name": "",
          "type": "uint256"
        }
      ],
      "stateMutability": "view",
      "type": "function",
      "constant": true
    },
    {
      "inputs": [
        {
          "internalType": "string",
          "name": "_chainName",
          "type": "string"
        },
        {
          "internalType": "uint256",
          "name": "_id",
          "type": "uint256"
        }
      ],
      "name": "getSentMessage",
      "outputs": [
        {
          "components": [
            {
              "internalType": "uint256",
              "name": "id",
              "type": "uint256"
            },
            {
              "internalType": "string",
              "name": "fromChain",
              "type": "string"
            },
            {
              "internalType": "string",
              "name": "toChain",
              "type": "string"
            },
            {
              "internalType": "address",
              "name": "sender",
              "type": "address"
            },
            {
              "components": [
                {
                  "internalType": "string",
                  "name": "contractAddress",
                  "type": "string"
                },
                {
                  "internalType": "string",
                  "name": "action",
                  "type": "string"
                },
                {
                  "components": [
                    {
                      "internalType": "bytes",
                      "name": "arguments",
                      "type": "bytes"
                    }
                  ],
                  "internalType": "struct Data",
                  "name": "data",
                  "type": "tuple"
                }
              ],
              "internalType": "struct Content",
              "name": "content",
              "type": "tuple"
            }
          ],
          "internalType": "struct SentMessage",
          "name": "",
          "type": "tuple"
        }
      ],
      "stateMutability": "view",
      "type": "function",
      "constant": true
    },
    {
      "inputs": [
        {
          "internalType": "string",
          "name": "_chainName",
          "type": "string"
        }
      ],
      "name": "getSentMessageNumber",
      "outputs": [
        {
          "internalType": "uint256",
          "name": "",
          "type": "uint256"
        }
      ],
      "stateMutability": "view",
      "type": "function",
      "constant": true
    },
    {
      "inputs": [
        {
          "internalType": "address",
          "name": "",
          "type": "address"
        },
        {
          "internalType": "string",
          "name": "",
          "type": "string"
        }
      ],
      "name": "interfaces",
      "outputs": [
        {
          "internalType": "string",
          "name": "",
          "type": "string"
        }
      ],
      "stateMutability": "view",
      "type": "function",
      "constant": true
    },
    {
      "inputs": [
        {
          "internalType": "address",
          "name": "",
          "type": "address"
        }
      ],
      "name": "isPorter",
      "outputs": [
        {
          "internalType": "bool",
          "name": "",
          "type": "bool"
        }
      ],
      "stateMutability": "view",
      "type": "function",
      "constant": true
    },
    {
      "inputs": [],
      "name": "messageSender",
      "outputs": [
        {
          "internalType": "address",
          "name": "",
          "type": "address"
        }
      ],
      "stateMutability": "view",
      "type": "function",
      "constant": true
    },
    {
      "inputs": [],
      "name": "owner",
      "outputs": [
        {
          "internalType": "address",
          "name": "",
          "type": "address"
        }
      ],
      "stateMutability": "view",
      "type": "function",
      "constant": true
    },
    {
      "inputs": [
        {
          "internalType": "uint256",
          "name": "",
          "type": "uint256"
        }
      ],
      "name": "porters",
      "outputs": [
        {
          "internalType": "address",
          "name": "",
          "type": "address"
        }
      ],
      "stateMutability": "view",
      "type": "function",
      "constant": true
    },
    {
      "inputs": [
        {
          "internalType": "string",
          "name": "_funcName",
          "type": "string"
        },
        {
          "internalType": "string",
          "name": "_interface",
          "type": "string"
        }
      ],
      "name": "registerInterface",
      "outputs": [],
      "stateMutability": "nonpayable",
      "type": "function"
    },
    {
      "inputs": [
        {
          "internalType": "string",
          "name": "_funcName",
          "type": "string"
        },
        {
          "internalType": "string",
          "name": "_abiString",
          "type": "string"
        },
        {
          "internalType": "string",
          "name": "_paramName",
          "type": "string"
        },
        {
          "internalType": "string",
          "name": "_paramType",
          "type": "string"
        }
      ],
      "name": "registerTarget",
      "outputs": [],
      "stateMutability": "nonpayable",
      "type": "function"
    },
    {
      "inputs": [],
      "name": "renounceOwnership",
      "outputs": [],
      "stateMutability": "nonpayable",
      "type": "function"
    },
    {
      "inputs": [],
      "name": "required",
      "outputs": [
        {
          "internalType": "uint256",
          "name": "",
          "type": "uint256"
        }
      ],
      "stateMutability": "view",
      "type": "function",
      "constant": true
    },
    {
      "inputs": [
        {
          "internalType": "string",
          "name": "_toChain",
          "type": "string"
        },
        {
          "internalType": "string",
          "name": "_contractAddress",
          "type": "string"
        },
        {
          "internalType": "string",
          "name": "_methodName",
          "type": "string"
        },
        {
          "internalType": "bytes",
          "name": "_data",
          "type": "bytes"
        }
      ],
      "name": "sendMessage",
      "outputs": [],
      "stateMutability": "nonpayable",
      "type": "function"
    },
    {
      "inputs": [
        {
          "internalType": "address",
          "name": "_address",
          "type": "address"
        }
      ],
      "name": "setTokenContract",
      "outputs": [],
      "stateMutability": "nonpayable",
      "type": "function"
    },
    {
      "inputs": [
        {
          "internalType": "address",
          "name": "",
          "type": "address"
        },
        {
          "internalType": "string",
          "name": "",
          "type": "string"
        }
      ],
      "name": "targets",
      "outputs": [
        {
          "internalType": "string",
          "name": "abiString",
          "type": "string"
        },
        {
          "internalType": "string",
          "name": "parameterNamesString",
          "type": "string"
        },
        {
          "internalType": "string",
          "name": "parametertypesString",
          "type": "string"
        }
      ],
      "stateMutability": "view",
      "type": "function",
      "constant": true
    },
    {
      "inputs": [],
      "name": "tokenContract",
      "outputs": [
        {
          "internalType": "contract DanteToken",
          "name": "",
          "type": "address"
        }
      ],
      "stateMutability": "view",
      "type": "function",
      "constant": true
    },
    {
      "inputs": [
        {
          "internalType": "address",
          "name": "newOwner",
          "type": "address"
        }
      ],
      "name": "transferOwnership",
      "outputs": [],
      "stateMutability": "nonpayable",
      "type": "function"
    },
    {
      "inputs": [],
      "name": "verifyContract",
      "outputs": [
        {
          "internalType": "contract MessageVerify",
          "name": "",
          "type": "address"
        }
      ],
      "stateMutability": "view",
      "type": "function",
      "constant": true
    },
    {
      "inputs": [
        {
          "internalType": "address",
          "name": "_address",
          "type": "address"
        }
      ],
      "name": "setVerifyContract",
      "outputs": [],
      "stateMutability": "nonpayable",
      "type": "function"
    },
    {
      "inputs": [
        {
          "internalType": "uint256",
          "name": "_id",
          "type": "uint256"
        },
        {
          "internalType": "string",
          "name": "_fromChain",
          "type": "string"
        },
        {
          "internalType": "uint256",
          "name": "_errorCode",
          "type": "uint256"
        }
      ],
      "name": "abandonMessage",
      "outputs": [],
      "stateMutability": "nonpayable",
      "type": "function"
    },
    {
      "inputs": [
        {
          "internalType": "uint256",
          "name": "_id",
          "type": "uint256"
        },
        {
          "internalType": "string",
          "name": "_fromChain",
          "type": "string"
        },
        {
          "internalType": "string",
          "name": "_sender",
          "type": "string"
        },
        {
          "internalType": "address",
          "name": "_to",
          "type": "address"
        },
        {
          "internalType": "string",
          "name": "_action",
          "type": "string"
        },
        {
          "internalType": "bytes",
          "name": "_data",
          "type": "bytes"
        }
      ],
      "name": "receiveMessage",
      "outputs": [],
      "stateMutability": "nonpayable",
      "type": "function"
    },
    {
      "inputs": [
        {
          "internalType": "string",
          "name": "_toChain",
          "type": "string"
        }
      ],
      "name": "clearCrossChainMessage",
      "outputs": [],
      "stateMutability": "nonpayable",
      "type": "function"
    }
  ],
  "bytecode": "0x60806040523480156200001157600080fd5b5062000032620000266200003860201b60201c565b6200004060201b60201c565b62000104565b600033905090565b60008060009054906101000a900473ffffffffffffffffffffffffffffffffffffffff169050816000806101000a81548173ffffffffffffffffffffffffffffffffffffffff021916908373ffffffffffffffffffffffffffffffffffffffff1602179055508173ffffffffffffffffffffffffffffffffffffffff168173ffffffffffffffffffffffffffffffffffffffff167f8be0079c531659141344cd1fd0a4f28419497f9722a3daafe3b4186f6b6457e060405160405180910390a35050565b6156b880620001146000396000f3fe608060405234801561001057600080fd5b50600436106101c45760003560e01c8063909b2647116100f9578063c383221411610097578063dc8452cd11610071578063dc8452cd14610515578063debcd46e14610533578063f2fde38b14610563578063fe2c9c191461057f576101c4565b8063c3832214146104ab578063ce700e80146104db578063d67bdd25146104f7576101c4565b8063a0d948ea116100d3578063a0d948ea14610425578063a6806f6514610443578063b244244b1461045f578063bbcd5bbe1461048f576101c4565b8063909b2647146103a95780639da9ef33146103d95780639ebc33e4146103f5576101c4565b80634c2be98f11610166578063729518fc11610140578063729518fc1461030d5780637d3fd379146103295780638da5cb5b1461035b5780638e3db31314610379576101c4565b80634c2be98f146102b557806355a373d6146102e5578063715018a614610303576101c4565b8063320befc8116101a2578063320befc814610245578063358e47f5146102615780634380aa3a1461027d5780634540658414610299576101c4565b8063086615c2146101c95780631585f9d0146101f9578063285fcbdb14610229575b600080fd5b6101e360048036038101906101de91906134e8565b6105af565b6040516101f0919061354e565b60405180910390f35b610213600480360381019061020e9190613708565b6105e2565b60405161022091906137ec565b60405180910390f35b610243600480360381019061023e9190613890565b6106a5565b005b61025f600480360381019061025a91906134e8565b610bab565b005b61027b600480360381019061027691906139a0565b610c57565b005b61029760048036038101906102929190613a14565b610f51565b005b6102b360048036038101906102ae9190613a95565b610fca565b005b6102cf60048036038101906102ca9190613b7e565b61117e565b6040516102dc9190613bba565b60405180910390f35b6102ed6111bd565b6040516102fa9190613c34565b60405180910390f35b61030b6111e3565b005b61032760048036038101906103229190613c4f565b61126b565b005b610343600480360381019061033e9190613708565b6114ce565b60405161035293929190613d38565b60405180910390f35b6103636116b3565b6040516103709190613bba565b60405180910390f35b610393600480360381019061038e9190613d84565b6116dc565b6040516103a09190613fad565b60405180910390f35b6103c360048036038101906103be9190614025565b611aa0565b6040516103d09190614214565b60405180910390f35b6103f360048036038101906103ee919061428c565b611fd6565b005b61040f600480360381019061040a91906142ec565b6122c0565b60405161041c9190614328565b60405180910390f35b61042d6122e0565b60405161043a9190614364565b60405180910390f35b61045d600480360381019061045891906142ec565b612306565b005b6104796004803603810190610474919061437f565b6123c6565b604051610486919061354e565b60405180910390f35b6104a960048036038101906104a491906142ec565b6123f4565b005b6104c560048036038101906104c09190613d84565b6124b4565b6040516104d2919061448d565b60405180910390f35b6104f560048036038101906104f09190613d84565b6127e4565b005b6104ff612aa3565b60405161050c9190613bba565b60405180910390f35b61051d612ac9565b60405161052a919061354e565b60405180910390f35b61054d600480360381019061054891906134e8565b612acf565b60405161055a919061354e565b60405180910390f35b61057d600480360381019061057891906142ec565b612b02565b005b610599600480360381019061059491906134e8565b612bfa565b6040516105a6919061354e565b60405180910390f35b600080600584846040516105c49291906144df565b90815260200160405180910390209050808054905091505092915050565b60026020528160005260406000208180516020810182018051848252602083016020850120818352809550505050505060009150915050805461062490614527565b80601f016020809104026020016040519081016040528092919081815260200182805461065090614527565b801561069d5780601f106106725761010080835404028352916020019161069d565b820191906000526020600020905b81548152906001019060200180831161068057829003601f168201915b505050505081565b600960003373ffffffffffffffffffffffffffffffffffffffff1673ffffffffffffffffffffffffffffffffffffffff16815260200190815260200160002060009054906101000a900460ff16610731576040517f08c379a0000000000000000000000000000000000000000000000000000000008152600401610728906145cb565b60405180910390fd5b6000600b8a8a6040516107459291906144df565b9081526020016040518091039020905060018180549050610766919061461a565b8b11156107a8576040517f08c379a000000000000000000000000000000000000000000000000000000000815260040161079f906146e2565b60405180910390fd5b6000600182805490506107bb919061461a565b8c14156107e4578160018160018154018082558091505003906000526020600020019050610810565b8160018d6107f29190614702565b8154811061080357610802614736565b5b9060005260206000200190505b60005b81805490508110156108e5573373ffffffffffffffffffffffffffffffffffffffff1682828154811061084957610848614736565b5b906000526020600020906009020160080160009054906101000a900473ffffffffffffffffffffffffffffffffffffffff1673ffffffffffffffffffffffffffffffffffffffff1614156108d2576040517f08c379a00000000000000000000000000000000000000000000000000000000081526004016108c9906147d7565b60405180910390fd5b80806108dd906147f7565b915050610813565b5060008160018160018154018082558091505003906000526020600020906009020190508c81600001600001819055508b8b82600001600101919061092b929190612f70565b508989826000016002019190610942929190612f70565b50878160000160030160006101000a81548173ffffffffffffffffffffffffffffffffffffffff021916908373ffffffffffffffffffffffffffffffffffffffff160217905550868682600001600401919061099f929190612f70565b5084848260000160050191906109b6929190612ff6565b50338160080160006101000a81548173ffffffffffffffffffffffffffffffffffffffff021916908373ffffffffffffffffffffffffffffffffffffffff16021790555060085482805490501415610b9c57600073ffffffffffffffffffffffffffffffffffffffff16600c60009054906101000a900473ffffffffffffffffffffffffffffffffffffffff1673ffffffffffffffffffffffffffffffffffffffff161415610a9a576040517f08c379a0000000000000000000000000000000000000000000000000000000008152600401610a919061488c565b60405180910390fd5b6000600c60009054906101000a900473ffffffffffffffffffffffffffffffffffffffff1673ffffffffffffffffffffffffffffffffffffffff1663faac4c6c8460646040518363ffffffff1660e01b8152600401610afa929190614cb1565b6000604051808303816000875af1158015610b19573d6000803e3d6000fd5b505050506040513d6000823e3d601f19601f82011682018060405250810190610b4291906150d9565b9050600081511115610b9a57600081600081518110610b6457610b63614736565b5b6020026020010151600001519050610b98816000015182602001518360400151846060015185608001518660a00151612c8c565b505b505b50505050505050505050505050565b610bb3612ddd565b73ffffffffffffffffffffffffffffffffffffffff16610bd16116b3565b73ffffffffffffffffffffffffffffffffffffffff1614610c27576040517f08c379a0000000000000000000000000000000000000000000000000000000008152600401610c1e9061516e565b60405180910390fd5b60058282604051610c399291906144df565b90815260200160405180910390206000610c53919061307c565b5050565b600960003373ffffffffffffffffffffffffffffffffffffffff1673ffffffffffffffffffffffffffffffffffffffff16815260200190815260200160002060009054906101000a900460ff16610ce3576040517f08c379a0000000000000000000000000000000000000000000000000000000008152600401610cda906145cb565b60405180910390fd5b6000600b8484604051610cf79291906144df565b9081526020016040518091039020905060018180549050610d18919061461a565b851115610d5a576040517f08c379a0000000000000000000000000000000000000000000000000000000008152600401610d51906146e2565b60405180910390fd5b600060018280549050610d6d919061461a565b861415610d96578160018160018154018082558091505003906000526020600020019050610dc2565b81600187610da49190614702565b81548110610db557610db4614736565b5b9060005260206000200190505b60005b8180549050811015610e97573373ffffffffffffffffffffffffffffffffffffffff16828281548110610dfb57610dfa614736565b5b906000526020600020906009020160080160009054906101000a900473ffffffffffffffffffffffffffffffffffffffff1673ffffffffffffffffffffffffffffffffffffffff161415610e84576040517f08c379a0000000000000000000000000000000000000000000000000000000008152600401610e7b906147d7565b60405180910390fd5b8080610e8f906147f7565b915050610dc5565b5060008160018160018154018082558091505003906000526020600020906009020190508681600001600001819055508585826000016001019190610edd929190612f70565b50838160000160070181905550338160080160006101000a81548173ffffffffffffffffffffffffffffffffffffffff021916908373ffffffffffffffffffffffffffffffffffffffff16021790555060085482805490501415610f4857610f4787878787612de5565b5b50505050505050565b6000600260003373ffffffffffffffffffffffffffffffffffffffff1673ffffffffffffffffffffffffffffffffffffffff16815260200190815260200160002090508282828787604051610fa79291906144df565b90815260200160405180910390209190610fc2929190612f70565b505050505050565b6000600160003373ffffffffffffffffffffffffffffffffffffffff1673ffffffffffffffffffffffffffffffffffffffff16815260200190815260200160002090506000604051806060016040528089898080601f016020809104026020016040519081016040528093929190818152602001838380828437600081840152601f19601f82011690508083019250505050505050815260200187878080601f016020809104026020016040519081016040528093929190818152602001838380828437600081840152601f19601f82011690508083019250505050505050815260200185858080601f016020809104026020016040519081016040528093929190818152602001838380828437600081840152601f19601f82011690508083019250505050505050815250905080828b8b60405161110a9291906144df565b908152602001604051809103902060008201518160000190805190602001906111349291906130a0565b5060208201518160010190805190602001906111519291906130a0565b50604082015181600201908051906020019061116e9291906130a0565b5090505050505050505050505050565b600a818154811061118e57600080fd5b906000526020600020016000915054906101000a900473ffffffffffffffffffffffffffffffffffffffff1681565b600360009054906101000a900473ffffffffffffffffffffffffffffffffffffffff1681565b6111eb612ddd565b73ffffffffffffffffffffffffffffffffffffffff166112096116b3565b73ffffffffffffffffffffffffffffffffffffffff161461125f576040517f08c379a00000000000000000000000000000000000000000000000000000000081526004016112569061516e565b60405180910390fd5b6112696000612eac565b565b60006005898960405161127f9291906144df565b90815260200160405180910390209050600081600181600181540180825580915050039060005260206000209060070201905081805490508160000181905550604051806060016040528089898080601f016020809104026020016040519081016040528093929190818152602001838380828437600081840152601f19601f82011690508083019250505050505050815260200187878080601f016020809104026020016040519081016040528093929190818152602001838380828437600081840152601f19601f820116905080830192505050505050508152602001604051806020016040528087878080601f016020809104026020016040519081016040528093929190818152602001838380828437600081840152601f19601f820116905080830192505050505050508152508152508160040160008201518160000190805190602001906113d49291906130a0565b5060208201518160010190805190602001906113f19291906130a0565b506040820151816002016000820151816000019080519060200190611417929190613126565b5050509050506040518060400160405280600681526020017f506c61744f4e000000000000000000000000000000000000000000000000000081525081600101908051906020019061146a9291906130a0565b50898982600201919061147e929190612f70565b50338160030160006101000a81548173ffffffffffffffffffffffffffffffffffffffff021916908373ffffffffffffffffffffffffffffffffffffffff16021790555050505050505050505050565b6001602052816000526040600020818051602081018201805184825260208301602085012081835280955050505050506000915091505080600001805461151490614527565b80601f016020809104026020016040519081016040528092919081815260200182805461154090614527565b801561158d5780601f106115625761010080835404028352916020019161158d565b820191906000526020600020905b81548152906001019060200180831161157057829003601f168201915b5050505050908060010180546115a290614527565b80601f01602080910402602001604051908101604052809291908181526020018280546115ce90614527565b801561161b5780601f106115f05761010080835404028352916020019161161b565b820191906000526020600020905b8154815290600101906020018083116115fe57829003601f168201915b50505050509080600201805461163090614527565b80601f016020809104026020016040519081016040528092919081815260200182805461165c90614527565b80156116a95780601f1061167e576101008083540402835291602001916116a9565b820191906000526020600020905b81548152906001019060200180831161168c57829003601f168201915b5050505050905083565b60008060009054906101000a900473ffffffffffffffffffffffffffffffffffffffff16905090565b6116e46131ac565b6000600585856040516116f89291906144df565b9081526020016040518091039020905080838154811061171b5761171a614736565b5b90600052602060002090600702016040518060a00160405290816000820154815260200160018201805461174e90614527565b80601f016020809104026020016040519081016040528092919081815260200182805461177a90614527565b80156117c75780601f1061179c576101008083540402835291602001916117c7565b820191906000526020600020905b8154815290600101906020018083116117aa57829003601f168201915b505050505081526020016002820180546117e090614527565b80601f016020809104026020016040519081016040528092919081815260200182805461180c90614527565b80156118595780601f1061182e57610100808354040283529160200191611859565b820191906000526020600020905b81548152906001019060200180831161183c57829003601f168201915b505050505081526020016003820160009054906101000a900473ffffffffffffffffffffffffffffffffffffffff1673ffffffffffffffffffffffffffffffffffffffff1673ffffffffffffffffffffffffffffffffffffffff168152602001600482016040518060600160405290816000820180546118d890614527565b80601f016020809104026020016040519081016040528092919081815260200182805461190490614527565b80156119515780601f1061192657610100808354040283529160200191611951565b820191906000526020600020905b81548152906001019060200180831161193457829003601f168201915b5050505050815260200160018201805461196a90614527565b80601f016020809104026020016040519081016040528092919081815260200182805461199690614527565b80156119e35780601f106119b8576101008083540402835291602001916119e3565b820191906000526020600020905b8154815290600101906020018083116119c657829003601f168201915b5050505050815260200160028201604051806020016040529081600082018054611a0c90614527565b80601f0160208091040260200160405190810160405280929190818152602001828054611a3890614527565b8015611a855780601f10611a5a57610100808354040283529160200191611a85565b820191906000526020600020905b815481529060010190602001808311611a6857829003601f168201915b50505050508152505081525050815250509150509392505050565b60606000805b84849050811015611b8c5760006006868684818110611ac857611ac7614736565b5b9050602002810190611ada919061519d565b604051611ae89291906144df565b9081526020016040518091039020905060005b8180549050811015611b77576000828281548110611b1c57611b1b614736565b5b9060005260206000209060080201905060008160070154148015611b4f57508060060160009054906101000a900460ff16155b15611b63578480611b5f906147f7565b9550505b508080611b6f906147f7565b915050611afb565b50508080611b84906147f7565b915050611aa6565b5060008167ffffffffffffffff811115611ba957611ba86135dd565b5b604051908082528060200260200182016040528015611be257816020015b611bcf6131f7565b815260200190600190039081611bc75790505b5090506000915060005b85859050811015611fca5760006006878784818110611c0e57611c0d614736565b5b9050602002810190611c20919061519d565b604051611c2e9291906144df565b9081526020016040518091039020905060005b8180549050811015611fb5576000828281548110611c6257611c61614736565b5b9060005260206000209060080201905060008160070154148015611c9557508060060160009054906101000a900460ff16155b15611fa157806040518061010001604052908160008201548152602001600182018054611cc190614527565b80601f0160208091040260200160405190810160405280929190818152602001828054611ced90614527565b8015611d3a5780601f10611d0f57610100808354040283529160200191611d3a565b820191906000526020600020905b815481529060010190602001808311611d1d57829003601f168201915b50505050508152602001600282018054611d5390614527565b80601f0160208091040260200160405190810160405280929190818152602001828054611d7f90614527565b8015611dcc5780601f10611da157610100808354040283529160200191611dcc565b820191906000526020600020905b815481529060010190602001808311611daf57829003601f168201915b505050505081526020016003820160009054906101000a900473ffffffffffffffffffffffffffffffffffffffff1673ffffffffffffffffffffffffffffffffffffffff1673ffffffffffffffffffffffffffffffffffffffff168152602001600482018054611e3b90614527565b80601f0160208091040260200160405190810160405280929190818152602001828054611e6790614527565b8015611eb45780601f10611e8957610100808354040283529160200191611eb4565b820191906000526020600020905b815481529060010190602001808311611e9757829003601f168201915b50505050508152602001600582018054611ecd90614527565b80601f0160208091040260200160405190810160405280929190818152602001828054611ef990614527565b8015611f465780601f10611f1b57610100808354040283529160200191611f46565b820191906000526020600020905b815481529060010190602001808311611f2957829003601f168201915b505050505081526020016006820160009054906101000a900460ff16151515158152602001600782015481525050858781518110611f8757611f86614736565b5b60200260200101819052508580611f9d906147f7565b9650505b508080611fad906147f7565b915050611c41565b50508080611fc2906147f7565b915050611bec565b50809250505092915050565b611fde612ddd565b73ffffffffffffffffffffffffffffffffffffffff16611ffc6116b3565b73ffffffffffffffffffffffffffffffffffffffff1614612052576040517f08c379a00000000000000000000000000000000000000000000000000000000081526004016120499061516e565b60405180910390fd5b60005b600a8054905081101561210b57600060096000600a848154811061207c5761207b614736565b5b9060005260206000200160009054906101000a900473ffffffffffffffffffffffffffffffffffffffff1673ffffffffffffffffffffffffffffffffffffffff1673ffffffffffffffffffffffffffffffffffffffff16815260200190815260200160002060006101000a81548160ff0219169083151502179055508080612103906147f7565b915050612055565b5082829050600a8054905011156121a057600083839050600a805490506121329190614702565b905060005b8181101561219957600a80548061215157612150615200565b5b6001900381819060005260206000200160006101000a81549073ffffffffffffffffffffffffffffffffffffffff021916905590558080612191906147f7565b915050612137565b5050612201565b6000600a80549050848490506121b69190614702565b905060005b818110156121fe57600a600181600181540180825580915050039060005260206000200160009054906101000a90505080806121f6906147f7565b9150506121bb565b50505b60005b838390508110156122a15760016009600086868581811061222857612227614736565b5b905060200201602081019061223d91906142ec565b73ffffffffffffffffffffffffffffffffffffffff1673ffffffffffffffffffffffffffffffffffffffff16815260200190815260200160002060006101000a81548160ff0219169083151502179055508080612299906147f7565b915050612204565b508282600a91906122b3929190613254565b5080600881905550505050565b60096020528060005260406000206000915054906101000a900460ff1681565b600c60009054906101000a900473ffffffffffffffffffffffffffffffffffffffff1681565b61230e612ddd565b73ffffffffffffffffffffffffffffffffffffffff1661232c6116b3565b73ffffffffffffffffffffffffffffffffffffffff1614612382576040517f08c379a00000000000000000000000000000000000000000000000000000000081526004016123799061516e565b60405180910390fd5b80600c60006101000a81548173ffffffffffffffffffffffffffffffffffffffff021916908373ffffffffffffffffffffffffffffffffffffffff16021790555050565b6007818051602081018201805184825260208301602085012081835280955050505050506000915090505481565b6123fc612ddd565b73ffffffffffffffffffffffffffffffffffffffff1661241a6116b3565b73ffffffffffffffffffffffffffffffffffffffff1614612470576040517f08c379a00000000000000000000000000000000000000000000000000000000081526004016124679061516e565b60405180910390fd5b80600360006101000a81548173ffffffffffffffffffffffffffffffffffffffff021916908373ffffffffffffffffffffffffffffffffffffffff16021790555050565b6124bc6131f7565b6000600685856040516124d09291906144df565b908152602001604051809103902090508083815481106124f3576124f2614736565b5b9060005260206000209060080201604051806101000160405290816000820154815260200160018201805461252790614527565b80601f016020809104026020016040519081016040528092919081815260200182805461255390614527565b80156125a05780601f10612575576101008083540402835291602001916125a0565b820191906000526020600020905b81548152906001019060200180831161258357829003601f168201915b505050505081526020016002820180546125b990614527565b80601f01602080910402602001604051908101604052809291908181526020018280546125e590614527565b80156126325780601f1061260757610100808354040283529160200191612632565b820191906000526020600020905b81548152906001019060200180831161261557829003601f168201915b505050505081526020016003820160009054906101000a900473ffffffffffffffffffffffffffffffffffffffff1673ffffffffffffffffffffffffffffffffffffffff1673ffffffffffffffffffffffffffffffffffffffff1681526020016004820180546126a190614527565b80601f01602080910402602001604051908101604052809291908181526020018280546126cd90614527565b801561271a5780601f106126ef5761010080835404028352916020019161271a565b820191906000526020600020905b8154815290600101906020018083116126fd57829003601f168201915b5050505050815260200160058201805461273390614527565b80601f016020809104026020016040519081016040528092919081815260200182805461275f90614527565b80156127ac5780601f10612781576101008083540402835291602001916127ac565b820191906000526020600020905b81548152906001019060200180831161278f57829003601f168201915b505050505081526020016006820160009054906101000a900460ff161515151581526020016007820154815250509150509392505050565b6000600684846040516127f89291906144df565b908152602001604051809103902090506000816001846128189190614702565b8154811061282957612828614736565b5b9060005260206000209060080201905060018160060160006101000a81548160ff02191690831515021790555060008585836004018460020160405160240161287594939291906152dc565b6040516020818303038152906040527fff96254b000000000000000000000000000000000000000000000000000000007bffffffffffffffffffffffffffffffffffffffffffffffffffffffff19166020820180517bffffffffffffffffffffffffffffffffffffffffffffffffffffffff8381831617835250505050905060008260030160009054906101000a900473ffffffffffffffffffffffffffffffffffffffff1673ffffffffffffffffffffffffffffffffffffffff168260405161293f9190615366565b6000604051808303816000865af19150503d806000811461297c576040519150601f19603f3d011682016040523d82523d6000602084013e612981565b606091505b50509050806129c5576040517f08c379a00000000000000000000000000000000000000000000000000000000081526004016129bc906153c9565b60405180910390fd5b60008360030160009054906101000a900473ffffffffffffffffffffffffffffffffffffffff1673ffffffffffffffffffffffffffffffffffffffff1684600501604051612a139190615468565b6000604051808303816000865af19150503d8060008114612a50576040519150601f19603f3d011682016040523d82523d6000602084013e612a55565b606091505b5050905080612a99576040517f08c379a0000000000000000000000000000000000000000000000000000000008152600401612a90906154cb565b60405180910390fd5b5050505050505050565b600460009054906101000a900473ffffffffffffffffffffffffffffffffffffffff1681565b60085481565b60008060068484604051612ae49291906144df565b90815260200160405180910390209050808054905091505092915050565b612b0a612ddd565b73ffffffffffffffffffffffffffffffffffffffff16612b286116b3565b73ffffffffffffffffffffffffffffffffffffffff1614612b7e576040517f08c379a0000000000000000000000000000000000000000000000000000000008152600401612b759061516e565b60405180910390fd5b600073ffffffffffffffffffffffffffffffffffffffff168173ffffffffffffffffffffffffffffffffffffffff161415612bee576040517f08c379a0000000000000000000000000000000000000000000000000000000008152600401612be59061555d565b60405180910390fd5b612bf781612eac565b50565b600060013073ffffffffffffffffffffffffffffffffffffffff1663debcd46e85856040518363ffffffff1660e01b8152600401612c3992919061557d565b602060405180830381865afa158015612c56573d6000803e3d6000fd5b505050506040513d601f19601f82011682018060405250810190612c7a91906155a1565b612c84919061461a565b905092915050565b6000600686604051612c9e91906155ff565b9081526020016040518091039020905060018180549050612cbf919061461a565b8714612d00576040517f08c379a0000000000000000000000000000000000000000000000000000000008152600401612cf790615662565b60405180910390fd5b600081600181600181540180825580915050039060005260206000209060080201905087816000018190555086816001019080519060200190612d449291906130a0565b5085816002019080519060200190612d5d9291906130a0565b50848160030160006101000a81548173ffffffffffffffffffffffffffffffffffffffff021916908373ffffffffffffffffffffffffffffffffffffffff16021790555083816004019080519060200190612db99291906130a0565b5082816005019080519060200190612dd2929190613126565b505050505050505050565b600033905090565b600060068484604051612df99291906144df565b9081526020016040518091039020905060018180549050612e1a919061461a565b8514612e5b576040517f08c379a0000000000000000000000000000000000000000000000000000000008152600401612e5290615662565b60405180910390fd5b60008160018160018154018082558091505003906000526020600020906008020190508581600001819055508484826001019190612e9a929190612f70565b50828160070181905550505050505050565b60008060009054906101000a900473ffffffffffffffffffffffffffffffffffffffff169050816000806101000a81548173ffffffffffffffffffffffffffffffffffffffff021916908373ffffffffffffffffffffffffffffffffffffffff1602179055508173ffffffffffffffffffffffffffffffffffffffff168173ffffffffffffffffffffffffffffffffffffffff167f8be0079c531659141344cd1fd0a4f28419497f9722a3daafe3b4186f6b6457e060405160405180910390a35050565b828054612f7c90614527565b90600052602060002090601f016020900481019282612f9e5760008555612fe5565b82601f10612fb757803560ff1916838001178555612fe5565b82800160010185558215612fe5579182015b82811115612fe4578235825591602001919060010190612fc9565b5b509050612ff291906132f4565b5090565b82805461300290614527565b90600052602060002090601f016020900481019282613024576000855561306b565b82601f1061303d57803560ff191683800117855561306b565b8280016001018555821561306b579182015b8281111561306a57823582559160200191906001019061304f565b5b50905061307891906132f4565b5090565b508054600082556007029060005260206000209081019061309d9190613311565b50565b8280546130ac90614527565b90600052602060002090601f0160209004810192826130ce5760008555613115565b82601f106130e757805160ff1916838001178555613115565b82800160010185558215613115579182015b828111156131145782518255916020019190600101906130f9565b5b50905061312291906132f4565b5090565b82805461313290614527565b90600052602060002090601f016020900481019282613154576000855561319b565b82601f1061316d57805160ff191683800117855561319b565b8280016001018555821561319b579182015b8281111561319a57825182559160200191906001019061317f565b5b5090506131a891906132f4565b5090565b6040518060a00160405280600081526020016060815260200160608152602001600073ffffffffffffffffffffffffffffffffffffffff1681526020016131f16133b5565b81525090565b604051806101000160405280600081526020016060815260200160608152602001600073ffffffffffffffffffffffffffffffffffffffff1681526020016060815260200160608152602001600015158152602001600081525090565b8280548282559060005260206000209081019282156132e3579160200282015b828111156132e257823573ffffffffffffffffffffffffffffffffffffffff168260006101000a81548173ffffffffffffffffffffffffffffffffffffffff021916908373ffffffffffffffffffffffffffffffffffffffff16021790555091602001919060010190613274565b5b5090506132f091906132f4565b5090565b5b8082111561330d5760008160009055506001016132f5565b5090565b5b808211156133b15760008082016000905560018201600061333391906133dc565b60028201600061334391906133dc565b6003820160006101000a81549073ffffffffffffffffffffffffffffffffffffffff0219169055600482016000808201600061337f91906133dc565b60018201600061338f91906133dc565b60028201600080820160006133a4919061341c565b5050505050600701613312565b5090565b604051806060016040528060608152602001606081526020016133d661345c565b81525090565b5080546133e890614527565b6000825580601f106133fa5750613419565b601f01602090049060005260206000209081019061341891906132f4565b5b50565b50805461342890614527565b6000825580601f1061343a5750613459565b601f01602090049060005260206000209081019061345891906132f4565b5b50565b6040518060200160405280606081525090565b6000604051905090565b600080fd5b600080fd5b600080fd5b600080fd5b600080fd5b60008083601f8401126134a8576134a7613483565b5b8235905067ffffffffffffffff8111156134c5576134c4613488565b5b6020830191508360018202830111156134e1576134e061348d565b5b9250929050565b600080602083850312156134ff576134fe613479565b5b600083013567ffffffffffffffff81111561351d5761351c61347e565b5b61352985828601613492565b92509250509250929050565b6000819050919050565b61354881613535565b82525050565b6000602082019050613563600083018461353f565b92915050565b600073ffffffffffffffffffffffffffffffffffffffff82169050919050565b600061359482613569565b9050919050565b6135a481613589565b81146135af57600080fd5b50565b6000813590506135c18161359b565b92915050565b600080fd5b6000601f19601f8301169050919050565b7f4e487b7100000000000000000000000000000000000000000000000000000000600052604160045260246000fd5b613615826135cc565b810181811067ffffffffffffffff82111715613634576136336135dd565b5b80604052505050565b600061364761346f565b9050613653828261360c565b919050565b600067ffffffffffffffff821115613673576136726135dd565b5b61367c826135cc565b9050602081019050919050565b82818337600083830152505050565b60006136ab6136a684613658565b61363d565b9050828152602081018484840111156136c7576136c66135c7565b5b6136d2848285613689565b509392505050565b600082601f8301126136ef576136ee613483565b5b81356136ff848260208601613698565b91505092915050565b6000806040838503121561371f5761371e613479565b5b600061372d858286016135b2565b925050602083013567ffffffffffffffff81111561374e5761374d61347e565b5b61375a858286016136da565b9150509250929050565b600081519050919050565b600082825260208201905092915050565b60005b8381101561379e578082015181840152602081019050613783565b838111156137ad576000848401525b50505050565b60006137be82613764565b6137c8818561376f565b93506137d8818560208601613780565b6137e1816135cc565b840191505092915050565b6000602082019050818103600083015261380681846137b3565b905092915050565b61381781613535565b811461382257600080fd5b50565b6000813590506138348161380e565b92915050565b60008083601f8401126138505761384f613483565b5b8235905067ffffffffffffffff81111561386d5761386c613488565b5b6020830191508360018202830111156138895761388861348d565b5b9250929050565b60008060008060008060008060008060c08b8d0312156138b3576138b2613479565b5b60006138c18d828e01613825565b9a505060208b013567ffffffffffffffff8111156138e2576138e161347e565b5b6138ee8d828e01613492565b995099505060408b013567ffffffffffffffff8111156139115761391061347e565b5b61391d8d828e01613492565b975097505060606139308d828e016135b2565b95505060808b013567ffffffffffffffff8111156139515761395061347e565b5b61395d8d828e01613492565b945094505060a08b013567ffffffffffffffff8111156139805761397f61347e565b5b61398c8d828e0161383a565b92509250509295989b9194979a5092959850565b600080600080606085870312156139ba576139b9613479565b5b60006139c887828801613825565b945050602085013567ffffffffffffffff8111156139e9576139e861347e565b5b6139f587828801613492565b93509350506040613a0887828801613825565b91505092959194509250565b60008060008060408587031215613a2e57613a2d613479565b5b600085013567ffffffffffffffff811115613a4c57613a4b61347e565b5b613a5887828801613492565b9450945050602085013567ffffffffffffffff811115613a7b57613a7a61347e565b5b613a8787828801613492565b925092505092959194509250565b6000806000806000806000806080898b031215613ab557613ab4613479565b5b600089013567ffffffffffffffff811115613ad357613ad261347e565b5b613adf8b828c01613492565b9850985050602089013567ffffffffffffffff811115613b0257613b0161347e565b5b613b0e8b828c01613492565b9650965050604089013567ffffffffffffffff811115613b3157613b3061347e565b5b613b3d8b828c01613492565b9450945050606089013567ffffffffffffffff811115613b6057613b5f61347e565b5b613b6c8b828c01613492565b92509250509295985092959890939650565b600060208284031215613b9457613b93613479565b5b6000613ba284828501613825565b91505092915050565b613bb481613589565b82525050565b6000602082019050613bcf6000830184613bab565b92915050565b6000819050919050565b6000613bfa613bf5613bf084613569565b613bd5565b613569565b9050919050565b6000613c0c82613bdf565b9050919050565b6000613c1e82613c01565b9050919050565b613c2e81613c13565b82525050565b6000602082019050613c496000830184613c25565b92915050565b6000806000806000806000806080898b031215613c6f57613c6e613479565b5b600089013567ffffffffffffffff811115613c8d57613c8c61347e565b5b613c998b828c01613492565b9850985050602089013567ffffffffffffffff811115613cbc57613cbb61347e565b5b613cc88b828c01613492565b9650965050604089013567ffffffffffffffff811115613ceb57613cea61347e565b5b613cf78b828c01613492565b9450945050606089013567ffffffffffffffff811115613d1a57613d1961347e565b5b613d268b828c0161383a565b92509250509295985092959890939650565b60006060820190508181036000830152613d5281866137b3565b90508181036020830152613d6681856137b3565b90508181036040830152613d7a81846137b3565b9050949350505050565b600080600060408486031215613d9d57613d9c613479565b5b600084013567ffffffffffffffff811115613dbb57613dba61347e565b5b613dc786828701613492565b93509350506020613dda86828701613825565b9150509250925092565b613ded81613535565b82525050565b600082825260208201905092915050565b6000613e0f82613764565b613e198185613df3565b9350613e29818560208601613780565b613e32816135cc565b840191505092915050565b613e4681613589565b82525050565b600081519050919050565b600082825260208201905092915050565b6000613e7382613e4c565b613e7d8185613e57565b9350613e8d818560208601613780565b613e96816135cc565b840191505092915050565b60006020830160008301518482036000860152613ebe8282613e68565b9150508091505092915050565b60006060830160008301518482036000860152613ee88282613e04565b91505060208301518482036020860152613f028282613e04565b91505060408301518482036040860152613f1c8282613ea1565b9150508091505092915050565b600060a083016000830151613f416000860182613de4565b5060208301518482036020860152613f598282613e04565b91505060408301518482036040860152613f738282613e04565b9150506060830151613f886060860182613e3d565b5060808301518482036080860152613fa08282613ecb565b9150508091505092915050565b60006020820190508181036000830152613fc78184613f29565b905092915050565b60008083601f840112613fe557613fe4613483565b5b8235905067ffffffffffffffff81111561400257614001613488565b5b60208301915083602082028301111561401e5761401d61348d565b5b9250929050565b6000806020838503121561403c5761403b613479565b5b600083013567ffffffffffffffff81111561405a5761405961347e565b5b61406685828601613fcf565b92509250509250929050565b600081519050919050565b600082825260208201905092915050565b6000819050602082019050919050565b60008115159050919050565b6140b38161409e565b82525050565b6000610100830160008301516140d26000860182613de4565b50602083015184820360208601526140ea8282613e04565b915050604083015184820360408601526141048282613e04565b91505060608301516141196060860182613e3d565b50608083015184820360808601526141318282613e04565b91505060a083015184820360a086015261414b8282613e68565b91505060c083015161416060c08601826140aa565b5060e083015161417360e0860182613de4565b508091505092915050565b600061418a83836140b9565b905092915050565b6000602082019050919050565b60006141aa82614072565b6141b4818561407d565b9350836020820285016141c68561408e565b8060005b8581101561420257848403895281516141e3858261417e565b94506141ee83614192565b925060208a019950506001810190506141ca565b50829750879550505050505092915050565b6000602082019050818103600083015261422e818461419f565b905092915050565b60008083601f84011261424c5761424b613483565b5b8235905067ffffffffffffffff81111561426957614268613488565b5b6020830191508360208202830111156142855761428461348d565b5b9250929050565b6000806000604084860312156142a5576142a4613479565b5b600084013567ffffffffffffffff8111156142c3576142c261347e565b5b6142cf86828701614236565b935093505060206142e286828701613825565b9150509250925092565b60006020828403121561430257614301613479565b5b6000614310848285016135b2565b91505092915050565b6143228161409e565b82525050565b600060208201905061433d6000830184614319565b92915050565b600061434e82613c01565b9050919050565b61435e81614343565b82525050565b60006020820190506143796000830184614355565b92915050565b60006020828403121561439557614394613479565b5b600082013567ffffffffffffffff8111156143b3576143b261347e565b5b6143bf848285016136da565b91505092915050565b6000610100830160008301516143e16000860182613de4565b50602083015184820360208601526143f98282613e04565b915050604083015184820360408601526144138282613e04565b91505060608301516144286060860182613e3d565b50608083015184820360808601526144408282613e04565b91505060a083015184820360a086015261445a8282613e68565b91505060c083015161446f60c08601826140aa565b5060e083015161448260e0860182613de4565b508091505092915050565b600060208201905081810360008301526144a781846143c8565b905092915050565b600081905092915050565b60006144c683856144af565b93506144d3838584613689565b82840190509392505050565b60006144ec8284866144ba565b91508190509392505050565b7f4e487b7100000000000000000000000000000000000000000000000000000000600052602260045260246000fd5b6000600282049050600182168061453f57607f821691505b60208210811415614553576145526144f8565b5b50919050565b7f4d756c7469506f72746572733a20706f72746572206e6f74207265676973746560008201527f7265640000000000000000000000000000000000000000000000000000000000602082015250565b60006145b560238361376f565b91506145c082614559565b604082019050919050565b600060208201905081810360008301526145e4816145a8565b9050919050565b7f4e487b7100000000000000000000000000000000000000000000000000000000600052601160045260246000fd5b600061462582613535565b915061463083613535565b9250827fffffffffffffffffffffffffffffffffffffffffffffffffffffffffffffffff03821115614665576146646145eb565b5b828201905092915050565b7f4d756c7469506f7274657243726f7373436861696e3a206964206e6f74206d6160008201527f7463680000000000000000000000000000000000000000000000000000000000602082015250565b60006146cc60238361376f565b91506146d782614670565b604082019050919050565b600060208201905081810360008301526146fb816146bf565b9050919050565b600061470d82613535565b915061471883613535565b92508282101561472b5761472a6145eb565b5b828203905092915050565b7f4e487b7100000000000000000000000000000000000000000000000000000000600052603260045260246000fd5b7f4d756c7469506f7274657243726f7373436861696e3a206475706c696361746560008201527f20636f6d6d697400000000000000000000000000000000000000000000000000602082015250565b60006147c160278361376f565b91506147cc82614765565b604082019050919050565b600060208201905081810360008301526147f0816147b4565b9050919050565b600061480282613535565b91507fffffffffffffffffffffffffffffffffffffffffffffffffffffffffffffffff821415614835576148346145eb565b5b600182019050919050565b7f56657269667920436f6e7472616374206e6f7420736574000000000000000000600082015250565b600061487660178361376f565b915061488182614840565b602082019050919050565b600060208201905081810360008301526148a581614869565b9050919050565b600081549050919050565b600082825260208201905092915050565b60008190508160005260206000209050919050565b60008160001c9050919050565b6000819050919050565b6000614907614902836148dd565b6148ea565b9050919050565b60008190508160005260206000209050919050565b6000815461493081614527565b61493a8186613df3565b9450600182166000811461495557600181146149675761499a565b60ff198316865260208601935061499a565b6149708561490e565b60005b8381101561499257815481890152600182019150602081019050614973565b808801955050505b50505092915050565b600073ffffffffffffffffffffffffffffffffffffffff82169050919050565b60006149d66149d1836148dd565b6149a3565b9050919050565b60008190508160005260206000209050919050565b600081546149ff81614527565b614a098186613e57565b94506001821660008114614a245760018114614a3657614a69565b60ff1983168652602086019350614a69565b614a3f856149dd565b60005b83811015614a6157815481890152600182019150602081019050614a42565b808801955050505b50505092915050565b600060ff82169050919050565b6000614a92614a8d836148dd565b614a72565b9050919050565b600061010083016000808401549050614ab1816148f4565b614abe6000870182613de4565b50600184018583036020870152614ad58382614923565b925050600284018583036040870152614aee8382614923565b92505060038401549050614b01816149c3565b614b0e6060870182613e3d565b50600484018583036080870152614b258382614923565b9250506005840185830360a0870152614b3e83826149f2565b92505060068401549050614b5181614a7f565b614b5e60c08701826140aa565b5060078401549050614b6f816148f4565b614b7c60e0870182613de4565b50819250505092915050565b60006040830160008084018583036000870152614ba58382614a99565b92505060088401549050614bb8816149c3565b614bc56020870182613e3d565b50819250505092915050565b6000614bdd8383614b88565b905092915050565b6000600982019050919050565b6000614bfd826148ac565b614c0781856148b7565b935083602082028501614c19856148c8565b8060005b85811015614c5457848403895281614c358582614bd1565b9450614c4083614be5565b925060208a01995050600181019050614c1d565b50829750879550505050505092915050565b6000819050919050565b600063ffffffff82169050919050565b6000614c9b614c96614c9184614c66565b613bd5565b614c70565b9050919050565b614cab81614c80565b82525050565b60006040820190508181036000830152614ccb8185614bf2565b9050614cda6020830184614ca2565b9392505050565b600067ffffffffffffffff821115614cfc57614cfb6135dd565b5b602082029050602081019050919050565b600080fd5b600080fd5b600081519050614d268161380e565b92915050565b6000614d3f614d3a84613658565b61363d565b905082815260208101848484011115614d5b57614d5a6135c7565b5b614d66848285613780565b509392505050565b600082601f830112614d8357614d82613483565b5b8151614d93848260208601614d2c565b91505092915050565b600081519050614dab8161359b565b92915050565b600067ffffffffffffffff821115614dcc57614dcb6135dd565b5b614dd5826135cc565b9050602081019050919050565b6000614df5614df084614db1565b61363d565b905082815260208101848484011115614e1157614e106135c7565b5b614e1c848285613780565b509392505050565b600082601f830112614e3957614e38613483565b5b8151614e49848260208601614de2565b91505092915050565b614e5b8161409e565b8114614e6657600080fd5b50565b600081519050614e7881614e52565b92915050565b60006101008284031215614e9557614e94614d0d565b5b614ea061010061363d565b90506000614eb084828501614d17565b600083015250602082015167ffffffffffffffff811115614ed457614ed3614d12565b5b614ee084828501614d6e565b602083015250604082015167ffffffffffffffff811115614f0457614f03614d12565b5b614f1084828501614d6e565b6040830152506060614f2484828501614d9c565b606083015250608082015167ffffffffffffffff811115614f4857614f47614d12565b5b614f5484828501614d6e565b60808301525060a082015167ffffffffffffffff811115614f7857614f77614d12565b5b614f8484828501614e24565b60a08301525060c0614f9884828501614e69565b60c08301525060e0614fac84828501614d17565b60e08301525092915050565b600060408284031215614fce57614fcd614d0d565b5b614fd8604061363d565b9050600082015167ffffffffffffffff811115614ff857614ff7614d12565b5b61500484828501614e7e565b600083015250602061501884828501614d9c565b60208301525092915050565b600061503761503284614ce1565b61363d565b9050808382526020820190506020840283018581111561505a5761505961348d565b5b835b818110156150a157805167ffffffffffffffff81111561507f5761507e613483565b5b80860161508c8982614fb8565b8552602085019450505060208101905061505c565b5050509392505050565b600082601f8301126150c0576150bf613483565b5b81516150d0848260208601615024565b91505092915050565b6000602082840312156150ef576150ee613479565b5b600082015167ffffffffffffffff81111561510d5761510c61347e565b5b615119848285016150ab565b91505092915050565b7f4f776e61626c653a2063616c6c6572206973206e6f7420746865206f776e6572600082015250565b600061515860208361376f565b915061516382615122565b602082019050919050565b600060208201905081810360008301526151878161514b565b9050919050565b600080fd5b600080fd5b600080fd5b600080833560016020038436030381126151ba576151b961518e565b5b80840192508235915067ffffffffffffffff8211156151dc576151db615193565b5b6020830192506001820236038313156151f8576151f7615198565b5b509250929050565b7f4e487b7100000000000000000000000000000000000000000000000000000000600052603160045260246000fd5b600061523b838561376f565b9350615248838584613689565b615251836135cc565b840190509392505050565b6000815461526981614527565b615273818661376f565b9450600182166000811461528e57600181146152a0576152d3565b60ff19831686526020860193506152d3565b6152a98561490e565b60005b838110156152cb578154818901526001820191506020810190506152ac565b808801955050505b50505092915050565b600060608201905081810360008301526152f781868861522f565b9050818103602083015261530b818561525c565b9050818103604083015261531f818461525c565b905095945050505050565b600081905092915050565b600061534082613e4c565b61534a818561532a565b935061535a818560208601613780565b80840191505092915050565b60006153728284615335565b915081905092915050565b7f766572696679206661696c656400000000000000000000000000000000000000600082015250565b60006153b3600d8361376f565b91506153be8261537d565b602082019050919050565b600060208201905081810360008301526153e2816153a6565b9050919050565b600081546153f681614527565b615400818661532a565b9450600182166000811461541b576001811461542c5761545f565b60ff1983168652818601935061545f565b615435856149dd565b60005b8381101561545757815481890152600182019150602081019050615438565b838801955050505b50505092915050565b600061547482846153e9565b915081905092915050565b7f63616c6c2066756e6374696f6e206661696c6564000000000000000000000000600082015250565b60006154b560148361376f565b91506154c08261547f565b602082019050919050565b600060208201905081810360008301526154e4816154a8565b9050919050565b7f4f776e61626c653a206e6577206f776e657220697320746865207a65726f206160008201527f6464726573730000000000000000000000000000000000000000000000000000602082015250565b600061554760268361376f565b9150615552826154eb565b604082019050919050565b600060208201905081810360008301526155768161553a565b9050919050565b6000602082019050818103600083015261559881848661522f565b90509392505050565b6000602082840312156155b7576155b6613479565b5b60006155c584828501614d17565b91505092915050565b60006155d982613764565b6155e381856144af565b93506155f3818560208601613780565b80840191505092915050565b600061560b82846155ce565b915081905092915050565b7f43726f7373436861696e3a206964206e6f74206d617463680000000000000000600082015250565b600061564c60188361376f565b915061565782615616565b602082019050919050565b6000602082019050818103600083015261567b8161563f565b905091905056fea2646970667358221220305e9a48c6ea1898ebd4e2c24780dbc9d9fc7d98391072597d3ffb55f7dc1ae164736f6c634300080a0033",
  "immutableReferences": {},
  "source": "// SPDX-License-Identifier: MIT\npragma solidity >=0.8.0 <0.9.0;\n\nimport \"./CrossChain.sol\";\nimport \"./MultiPorters.sol\";\nimport \"./MessageVerify.sol\";\n\ncontract MultiPorterCrossChain is CrossChain, MultiPorters {\n    mapping(string => cachedReceivedMessage[][]) internal cachedReceivedMessageTable;\n    MessageVerify public verifyContract;\n\n    /**\n     * @dev Sets address of MessageVerify contract.\n     */\n    function setVerifyContract(address _address) external onlyOwner {\n        verifyContract = MessageVerify(_address);\n    }\n\n    /**\n     * @dev See ICrossChain.\n     */\n    function abandonMessage(uint256 _id, string calldata _fromChain, uint256 _errorCode) virtual override external onlyPorter {\n        cachedReceivedMessage[][] storage chainMessage = cachedReceivedMessageTable[_fromChain];\n        require(_id <= chainMessage.length + 1, \"MultiPorterCrossChain: id not match\");\n\n        cachedReceivedMessage[] storage cachedMessages;\n        if (_id == chainMessage.length + 1) {\n            cachedMessages = chainMessage.push();\n        }\n        else {\n            cachedMessages = chainMessage[_id - 1];\n        }\n        // check duplicate commit\n        for (uint i = 0; i < cachedMessages.length; i++) {\n            if (cachedMessages[i].porter == msg.sender) {\n                revert(\"MultiPorterCrossChain: duplicate commit\");\n            }\n        }\n        // add message\n        cachedReceivedMessage storage m = cachedMessages.push();\n        m.message.id = _id;\n        m.message.fromChain = _fromChain;\n        m.message.errorCode = _errorCode;\n        m.porter = msg.sender;\n        \n        // aggregation\n        if (cachedMessages.length == required) {\n            _abandonMessage(_id, _fromChain, _errorCode);\n        }\n    }\n\n    /**\n     * @dev See ICrossChain.\n     */\n    function receiveMessage(uint256 _id, string calldata _fromChain, string calldata _sender, address _to,\n            string calldata _action, bytes calldata _data) virtual override external onlyPorter {\n        cachedReceivedMessage[][] storage chainMessage = cachedReceivedMessageTable[_fromChain];\n        require(_id <= chainMessage.length + 1, \"MultiPorterCrossChain: id not match\");\n\n        cachedReceivedMessage[] storage cachedMessages;\n        if (_id == chainMessage.length + 1) {\n            cachedMessages = chainMessage.push();\n        }\n        else {\n            cachedMessages = chainMessage[_id - 1];\n        }\n        // check duplicate commit\n        for (uint i = 0; i < cachedMessages.length; i++) {\n            if (cachedMessages[i].porter == msg.sender) {\n                revert(\"MultiPorterCrossChain: duplicate commit\");\n            }\n        }\n        // add message\n        cachedReceivedMessage storage m = cachedMessages.push();\n        m.message.id = _id;\n        m.message.fromChain = _fromChain;\n        m.message.sender = _sender;\n        m.message.contractAddress = _to;\n        m.message.action = _action;\n        m.message.data = _data;\n        m.porter = msg.sender;\n        \n        // aggregation\n        if (cachedMessages.length == required) {\n            require(address(verifyContract) != address(0), \"Verify Contract not set\");\n            cachedReceivedMessage[] memory rets = verifyContract.msgVerify(cachedMessages, 100);\n            if (rets.length > 0) {\n                ReceivedMessage memory ret = rets[0].message;\n                _receiveMessage(ret.id, ret.fromChain, ret.sender, ret.contractAddress, ret.action, ret.data);\n            }\n        }\n    }\n\n    function clearCrossChainMessage(string calldata _toChain) external onlyOwner {\n        delete sentMessageTable[_toChain];\n    }\n}",
  "sourcePath": "/home/george/hthuang/dante-cross-chain/avalanche/contracts/MultiPorterCrossChain.sol",
  "compiler": {
    "name": "solc",
    "version": "0.8.10+commit.fc410830.Emscripten.clang"
  },
  "schemaVersion": "3.4.4",
  "updatedAt": "2022-02-07T09:53:45.191Z",
  "networkType": "ethereum",
  "devdoc": {
    "kind": "dev",
    "methods": {
      "abandonMessage(uint256,string,uint256)": {
        "details": "See ICrossChain."
      },
      "changePortersAndRequirement(address[],uint256)": {
        "details": "Changes porters and requirement."
      },
      "executeMessage(string,uint256)": {
        "details": "See ICrossChain."
      },
      "getReceivedMessage(string,uint256)": {
        "details": "See ICrossChain."
      },
      "getReceivedMessageNumber(string)": {
        "details": "See ICrossChain."
      },
      "getSentMessage(string,uint256)": {
        "details": "See ICrossChain."
      },
      "getSentMessageNumber(string)": {
        "details": "See ICrossChain."
      },
      "owner()": {
        "details": "Returns the address of the current owner."
      },
      "receiveMessage(uint256,string,string,address,string,bytes)": {
        "details": "See ICrossChain."
      },
      "renounceOwnership()": {
        "details": "Leaves the contract without owner. It will not be possible to call `onlyOwner` functions anymore. Can only be called by the current owner. NOTE: Renouncing ownership will leave the contract without an owner, thereby removing any functionality that is only available to the owner."
      },
      "sendMessage(string,string,string,bytes)": {
        "details": "See ICrossChain."
      },
      "setTokenContract(address)": {
        "details": "See ICrossChain."
      },
      "setVerifyContract(address)": {
        "details": "Sets address of MessageVerify contract."
      },
      "transferOwnership(address)": {
        "details": "Transfers ownership of the contract to a new account (`newOwner`). Can only be called by the current owner."
      }
    },
    "version": 1
  },
  "userdoc": {
    "kind": "user",
    "methods": {},
    "version": 1
  }
}